{
  "_format": "hh-sol-artifact-1",
  "contractName": "Webauthn",
  "sourceName": "contracts/Webauthn.sol",
  "abi": [
    {
      "inputs": [],
      "name": "InvalidAuthenticatorData",
      "type": "error"
    },
    {
      "inputs": [],
      "name": "InvalidClientData",
      "type": "error"
    },
    {
      "inputs": [],
      "name": "InvalidSignature",
      "type": "error"
    },
    {
      "inputs": [
        {
          "internalType": "bytes",
          "name": "authenticatorData",
          "type": "bytes"
        },
        {
          "internalType": "bytes1",
          "name": "authenticatorDataFlagMask",
          "type": "bytes1"
        },
        {
          "internalType": "bytes",
          "name": "clientData",
          "type": "bytes"
        },
        {
          "internalType": "bytes32",
          "name": "clientChallenge",
          "type": "bytes32"
        },
        {
          "internalType": "uint256",
          "name": "clientChallengeDataOffset",
          "type": "uint256"
        },
        {
          "internalType": "uint256[2]",
          "name": "rs",
          "type": "uint256[2]"
        },
        {
          "internalType": "uint256[2]",
          "name": "Q",
          "type": "uint256[2]"
        }
      ],
      "name": "checkSignature",
      "outputs": [
        {
          "internalType": "bool",
          "name": "",
          "type": "bool"
        }
      ],
      "stateMutability": "nonpayable",
      "type": "function"
    },
    {
      "inputs": [],
      "name": "counter",
      "outputs": [
        {
          "internalType": "uint256",
          "name": "",
          "type": "uint256"
        }
      ],
      "stateMutability": "view",
      "type": "function"
    },
    {
      "inputs": [
        {
          "internalType": "bytes32",
          "name": "hash",
          "type": "bytes32"
        },
        {
          "internalType": "uint256[2]",
          "name": "rs",
          "type": "uint256[2]"
        },
        {
          "internalType": "uint256[2]",
          "name": "Q",
          "type": "uint256[2]"
        }
      ],
      "name": "ecdsa_verif",
      "outputs": [
        {
          "internalType": "bool",
          "name": "",
          "type": "bool"
        }
      ],
      "stateMutability": "nonpayable",
      "type": "function"
    },
    {
      "inputs": [
        {
          "internalType": "bytes",
          "name": "authenticatorData",
          "type": "bytes"
        },
        {
          "internalType": "bytes1",
          "name": "authenticatorDataFlagMask",
          "type": "bytes1"
        },
        {
          "internalType": "bytes",
          "name": "clientData",
          "type": "bytes"
        },
        {
          "internalType": "bytes32",
          "name": "clientChallenge",
          "type": "bytes32"
        },
        {
          "internalType": "uint256",
          "name": "clientChallengeDataOffset",
          "type": "uint256"
        },
        {
          "internalType": "uint256[2]",
          "name": "rs",
          "type": "uint256[2]"
        },
        {
          "internalType": "uint256[2]",
          "name": "Q",
          "type": "uint256[2]"
        }
      ],
      "name": "validate",
      "outputs": [],
      "stateMutability": "nonpayable",
      "type": "function"
    }
  ],
  "bytecode": "0x608060405234801561001057600080fd5b506122ff806100206000396000f3fe608060405234801561001057600080fd5b506004361061004c5760003560e01c80630d5efec91461005157806342b2a7b91461008157806361bc221a1461009d578063efdfa74f146100bb575b600080fd5b61006b60048036038101906100669190611d90565b6100eb565b6040516100789190611e86565b60405180910390f35b61009b60048036038101906100969190611d90565b610440565b005b6100a56104a5565b6040516100b29190611eb0565b60405180910390f35b6100d560048036038101906100d09190611ecb565b6104ab565b6040516100e29190611e86565b60405180910390f35b6000867effffffffffffffffffffffffffffffffffffffffffffffffffffffffffffff1916878960208151811061012557610124611f1e565b5b602001015160f81c60f81b167effffffffffffffffffffffffffffffffffffffffffffffffffffffffffffff19161461018a576040517ffc93479200000000000000000000000000000000000000000000000000000000815260040160405180910390fd5b60006101b4866040516020016101a09190611f6e565b60405160208183030381529060405261059c565b90506000815167ffffffffffffffff8111156101d3576101d2611aeb565b5b6040519080825280601f01601f1916602001820160405280156102055781602001600182028036833780820191505090505b509050610217888783518460006106d5565b50806040516020016102299190611ffa565b60405160208183030381529060405280519060200120826040516020016102509190611ffa565b604051602081830303815290604052805190602001201461029d576040517febab5d2900000000000000000000000000000000000000000000000000000000815260040160405180910390fd5b600060208b516102ad9190612040565b67ffffffffffffffff8111156102c6576102c5611aeb565b5b6040519080825280601f01601f1916602001820160405280156102f85781602001600182028036833780820191505090505b50905061030b8b60008d518460006106d5565b5061038a60028a60405161031f9190611ffa565b602060405180830381855afa15801561033c573d6000803e3d6000fd5b5050506040513d601f19601f8201168201806040525081019061035f9190612089565b60405160200161036f9190611f6e565b60405160208183030381529060405260006020848f516106d5565b50600060028260405161039d9190611ffa565b602060405180830381855afa1580156103ba573d6000803e3d6000fd5b5050506040513d601f19601f820116820180604052508101906103dd9190612089565b905060006103ec828989610773565b905061042d6040518060400160405280600a81526020017f726573756c743d2025730000000000000000000000000000000000000000000081525082610992565b8095505050505050979650505050505050565b61044f878787878787876100eb565b610485576040517f8baa579f00000000000000000000000000000000000000000000000000000000815260040160405180910390fd5b600080815480929190610497906120b6565b919050555050505050505050565b60005481565b60006104ef6040518060400160405280600581526020017f686173683d0000000000000000000000000000000000000000000000000000008152508560001c610a2e565b6105466040518060400160405280600481526020017f7273303d000000000000000000000000000000000000000000000000000000008152508460006002811061053c5761053b611f1e565b5b6020020151610a2e565b6000610553858585610773565b90506105946040518060400160405280600a81526020017f726573756c743d2025730000000000000000000000000000000000000000000081525082610992565b509392505050565b606060008251036105be576040518060200160405280600081525090506106d0565b600060405180606001604052806040815260200161228a604091399050600060016003600286516105ef9190612040565b6105f9919061212d565b6004610605919061215e565b61060f91906121a0565b67ffffffffffffffff81111561062857610627611aeb565b5b6040519080825280601f01601f19166020018201604052801561065a5781602001600182028036833780820191505090505b509050600182016020820185865187015b808210156106c6576003820191508151603f8160121c168501518453600184019350603f81600c1c168501518453600184019350603f8160061c168501518453600184019350603f811685015184536001840193505061066b565b5050505080925050505b919050565b6060600082856106e59190612040565b905080845110156106f557600080fd5b60008660206107049190612040565b905060008460206107159190612040565b90505b868860206107269190612040565b6107309190612040565b821015610764578189015180828801525060208261074e9190612040565b915060208161075d9190612040565b9050610718565b85935050505095945050505050565b6000808360006002811061078a57610789611f1e565b5b602002015114806107d357507fffffffff00000000ffffffffffffffffbce6faada7179e84f3b9cac2fc632551836000600281106107cb576107ca611f1e565b5b602002015110155b806107f657506000836001600281106107ef576107ee611f1e565b5b6020020151145b15610804576000905061098b565b61083e8260006002811061081b5761081a611f1e565b5b60200201518360016002811061083457610833611f1e565b5b6020020151610aca565b61084b576000905061098b565b600061086e8460016002811061086457610863611f1e565b5b6020020151610cbe565b905060007fffffffff00000000ffffffffffffffffbce6faada7179e84f3b9cac2fc632551806108a1576108a06120fe565b5b828760001c09905060007fffffffff00000000ffffffffffffffffbce6faada7179e84f3b9cac2fc632551806108da576108d96120fe565b5b83876000600281106108ef576108ee611f1e565b5b60200201510990506000610935866000600281106109105761090f611f1e565b5b60200201518760016002811061092957610928611f1e565b5b60200201518585610d4c565b90507fffffffff00000000ffffffffffffffffbce6faada7179e84f3b9cac2fc63255187517fffffffff00000000ffffffffffffffffbce6faada7179e84f3b9cac2fc6325510382089050600081149450505050505b9392505050565b610a2a82826040516024016109a8929190612229565b6040516020818303038152906040527fc3b55635000000000000000000000000000000000000000000000000000000007bffffffffffffffffffffffffffffffffffffffffffffffffffffffff19166020820180517bffffffffffffffffffffffffffffffffffffffffffffffffffffffff8381831617835250505050611569565b5050565b610ac68282604051602401610a44929190612259565b6040516020818303038152906040527fb60e72cc000000000000000000000000000000000000000000000000000000007bffffffffffffffffffffffffffffffffffffffffffffffffffffffff19166020820180517bffffffffffffffffffffffffffffffffffffffffffffffffffffffff8381831617835250505050611569565b5050565b60008260001480610afa57507fffffffff00000001000000000000000000000000ffffffffffffffffffffffff83145b80610b055750816000145b80610b2f57507fffffffff00000001000000000000000000000000ffffffffffffffffffffffff82145b15610b3d5760009050610cb8565b60007fffffffff00000001000000000000000000000000ffffffffffffffffffffffff80610b6e57610b6d6120fe565b5b838409905060007fffffffff00000001000000000000000000000000ffffffffffffffffffffffff80610ba457610ba36120fe565b5b7fffffffff00000001000000000000000000000000ffffffffffffffffffffffff80610bd357610bd26120fe565b5b7fffffffff00000001000000000000000000000000fffffffffffffffffffffffc87097fffffffff00000001000000000000000000000000ffffffffffffffffffffffff80610c2557610c246120fe565b5b877fffffffff00000001000000000000000000000000ffffffffffffffffffffffff80610c5557610c546120fe565b5b898a09090890507fffffffff00000001000000000000000000000000ffffffffffffffffffffffff80610c8b57610c8a6120fe565b5b7f5ac635d8aa3a93e7b3ebbd55769886bc651d06b0cc53b0f63bce3c3e27d2604b82089050808214925050505b92915050565b6000610cc8611a9a565b60208152602080820152602060408201528260608201527fffffffff00000000ffffffffffffffffbce6faada7179e84f3b9cac2fc63254f60808201527fffffffff00000000ffffffffffffffffbce6faada7179e84f3b9cac2fc63255160a082015260208160c08360006005600019f1610d4257600080fd5b8051915050919050565b600080600080600060ff9050610d60611a9a565b60008060008a148015610d735750600089145b15610d88576000975050505050505050611561565b610dd47f6b17d1f2e12c4247f8bce6e563a440f277037d812deb33a0f4a13945d898c2967f4fe342e2fe1a7f9b8ee7eb4a7c0f9e162bce33576b315ececbb6406837bf51f58e8e611592565b80925081935050505b60006001858b901c166002610df2919061215e565b6001868d901c16610e039190612040565b03610e1c57600184610e1591906121a0565b9350610ddd565b60018a851c1660018a861c1660011b01965060018703610e7d577f6b17d1f2e12c4247f8bce6e563a440f277037d812deb33a0f4a13945d898c29697507f4fe342e2fe1a7f9b8ee7eb4a7c0f9e162bce33576b315ececbb6406837bf51f594505b60028703610e8c578b97508a94505b60038703610e9b578197508094505b60018403935060019650600195505b837fffffffffffffffffffffffffffffffffffffffffffffffffffffffffffffffff11156114b8577fffffffff00000001000000000000000000000000ffffffffffffffffffffffff856002097fffffffff00000001000000000000000000000000ffffffffffffffffffffffff8182097fffffffff00000001000000000000000000000000ffffffffffffffffffffffff818b097fffffffff00000001000000000000000000000000ffffffffffffffffffffffff82840992507fffffffff00000001000000000000000000000000ffffffffffffffffffffffff807fffffffff00000001000000000000000000000000ffffffffffffffffffffffff8c8e087fffffffff00000001000000000000000000000000ffffffffffffffffffffffff8d7fffffffff00000001000000000000000000000000ffffffffffffffffffffffff038f08096003097fffffffff00000001000000000000000000000000ffffffffffffffffffffffff8a850999507fffffffff00000001000000000000000000000000ffffffffffffffffffffffff8b84099a507fffffffff00000001000000000000000000000000ffffffffffffffffffffffff80837fffffffff00000001000000000000000000000000fffffffffffffffffffffffd097fffffffff00000001000000000000000000000000ffffffffffffffffffffffff838409089b507fffffffff00000001000000000000000000000000ffffffffffffffffffffffff80837fffffffff00000001000000000000000000000000ffffffffffffffffffffffff038e08820992507fffffffff00000001000000000000000000000000ffffffffffffffffffffffff837fffffffff00000001000000000000000000000000ffffffffffffffffffffffff8b870908985060018e891c1660018e8a1c1660011b0190508061118657887fffffffff00000001000000000000000000000000ffffffffffffffffffffffff039850505050506114ad565b600181036111d5577f6b17d1f2e12c4247f8bce6e563a440f277037d812deb33a0f4a13945d898c29693507f4fe342e2fe1a7f9b8ee7eb4a7c0f9e162bce33576b315ececbb6406837bf51f592505b600281036111e4578f93508e92505b600381036111f3578593508492505b7fffffffff00000001000000000000000000000000ffffffffffffffffffffffff897fffffffff00000001000000000000000000000000ffffffffffffffffffffffff8c8609087fffffffff00000001000000000000000000000000ffffffffffffffffffffffff8d7fffffffff00000001000000000000000000000000ffffffffffffffffffffffff037fffffffff00000001000000000000000000000000ffffffffffffffffffffffff8e88090893507fffffffff00000001000000000000000000000000ffffffffffffffffffffffff84850991507fffffffff00000001000000000000000000000000ffffffffffffffffffffffff8483097fffffffff00000001000000000000000000000000ffffffffffffffffffffffff838e099c507fffffffff00000001000000000000000000000000ffffffffffffffffffffffff818d099b507fffffffff00000001000000000000000000000000ffffffffffffffffffffffff838f0994507fffffffff00000001000000000000000000000000ffffffffffffffffffffffff80867fffffffff00000001000000000000000000000000fffffffffffffffffffffffd097fffffffff00000001000000000000000000000000ffffffffffffffffffffffff837fffffffff00000001000000000000000000000000ffffffffffffffffffffffff037fffffffff00000001000000000000000000000000ffffffffffffffffffffffff868709080892507fffffffff00000001000000000000000000000000ffffffffffffffffffffffff80828d097fffffffff00000001000000000000000000000000ffffffffffffffffffffffff847fffffffff00000001000000000000000000000000ffffffffffffffffffffffff877fffffffff00000001000000000000000000000000ffffffffffffffffffffffff038a0809089a50829d505050505050505b600184039350610eaa565b86606084015260208352602080840152602060408401527fffffffff00000001000000000000000000000000fffffffffffffffffffffffd60808401527fffffffff00000001000000000000000000000000ffffffffffffffffffffffff60a084015260208360c08560006005600019f161153257600080fd5b7fffffffff00000001000000000000000000000000ffffffffffffffffffffffff835189099750505050505050505b949350505050565b60008151905060006a636f6e736f6c652e6c6f679050602083016000808483855afa5050505050565b6000806000806115a2888861160b565b156115b4578585935093505050611602565b6115be868661160b565b156115d0578585935093505050611602565b6115df88886001808a8a611618565b809450819550829a50839b50505050506115fb8888848461191f565b9350935050505b94509492505050565b6000808214905092915050565b600080600080600089036116385785856001809350935093509350611912565b887fffffffff00000001000000000000000000000000ffffffffffffffffffffffff0398507fffffffff00000001000000000000000000000000ffffffffffffffffffffffff897fffffffff00000001000000000000000000000000ffffffffffffffffffffffff8988090894507fffffffff00000001000000000000000000000000ffffffffffffffffffffffff8a7fffffffff00000001000000000000000000000000ffffffffffffffffffffffff037fffffffff00000001000000000000000000000000ffffffffffffffffffffffff8a89090895507fffffffff00000001000000000000000000000000ffffffffffffffffffffffff86870993507fffffffff00000001000000000000000000000000ffffffffffffffffffffffff86850992507fffffffff00000001000000000000000000000000ffffffffffffffffffffffff84890991507fffffffff00000001000000000000000000000000ffffffffffffffffffffffff83880990507fffffffff00000001000000000000000000000000ffffffffffffffffffffffff848b0997507fffffffff00000001000000000000000000000000ffffffffffffffffffffffff80897fffffffff00000001000000000000000000000000fffffffffffffffffffffffd097fffffffff00000001000000000000000000000000ffffffffffffffffffffffff857fffffffff00000001000000000000000000000000ffffffffffffffffffffffff037fffffffff00000001000000000000000000000000ffffffffffffffffffffffff898a09080893507fffffffff00000001000000000000000000000000ffffffffffffffffffffffff80848b097fffffffff00000001000000000000000000000000ffffffffffffffffffffffff877fffffffff00000001000000000000000000000000ffffffffffffffffffffffff887fffffffff00000001000000000000000000000000ffffffffffffffffffffffff038d08090892505b9650965096509692505050565b600080600061192d84611a0c565b90507fffffffff00000001000000000000000000000000ffffffffffffffffffffffff8061195e5761195d6120fe565b5b818709915060007fffffffff00000001000000000000000000000000ffffffffffffffffffffffff80611994576119936120fe565b5b82870990507fffffffff00000001000000000000000000000000ffffffffffffffffffffffff806119c8576119c76120fe565b5b81820991507fffffffff00000001000000000000000000000000ffffffffffffffffffffffff806119fc576119fb6120fe565b5b8289099350505094509492505050565b6000611a16611a9a565b60208152602080820152602060408201528260608201527fffffffff00000001000000000000000000000000fffffffffffffffffffffffd60808201527fffffffff00000001000000000000000000000000ffffffffffffffffffffffff60a082015260208160c08360006005600019f1611a9057600080fd5b8051915050919050565b6040518060c00160405280600690602082028036833780820191505090505090565b6000604051905090565b600080fd5b600080fd5b600080fd5b600080fd5b6000601f19601f8301169050919050565b7f4e487b7100000000000000000000000000000000000000000000000000000000600052604160045260246000fd5b611b2382611ada565b810181811067ffffffffffffffff82111715611b4257611b41611aeb565b5b80604052505050565b6000611b55611abc565b9050611b618282611b1a565b919050565b600067ffffffffffffffff821115611b8157611b80611aeb565b5b611b8a82611ada565b9050602081019050919050565b82818337600083830152505050565b6000611bb9611bb484611b66565b611b4b565b905082815260208101848484011115611bd557611bd4611ad5565b5b611be0848285611b97565b509392505050565b600082601f830112611bfd57611bfc611ad0565b5b8135611c0d848260208601611ba6565b91505092915050565b60007fff0000000000000000000000000000000000000000000000000000000000000082169050919050565b611c4b81611c16565b8114611c5657600080fd5b50565b600081359050611c6881611c42565b92915050565b6000819050919050565b611c8181611c6e565b8114611c8c57600080fd5b50565b600081359050611c9e81611c78565b92915050565b6000819050919050565b611cb781611ca4565b8114611cc257600080fd5b50565b600081359050611cd481611cae565b92915050565b600067ffffffffffffffff821115611cf557611cf4611aeb565b5b602082029050919050565b600080fd5b6000611d18611d1384611cda565b611b4b565b90508060208402830185811115611d3257611d31611d00565b5b835b81811015611d5b5780611d478882611cc5565b845260208401935050602081019050611d34565b5050509392505050565b600082601f830112611d7a57611d79611ad0565b5b6002611d87848285611d05565b91505092915050565b6000806000806000806000610120888a031215611db057611daf611ac6565b5b600088013567ffffffffffffffff811115611dce57611dcd611acb565b5b611dda8a828b01611be8565b9750506020611deb8a828b01611c59565b965050604088013567ffffffffffffffff811115611e0c57611e0b611acb565b5b611e188a828b01611be8565b9550506060611e298a828b01611c8f565b9450506080611e3a8a828b01611cc5565b93505060a0611e4b8a828b01611d65565b92505060e0611e5c8a828b01611d65565b91505092959891949750929550565b60008115159050919050565b611e8081611e6b565b82525050565b6000602082019050611e9b6000830184611e77565b92915050565b611eaa81611ca4565b82525050565b6000602082019050611ec56000830184611ea1565b92915050565b600080600060a08486031215611ee457611ee3611ac6565b5b6000611ef286828701611c8f565b9350506020611f0386828701611d65565b9250506060611f1486828701611d65565b9150509250925092565b7f4e487b7100000000000000000000000000000000000000000000000000000000600052603260045260246000fd5b6000819050919050565b611f68611f6382611c6e565b611f4d565b82525050565b6000611f7a8284611f57565b60208201915081905092915050565b600081519050919050565b600081905092915050565b60005b83811015611fbd578082015181840152602081019050611fa2565b60008484015250505050565b6000611fd482611f89565b611fde8185611f94565b9350611fee818560208601611f9f565b80840191505092915050565b60006120068284611fc9565b915081905092915050565b7f4e487b7100000000000000000000000000000000000000000000000000000000600052601160045260246000fd5b600061204b82611ca4565b915061205683611ca4565b925082820190508082111561206e5761206d612011565b5b92915050565b60008151905061208381611c78565b92915050565b60006020828403121561209f5761209e611ac6565b5b60006120ad84828501612074565b91505092915050565b60006120c182611ca4565b91507fffffffffffffffffffffffffffffffffffffffffffffffffffffffffffffffff82036120f3576120f2612011565b5b600182019050919050565b7f4e487b7100000000000000000000000000000000000000000000000000000000600052601260045260246000fd5b600061213882611ca4565b915061214383611ca4565b925082612153576121526120fe565b5b828204905092915050565b600061216982611ca4565b915061217483611ca4565b925082820261218281611ca4565b9150828204841483151761219957612198612011565b5b5092915050565b60006121ab82611ca4565b91506121b683611ca4565b92508282039050818111156121ce576121cd612011565b5b92915050565b600081519050919050565b600082825260208201905092915050565b60006121fb826121d4565b61220581856121df565b9350612215818560208601611f9f565b61221e81611ada565b840191505092915050565b6000604082019050818103600083015261224381856121f0565b90506122526020830184611e77565b9392505050565b6000604082019050818103600083015261227381856121f0565b90506122826020830184611ea1565b939250505056fe4142434445464748494a4b4c4d4e4f505152535455565758595a6162636465666768696a6b6c6d6e6f707172737475767778797a303132333435363738392d5fa264697066735822122096e4042cd477b39641e498ba8bbb18d3dc2b24e46bd371c78276649ad6871c1364736f6c63430008110033",
  "linkReferences": {},
  "deployedLinkReferences": {}
}