{
  "_format": "hh-sol-artifact-1",
  "contractName": "Webauthn",
  "sourceName": "contracts/Webauthn.sol",
  "abi": [
    {
      "inputs": [],
      "name": "InvalidAuthenticatorData",
      "type": "error"
    },
    {
      "inputs": [],
      "name": "InvalidClientData",
      "type": "error"
    },
    {
      "inputs": [],
      "name": "InvalidSignature",
      "type": "error"
    },
    {
      "inputs": [],
      "name": "counter",
      "outputs": [
        {
          "internalType": "uint256",
          "name": "",
          "type": "uint256"
        }
      ],
      "stateMutability": "view",
      "type": "function"
    },
    {
      "inputs": [
        {
          "internalType": "bytes32",
          "name": "hash",
          "type": "bytes32"
        },
        {
          "internalType": "uint256[2]",
          "name": "rs",
          "type": "uint256[2]"
        },
        {
          "internalType": "uint256[2]",
          "name": "Q",
          "type": "uint256[2]"
        }
      ],
      "name": "ecdsa_verif",
      "outputs": [
        {
          "internalType": "bool",
          "name": "",
          "type": "bool"
        }
      ],
      "stateMutability": "nonpayable",
      "type": "function"
    },
    {
      "inputs": [
        {
          "internalType": "bytes",
          "name": "authenticatorData",
          "type": "bytes"
        },
        {
          "internalType": "bytes1",
          "name": "authenticatorDataFlagMask",
          "type": "bytes1"
        },
        {
          "internalType": "bytes",
          "name": "clientData",
          "type": "bytes"
        },
        {
          "internalType": "bytes32",
          "name": "clientChallenge",
          "type": "bytes32"
        },
        {
          "internalType": "uint256",
          "name": "clientChallengeDataOffset",
          "type": "uint256"
        },
        {
          "internalType": "uint256[2]",
          "name": "rs",
          "type": "uint256[2]"
        },
        {
          "internalType": "uint256[2]",
          "name": "Q",
          "type": "uint256[2]"
        }
      ],
      "name": "validate",
      "outputs": [],
      "stateMutability": "nonpayable",
      "type": "function"
    }
  ],
  "bytecode": "0x608060405234801561001057600080fd5b506120d9806100206000396000f3fe608060405234801561001057600080fd5b50600436106100415760003560e01c806342b2a7b91461004657806361bc221a14610062578063efdfa74f14610080575b600080fd5b610060600480360381019061005b9190611ad5565b6100b0565b005b61006a610119565b6040516100779190611bc7565b60405180910390f35b61009a60048036038101906100959190611be2565b61011f565b6040516100a79190611c50565b60405180910390f35b6100c1898989898989898989610210565b6100f7576040517f8baa579f00000000000000000000000000000000000000000000000000000000815260040160405180910390fd5b60008081548092919061010990611c9a565b9190505550505050505050505050565b60005481565b60006101636040518060400160405280600581526020017f686173683d0000000000000000000000000000000000000000000000000000008152508560001c610246565b6101ba6040518060400160405280600481526020017f7273303d00000000000000000000000000000000000000000000000000000000815250846000600281106101b0576101af611ce2565b5b6020020135610246565b60006101c78585856102e2565b90506102086040518060400160405280600a81526020017f726573756c743d2025730000000000000000000000000000000000000000000081525082610501565b509392505050565b6000806102238b8b8b8b8b8b8b8b61059d565b905060006102328286866102e2565b905080925050509998505050505050505050565b6102de828260405160240161025c929190611da1565b6040516020818303038152906040527fb60e72cc000000000000000000000000000000000000000000000000000000007bffffffffffffffffffffffffffffffffffffffffffffffffffffffff19166020820180517bffffffffffffffffffffffffffffffffffffffffffffffffffffffff8381831617835250505050610855565b5050565b600080836000600281106102f9576102f8611ce2565b5b6020020135148061034257507fffffffff00000000ffffffffffffffffbce6faada7179e84f3b9cac2fc6325518360006002811061033a57610339611ce2565b5b602002013510155b80610365575060008360016002811061035e5761035d611ce2565b5b6020020135145b1561037357600090506104fa565b6103ad8260006002811061038a57610389611ce2565b5b6020020135836001600281106103a3576103a2611ce2565b5b602002013561087e565b6103ba57600090506104fa565b60006103dd846001600281106103d3576103d2611ce2565b5b6020020135610a72565b905060007fffffffff00000000ffffffffffffffffbce6faada7179e84f3b9cac2fc632551806104105761040f611dd1565b5b828760001c09905060007fffffffff00000000ffffffffffffffffbce6faada7179e84f3b9cac2fc6325518061044957610448611dd1565b5b838760006002811061045e5761045d611ce2565b5b602002013509905060006104a48660006002811061047f5761047e611ce2565b5b60200201358760016002811061049857610497611ce2565b5b60200201358585610b00565b90507fffffffff00000000ffffffffffffffffbce6faada7179e84f3b9cac2fc63255187357fffffffff00000000ffffffffffffffffbce6faada7179e84f3b9cac2fc6325510382089050600081149450505050505b9392505050565b6105998282604051602401610517929190611e00565b6040516020818303038152906040527fc3b55635000000000000000000000000000000000000000000000000000000007bffffffffffffffffffffffffffffffffffffffffffffffffffffffff19166020820180517bffffffffffffffffffffffffffffffffffffffffffffffffffffffff8381831617835250505050610855565b5050565b6000867effffffffffffffffffffffffffffffffffffffffffffffffffffffffffffff1916878a8a60208181106105d7576105d6611ce2565b5b9050013560f81c60f81b167effffffffffffffffffffffffffffffffffffffffffffffffffffffffffffff19161461063b576040517ffc93479200000000000000000000000000000000000000000000000000000000815260040160405180910390fd5b6000610665856040516020016106519190611e51565b60405160208183030381529060405261131d565b90506000815167ffffffffffffffff81111561068457610683611e6c565b5b6040519080825280601f01601f1916602001820160405280156106b65781602001600182028036833780820191505090505b50905080518589016020830137600081516020830120905080836040516020016106e09190611ee2565b604051602081830303815290604052805190602001201461072d576040517febab5d2900000000000000000000000000000000000000000000000000000000815260040160405180910390fd5b505050600060208a8a90506107429190611ef9565b67ffffffffffffffff81111561075b5761075a611e6c565b5b6040519080825280601f01601f19166020018201604052801561078d5781602001600182028036833780820191505090505b509050888a60208301376000600288886040516107ab929190611f61565b602060405180830381855afa1580156107c8573d6000803e3d6000fd5b5050506040513d601f19601f820116820180604052508101906107eb9190611f8f565b90508060208b018301526002826040516108059190611ee2565b602060405180830381855afa158015610822573d6000803e3d6000fd5b5050506040513d601f19601f820116820180604052508101906108459190611f8f565b9250505098975050505050505050565b60008151905060006a636f6e736f6c652e6c6f679050602083016000808483855afa5050505050565b600082600014806108ae57507fffffffff00000001000000000000000000000000ffffffffffffffffffffffff83145b806108b95750816000145b806108e357507fffffffff00000001000000000000000000000000ffffffffffffffffffffffff82145b156108f15760009050610a6c565b60007fffffffff00000001000000000000000000000000ffffffffffffffffffffffff8061092257610921611dd1565b5b838409905060007fffffffff00000001000000000000000000000000ffffffffffffffffffffffff8061095857610957611dd1565b5b7fffffffff00000001000000000000000000000000ffffffffffffffffffffffff8061098757610986611dd1565b5b7fffffffff00000001000000000000000000000000fffffffffffffffffffffffc87097fffffffff00000001000000000000000000000000ffffffffffffffffffffffff806109d9576109d8611dd1565b5b877fffffffff00000001000000000000000000000000ffffffffffffffffffffffff80610a0957610a08611dd1565b5b898a09090890507fffffffff00000001000000000000000000000000ffffffffffffffffffffffff80610a3f57610a3e611dd1565b5b7f5ac635d8aa3a93e7b3ebbd55769886bc651d06b0cc53b0f63bce3c3e27d2604b82089050808214925050505b92915050565b6000610a7c61195e565b60208152602080820152602060408201528260608201527fffffffff00000000ffffffffffffffffbce6faada7179e84f3b9cac2fc63254f60808201527fffffffff00000000ffffffffffffffffbce6faada7179e84f3b9cac2fc63255160a082015260208160c08360006005600019f1610af657600080fd5b8051915050919050565b600080600080600060ff9050610b1461195e565b60008060008a148015610b275750600089145b15610b3c576000975050505050505050611315565b610b887f6b17d1f2e12c4247f8bce6e563a440f277037d812deb33a0f4a13945d898c2967f4fe342e2fe1a7f9b8ee7eb4a7c0f9e162bce33576b315ececbb6406837bf51f58e8e611456565b80925081935050505b60006001858b901c166002610ba69190611fbc565b6001868d901c16610bb79190611ef9565b03610bd057600184610bc99190611ffe565b9350610b91565b60018a851c1660018a861c1660011b01965060018703610c31577f6b17d1f2e12c4247f8bce6e563a440f277037d812deb33a0f4a13945d898c29697507f4fe342e2fe1a7f9b8ee7eb4a7c0f9e162bce33576b315ececbb6406837bf51f594505b60028703610c40578b97508a94505b60038703610c4f578197508094505b60018403935060019650600195505b837fffffffffffffffffffffffffffffffffffffffffffffffffffffffffffffffff111561126c577fffffffff00000001000000000000000000000000ffffffffffffffffffffffff856002097fffffffff00000001000000000000000000000000ffffffffffffffffffffffff8182097fffffffff00000001000000000000000000000000ffffffffffffffffffffffff818b097fffffffff00000001000000000000000000000000ffffffffffffffffffffffff82840992507fffffffff00000001000000000000000000000000ffffffffffffffffffffffff807fffffffff00000001000000000000000000000000ffffffffffffffffffffffff8c8e087fffffffff00000001000000000000000000000000ffffffffffffffffffffffff8d7fffffffff00000001000000000000000000000000ffffffffffffffffffffffff038f08096003097fffffffff00000001000000000000000000000000ffffffffffffffffffffffff8a850999507fffffffff00000001000000000000000000000000ffffffffffffffffffffffff8b84099a507fffffffff00000001000000000000000000000000ffffffffffffffffffffffff80837fffffffff00000001000000000000000000000000fffffffffffffffffffffffd097fffffffff00000001000000000000000000000000ffffffffffffffffffffffff838409089b507fffffffff00000001000000000000000000000000ffffffffffffffffffffffff80837fffffffff00000001000000000000000000000000ffffffffffffffffffffffff038e08820992507fffffffff00000001000000000000000000000000ffffffffffffffffffffffff837fffffffff00000001000000000000000000000000ffffffffffffffffffffffff8b870908985060018e891c1660018e8a1c1660011b01905080610f3a57887fffffffff00000001000000000000000000000000ffffffffffffffffffffffff03985050505050611261565b60018103610f89577f6b17d1f2e12c4247f8bce6e563a440f277037d812deb33a0f4a13945d898c29693507f4fe342e2fe1a7f9b8ee7eb4a7c0f9e162bce33576b315ececbb6406837bf51f592505b60028103610f98578f93508e92505b60038103610fa7578593508492505b7fffffffff00000001000000000000000000000000ffffffffffffffffffffffff897fffffffff00000001000000000000000000000000ffffffffffffffffffffffff8c8609087fffffffff00000001000000000000000000000000ffffffffffffffffffffffff8d7fffffffff00000001000000000000000000000000ffffffffffffffffffffffff037fffffffff00000001000000000000000000000000ffffffffffffffffffffffff8e88090893507fffffffff00000001000000000000000000000000ffffffffffffffffffffffff84850991507fffffffff00000001000000000000000000000000ffffffffffffffffffffffff8483097fffffffff00000001000000000000000000000000ffffffffffffffffffffffff838e099c507fffffffff00000001000000000000000000000000ffffffffffffffffffffffff818d099b507fffffffff00000001000000000000000000000000ffffffffffffffffffffffff838f0994507fffffffff00000001000000000000000000000000ffffffffffffffffffffffff80867fffffffff00000001000000000000000000000000fffffffffffffffffffffffd097fffffffff00000001000000000000000000000000ffffffffffffffffffffffff837fffffffff00000001000000000000000000000000ffffffffffffffffffffffff037fffffffff00000001000000000000000000000000ffffffffffffffffffffffff868709080892507fffffffff00000001000000000000000000000000ffffffffffffffffffffffff80828d097fffffffff00000001000000000000000000000000ffffffffffffffffffffffff847fffffffff00000001000000000000000000000000ffffffffffffffffffffffff877fffffffff00000001000000000000000000000000ffffffffffffffffffffffff038a0809089a50829d505050505050505b600184039350610c5e565b86606084015260208352602080840152602060408401527fffffffff00000001000000000000000000000000fffffffffffffffffffffffd60808401527fffffffff00000001000000000000000000000000ffffffffffffffffffffffff60a084015260208360c08560006005600019f16112e657600080fd5b7fffffffff00000001000000000000000000000000ffffffffffffffffffffffff835189099750505050505050505b949350505050565b6060600082510361133f57604051806020016040528060008152509050611451565b6000604051806060016040528060408152602001612064604091399050600060016003600286516113709190611ef9565b61137a9190612032565b60046113869190611fbc565b6113909190611ffe565b67ffffffffffffffff8111156113a9576113a8611e6c565b5b6040519080825280601f01601f1916602001820160405280156113db5781602001600182028036833780820191505090505b509050600182016020820185865187015b80821015611447576003820191508151603f8160121c168501518453600184019350603f81600c1c168501518453600184019350603f8160061c168501518453600184019350603f81168501518453600184019350506113ec565b5050505080925050505b919050565b60008060008061146688886114cf565b156114785785859350935050506114c6565b61148286866114cf565b156114945785859350935050506114c6565b6114a388886001808a8a6114dc565b809450819550829a50839b50505050506114bf888884846117e3565b9350935050505b94509492505050565b6000808214905092915050565b600080600080600089036114fc57858560018093509350935093506117d6565b887fffffffff00000001000000000000000000000000ffffffffffffffffffffffff0398507fffffffff00000001000000000000000000000000ffffffffffffffffffffffff897fffffffff00000001000000000000000000000000ffffffffffffffffffffffff8988090894507fffffffff00000001000000000000000000000000ffffffffffffffffffffffff8a7fffffffff00000001000000000000000000000000ffffffffffffffffffffffff037fffffffff00000001000000000000000000000000ffffffffffffffffffffffff8a89090895507fffffffff00000001000000000000000000000000ffffffffffffffffffffffff86870993507fffffffff00000001000000000000000000000000ffffffffffffffffffffffff86850992507fffffffff00000001000000000000000000000000ffffffffffffffffffffffff84890991507fffffffff00000001000000000000000000000000ffffffffffffffffffffffff83880990507fffffffff00000001000000000000000000000000ffffffffffffffffffffffff848b0997507fffffffff00000001000000000000000000000000ffffffffffffffffffffffff80897fffffffff00000001000000000000000000000000fffffffffffffffffffffffd097fffffffff00000001000000000000000000000000ffffffffffffffffffffffff857fffffffff00000001000000000000000000000000ffffffffffffffffffffffff037fffffffff00000001000000000000000000000000ffffffffffffffffffffffff898a09080893507fffffffff00000001000000000000000000000000ffffffffffffffffffffffff80848b097fffffffff00000001000000000000000000000000ffffffffffffffffffffffff877fffffffff00000001000000000000000000000000ffffffffffffffffffffffff887fffffffff00000001000000000000000000000000ffffffffffffffffffffffff038d08090892505b9650965096509692505050565b60008060006117f1846118d0565b90507fffffffff00000001000000000000000000000000ffffffffffffffffffffffff8061182257611821611dd1565b5b818709915060007fffffffff00000001000000000000000000000000ffffffffffffffffffffffff8061185857611857611dd1565b5b82870990507fffffffff00000001000000000000000000000000ffffffffffffffffffffffff8061188c5761188b611dd1565b5b81820991507fffffffff00000001000000000000000000000000ffffffffffffffffffffffff806118c0576118bf611dd1565b5b8289099350505094509492505050565b60006118da61195e565b60208152602080820152602060408201528260608201527fffffffff00000001000000000000000000000000fffffffffffffffffffffffd60808201527fffffffff00000001000000000000000000000000ffffffffffffffffffffffff60a082015260208160c08360006005600019f161195457600080fd5b8051915050919050565b6040518060c00160405280600690602082028036833780820191505090505090565b600080fd5b600080fd5b600080fd5b600080fd5b600080fd5b60008083601f8401126119af576119ae61198a565b5b8235905067ffffffffffffffff8111156119cc576119cb61198f565b5b6020830191508360018202830111156119e8576119e7611994565b5b9250929050565b60007fff0000000000000000000000000000000000000000000000000000000000000082169050919050565b611a24816119ef565b8114611a2f57600080fd5b50565b600081359050611a4181611a1b565b92915050565b6000819050919050565b611a5a81611a47565b8114611a6557600080fd5b50565b600081359050611a7781611a51565b92915050565b6000819050919050565b611a9081611a7d565b8114611a9b57600080fd5b50565b600081359050611aad81611a87565b92915050565b600081905082602060020282011115611acf57611ace611994565b5b92915050565b60008060008060008060008060006101208a8c031215611af857611af7611980565b5b60008a013567ffffffffffffffff811115611b1657611b15611985565b5b611b228c828d01611999565b99509950506020611b358c828d01611a32565b97505060408a013567ffffffffffffffff811115611b5657611b55611985565b5b611b628c828d01611999565b96509650506060611b758c828d01611a68565b9450506080611b868c828d01611a9e565b93505060a0611b978c828d01611ab3565b92505060e0611ba88c828d01611ab3565b9150509295985092959850929598565b611bc181611a7d565b82525050565b6000602082019050611bdc6000830184611bb8565b92915050565b600080600060a08486031215611bfb57611bfa611980565b5b6000611c0986828701611a68565b9350506020611c1a86828701611ab3565b9250506060611c2b86828701611ab3565b9150509250925092565b60008115159050919050565b611c4a81611c35565b82525050565b6000602082019050611c656000830184611c41565b92915050565b7f4e487b7100000000000000000000000000000000000000000000000000000000600052601160045260246000fd5b6000611ca582611a7d565b91507fffffffffffffffffffffffffffffffffffffffffffffffffffffffffffffffff8203611cd757611cd6611c6b565b5b600182019050919050565b7f4e487b7100000000000000000000000000000000000000000000000000000000600052603260045260246000fd5b600081519050919050565b600082825260208201905092915050565b60005b83811015611d4b578082015181840152602081019050611d30565b60008484015250505050565b6000601f19601f8301169050919050565b6000611d7382611d11565b611d7d8185611d1c565b9350611d8d818560208601611d2d565b611d9681611d57565b840191505092915050565b60006040820190508181036000830152611dbb8185611d68565b9050611dca6020830184611bb8565b9392505050565b7f4e487b7100000000000000000000000000000000000000000000000000000000600052601260045260246000fd5b60006040820190508181036000830152611e1a8185611d68565b9050611e296020830184611c41565b9392505050565b6000819050919050565b611e4b611e4682611a47565b611e30565b82525050565b6000611e5d8284611e3a565b60208201915081905092915050565b7f4e487b7100000000000000000000000000000000000000000000000000000000600052604160045260246000fd5b600081519050919050565b600081905092915050565b6000611ebc82611e9b565b611ec68185611ea6565b9350611ed6818560208601611d2d565b80840191505092915050565b6000611eee8284611eb1565b915081905092915050565b6000611f0482611a7d565b9150611f0f83611a7d565b9250828201905080821115611f2757611f26611c6b565b5b92915050565b82818337600083830152505050565b6000611f488385611ea6565b9350611f55838584611f2d565b82840190509392505050565b6000611f6e828486611f3c565b91508190509392505050565b600081519050611f8981611a51565b92915050565b600060208284031215611fa557611fa4611980565b5b6000611fb384828501611f7a565b91505092915050565b6000611fc782611a7d565b9150611fd283611a7d565b9250828202611fe081611a7d565b91508282048414831517611ff757611ff6611c6b565b5b5092915050565b600061200982611a7d565b915061201483611a7d565b925082820390508181111561202c5761202b611c6b565b5b92915050565b600061203d82611a7d565b915061204883611a7d565b92508261205857612057611dd1565b5b82820490509291505056fe4142434445464748494a4b4c4d4e4f505152535455565758595a6162636465666768696a6b6c6d6e6f707172737475767778797a303132333435363738392d5fa2646970667358221220c9d091ba07aba4a61b8077ebda392f349e10170be5c6a05b132ecc4b66d0219564736f6c63430008110033",
  "linkReferences": {},
  "deployedLinkReferences": {}
}