{
  "_format": "hh-sol-artifact-1",
  "contractName": "Webauthn_prec3",
  "sourceName": "contracts/Webauthn_prec.sol",
  "abi": [
    {
      "inputs": [
        {
          "internalType": "address",
          "name": "Precompute_contract",
          "type": "address"
        }
      ],
      "stateMutability": "nonpayable",
      "type": "constructor"
    },
    {
      "inputs": [],
      "name": "InvalidAuthenticatorData",
      "type": "error"
    },
    {
      "inputs": [],
      "name": "InvalidClientData",
      "type": "error"
    },
    {
      "inputs": [],
      "name": "InvalidSignature",
      "type": "error"
    },
    {
      "inputs": [],
      "name": "counter",
      "outputs": [
        {
          "internalType": "uint256",
          "name": "",
          "type": "uint256"
        }
      ],
      "stateMutability": "view",
      "type": "function"
    },
    {
      "inputs": [
        {
          "internalType": "bytes32",
          "name": "hash",
          "type": "bytes32"
        },
        {
          "internalType": "uint256[2]",
          "name": "rs",
          "type": "uint256[2]"
        }
      ],
      "name": "ecdsa_verif_prec",
      "outputs": [
        {
          "internalType": "bool",
          "name": "",
          "type": "bool"
        }
      ],
      "stateMutability": "nonpayable",
      "type": "function"
    },
    {
      "inputs": [
        {
          "internalType": "bytes",
          "name": "authenticatorData",
          "type": "bytes"
        },
        {
          "internalType": "bytes1",
          "name": "authenticatorDataFlagMask",
          "type": "bytes1"
        },
        {
          "internalType": "bytes",
          "name": "clientData",
          "type": "bytes"
        },
        {
          "internalType": "bytes32",
          "name": "clientChallenge",
          "type": "bytes32"
        },
        {
          "internalType": "uint256",
          "name": "clientChallengeDataOffset",
          "type": "uint256"
        },
        {
          "internalType": "uint256[2]",
          "name": "rs",
          "type": "uint256[2]"
        }
      ],
      "name": "validate_prec",
      "outputs": [],
      "stateMutability": "nonpayable",
      "type": "function"
    }
  ],
  "bytecode": "0x60806040523480156200001157600080fd5b5060405162001bca38038062001bca8339818101604052810190620000379190620000e8565b806000806101000a81548173ffffffffffffffffffffffffffffffffffffffff021916908373ffffffffffffffffffffffffffffffffffffffff160217905550506200011a565b600080fd5b600073ffffffffffffffffffffffffffffffffffffffff82169050919050565b6000620000b08262000083565b9050919050565b620000c281620000a3565b8114620000ce57600080fd5b50565b600081519050620000e281620000b7565b92915050565b6000602082840312156200010157620001006200007e565b5b60006200011184828501620000d1565b91505092915050565b611aa0806200012a6000396000f3fe608060405234801561001057600080fd5b50600436106100415760003560e01c8063011f2d141461004657806361bc221a146100765780639f36b8fd14610094575b600080fd5b610060600480360381019061005b9190611405565b6100b0565b60405161006d9190611460565b60405180910390f35b61007e6100e7565b60405161008b9190611494565b60405180910390f35b6100ae60048036038101906100a99190611593565b6100ed565b005b6000806100de848460008054906101000a900473ffffffffffffffffffffffffffffffffffffffff16610176565b90505092915050565b60015481565b61011e888888888888888860008054906101000a900473ffffffffffffffffffffffffffffffffffffffff16610311565b610154576040517f8baa579f00000000000000000000000000000000000000000000000000000000815260040160405180910390fd5b6001600081548092919061016790611691565b91905055505050505050505050565b6000808360006002811061018d5761018c6116d9565b5b602002013514806101d657507fffffffff00000000ffffffffffffffffbce6faada7179e84f3b9cac2fc632551836000600281106101ce576101cd6116d9565b5b602002013510155b806101f957506000836001600281106101f2576101f16116d9565b5b6020020135145b15610207576000905061030a565b600061022a846001600281106102205761021f6116d9565b5b6020020135610389565b905060006102b67fffffffff00000000ffffffffffffffffbce6faada7179e84f3b9cac2fc632551806102605761025f611708565b5b838860001c097fffffffff00000000ffffffffffffffffbce6faada7179e84f3b9cac2fc6325518061029557610294611708565b5b84886000600281106102aa576102a96116d9565b5b60200201350986610417565b90507fffffffff00000000ffffffffffffffffbce6faada7179e84f3b9cac2fc63255185357fffffffff00000000ffffffffffffffffbce6faada7179e84f3b9cac2fc632551038208905060008114925050505b9392505050565b6000806103248b8b8b8b8b8b8b8b610ec6565b90506103686040518060400160405280600e81526020017f696e70757420746f20707265633a0000000000000000000000000000000000008152508260001c61117e565b6000610375828686610176565b905080925050509998505050505050505050565b600061039361137c565b60208152602080820152602060408201528260608201527fffffffff00000000ffffffffffffffffbce6faada7179e84f3b9cac2fc63254f60808201527fffffffff00000000ffffffffffffffffbce6faada7179e84f3b9cac2fc63255160a082015260208160c08360006005600019f161040d57600080fd5b8051915050919050565b60008061042261137c565b61010091505b60008160006006811061043e5761043d6116d9565b5b6020020151036104d957600182039150600160c0830387901c1660016080840388901c1660020260016040850389901c166004026001858a901c16600802600160c087038a901c166010026001608088038b901c166020026001604089038c901c166040026001898d901c1660800201010101010101604002816000600681106104cb576104ca6116d9565b5b602002018181525050610428565b6040815182863c805192506020810151600180935060fe5b60bf811115610e16577fffffffff00000001000000000000000000000000ffffffffffffffffffffffff836002097fffffffff00000001000000000000000000000000ffffffffffffffffffffffff8182097fffffffff00000001000000000000000000000000ffffffffffffffffffffffff8189097fffffffff00000001000000000000000000000000ffffffffffffffffffffffff8284097fffffffff00000001000000000000000000000000ffffffffffffffffffffffff807fffffffff00000001000000000000000000000000ffffffffffffffffffffffff8b8d087fffffffff00000001000000000000000000000000ffffffffffffffffffffffff8c7fffffffff00000001000000000000000000000000ffffffffffffffffffffffff038e08096003097fffffffff00000001000000000000000000000000ffffffffffffffffffffffff87830996507fffffffff00000001000000000000000000000000ffffffffffffffffffffffff8a850999507fffffffff00000001000000000000000000000000ffffffffffffffffffffffff80847fffffffff00000001000000000000000000000000fffffffffffffffffffffffd097fffffffff00000001000000000000000000000000ffffffffffffffffffffffff838409089a507fffffffff00000001000000000000000000000000ffffffffffffffffffffffff80847fffffffff00000001000000000000000000000000ffffffffffffffffffffffff038d0882097fffffffff00000001000000000000000000000000ffffffffffffffffffffffff817fffffffff00000001000000000000000000000000ffffffffffffffffffffffff8b8609089850505050505050600189821c1660091b600189831c16600d1b016040820360018b821c1660081b60018b831c16600c1b0182016040820360018d821c1660071b60018d831c16600b1b01820160408203955060018e871c1660061b60018e881c16600a1b0181018061080057887fffffffff00000001000000000000000000000000ffffffffffffffffffffffff039850505050505050610e0b565b6040818b8f3c5050505050507fffffffff00000001000000000000000000000000ffffffffffffffffffffffff837fffffffff00000001000000000000000000000000ffffffffffffffffffffffff84602088015109087fffffffff00000001000000000000000000000000ffffffffffffffffffffffff877fffffffff00000001000000000000000000000000ffffffffffffffffffffffff037fffffffff00000001000000000000000000000000ffffffffffffffffffffffff888851090860008203610c0b5760008103610c0a577fffffffff00000001000000000000000000000000ffffffffffffffffffffffff856002097fffffffff00000001000000000000000000000000ffffffffffffffffffffffff81820991507fffffffff00000001000000000000000000000000ffffffffffffffffffffffff828a097fffffffff00000001000000000000000000000000ffffffffffffffffffffffff8383097fffffffff00000001000000000000000000000000ffffffffffffffffffffffff8a8c0894507fffffffff00000001000000000000000000000000ffffffffffffffffffffffff8a7fffffffff00000001000000000000000000000000ffffffffffffffffffffffff038c0890507fffffffff00000001000000000000000000000000ffffffffffffffffffffffff81860994507fffffffff00000001000000000000000000000000ffffffffffffffffffffffff8a8c0893507fffffffff00000001000000000000000000000000ffffffffffffffffffffffff8a7fffffffff00000001000000000000000000000000ffffffffffffffffffffffff038c0892507fffffffff00000001000000000000000000000000ffffffffffffffffffffffff84840993507fffffffff00000001000000000000000000000000ffffffffffffffffffffffff846003097fffffffff00000001000000000000000000000000ffffffffffffffffffffffff88850997507fffffffff00000001000000000000000000000000ffffffffffffffffffffffff8b86099a507fffffffff00000001000000000000000000000000ffffffffffffffffffffffff80847fffffffff00000001000000000000000000000000fffffffffffffffffffffffd097fffffffff00000001000000000000000000000000ffffffffffffffffffffffff838409089b507fffffffff00000001000000000000000000000000ffffffffffffffffffffffff808d7fffffffff00000001000000000000000000000000ffffffffffffffffffffffff038508820994507fffffffff00000001000000000000000000000000ffffffffffffffffffffffff808a86097fffffffff00000001000000000000000000000000ffffffffffffffffffffffff0386089850505050505050610e0b565b5b7fffffffff00000001000000000000000000000000ffffffffffffffffffffffff8182097fffffffff00000001000000000000000000000000ffffffffffffffffffffffff8282097fffffffff00000001000000000000000000000000ffffffffffffffffffffffff828a0998507fffffffff00000001000000000000000000000000ffffffffffffffffffffffff81870995507fffffffff00000001000000000000000000000000ffffffffffffffffffffffff828b097fffffffff00000001000000000000000000000000ffffffffffffffffffffffff80827fffffffff00000001000000000000000000000000fffffffffffffffffffffffd097fffffffff00000001000000000000000000000000ffffffffffffffffffffffff847fffffffff00000001000000000000000000000000ffffffffffffffffffffffff037fffffffff00000001000000000000000000000000ffffffffffffffffffffffff898a0908089a507fffffffff00000001000000000000000000000000ffffffffffffffffffffffff80838a097fffffffff00000001000000000000000000000000ffffffffffffffffffffffff877fffffffff00000001000000000000000000000000ffffffffffffffffffffffff8f7fffffffff00000001000000000000000000000000ffffffffffffffffffffffff0386080908975050505050505b60bf810190506104f1565b5083606084015260208352602080840152602060408401527fffffffff00000001000000000000000000000000fffffffffffffffffffffffd60808401527fffffffff00000001000000000000000000000000ffffffffffffffffffffffff60a084015260208360c08560006005600019f1610e9157600080fd5b825193507fffffffff00000001000000000000000000000000ffffffffffffffffffffffff8486099450505050509392505050565b6000867effffffffffffffffffffffffffffffffffffffffffffffffffffffffffffff1916878a8a6020818110610f0057610eff6116d9565b5b9050013560f81c60f81b167effffffffffffffffffffffffffffffffffffffffffffffffffffffffffffff191614610f64576040517ffc93479200000000000000000000000000000000000000000000000000000000815260040160405180910390fd5b6000610f8e85604051602001610f7a9190611758565b60405160208183030381529060405261121a565b90506000815167ffffffffffffffff811115610fad57610fac611773565b5b6040519080825280601f01601f191660200182016040528015610fdf5781602001600182028036833780820191505090505b50905080518589016020830137600081516020830120905080836040516020016110099190611813565b6040516020818303038152906040528051906020012014611056576040517febab5d2900000000000000000000000000000000000000000000000000000000815260040160405180910390fd5b505050600060208a8a905061106b919061182a565b67ffffffffffffffff81111561108457611083611773565b5b6040519080825280601f01601f1916602001820160405280156110b65781602001600182028036833780820191505090505b509050888a60208301376000600288886040516110d4929190611892565b602060405180830381855afa1580156110f1573d6000803e3d6000fd5b5050506040513d601f19601f8201168201806040525081019061111491906118c0565b90508060208b0183015260028260405161112e9190611813565b602060405180830381855afa15801561114b573d6000803e3d6000fd5b5050506040513d601f19601f8201168201806040525081019061116e91906118c0565b9250505098975050505050505050565b6112168282604051602401611194929190611953565b6040516020818303038152906040527fb60e72cc000000000000000000000000000000000000000000000000000000007bffffffffffffffffffffffffffffffffffffffffffffffffffffffff19166020820180517bffffffffffffffffffffffffffffffffffffffffffffffffffffffff8381831617835250505050611353565b5050565b6060600082510361123c5760405180602001604052806000815250905061134e565b6000604051806060016040528060408152602001611a2b6040913990506000600160036002865161126d919061182a565b6112779190611983565b600461128391906119b4565b61128d91906119f6565b67ffffffffffffffff8111156112a6576112a5611773565b5b6040519080825280601f01601f1916602001820160405280156112d85781602001600182028036833780820191505090505b509050600182016020820185865187015b80821015611344576003820191508151603f8160121c168501518453600184019350603f81600c1c168501518453600184019350603f8160061c168501518453600184019350603f81168501518453600184019350506112e9565b5050505080925050505b919050565b60008151905060006a636f6e736f6c652e6c6f679050602083016000808483855afa5050505050565b6040518060c00160405280600690602082028036833780820191505090505090565b600080fd5b600080fd5b6000819050919050565b6113bb816113a8565b81146113c657600080fd5b50565b6000813590506113d8816113b2565b92915050565b600080fd5b6000819050826020600202820111156113ff576113fe6113de565b5b92915050565b6000806060838503121561141c5761141b61139e565b5b600061142a858286016113c9565b925050602061143b858286016113e3565b9150509250929050565b60008115159050919050565b61145a81611445565b82525050565b60006020820190506114756000830184611451565b92915050565b6000819050919050565b61148e8161147b565b82525050565b60006020820190506114a96000830184611485565b92915050565b600080fd5b600080fd5b60008083601f8401126114cf576114ce6114af565b5b8235905067ffffffffffffffff8111156114ec576114eb6114b4565b5b602083019150836001820283011115611508576115076113de565b5b9250929050565b60007fff0000000000000000000000000000000000000000000000000000000000000082169050919050565b6115448161150f565b811461154f57600080fd5b50565b6000813590506115618161153b565b92915050565b6115708161147b565b811461157b57600080fd5b50565b60008135905061158d81611567565b92915050565b60008060008060008060008060e0898b0312156115b3576115b261139e565b5b600089013567ffffffffffffffff8111156115d1576115d06113a3565b5b6115dd8b828c016114b9565b985098505060206115f08b828c01611552565b965050604089013567ffffffffffffffff811115611611576116106113a3565b5b61161d8b828c016114b9565b955095505060606116308b828c016113c9565b93505060806116418b828c0161157e565b92505060a06116528b828c016113e3565b9150509295985092959890939650565b7f4e487b7100000000000000000000000000000000000000000000000000000000600052601160045260246000fd5b600061169c8261147b565b91507fffffffffffffffffffffffffffffffffffffffffffffffffffffffffffffffff82036116ce576116cd611662565b5b600182019050919050565b7f4e487b7100000000000000000000000000000000000000000000000000000000600052603260045260246000fd5b7f4e487b7100000000000000000000000000000000000000000000000000000000600052601260045260246000fd5b6000819050919050565b61175261174d826113a8565b611737565b82525050565b60006117648284611741565b60208201915081905092915050565b7f4e487b7100000000000000000000000000000000000000000000000000000000600052604160045260246000fd5b600081519050919050565b600081905092915050565b60005b838110156117d65780820151818401526020810190506117bb565b60008484015250505050565b60006117ed826117a2565b6117f781856117ad565b93506118078185602086016117b8565b80840191505092915050565b600061181f82846117e2565b915081905092915050565b60006118358261147b565b91506118408361147b565b925082820190508082111561185857611857611662565b5b92915050565b82818337600083830152505050565b600061187983856117ad565b935061188683858461185e565b82840190509392505050565b600061189f82848661186d565b91508190509392505050565b6000815190506118ba816113b2565b92915050565b6000602082840312156118d6576118d561139e565b5b60006118e4848285016118ab565b91505092915050565b600081519050919050565b600082825260208201905092915050565b6000601f19601f8301169050919050565b6000611925826118ed565b61192f81856118f8565b935061193f8185602086016117b8565b61194881611909565b840191505092915050565b6000604082019050818103600083015261196d818561191a565b905061197c6020830184611485565b9392505050565b600061198e8261147b565b91506119998361147b565b9250826119a9576119a8611708565b5b828204905092915050565b60006119bf8261147b565b91506119ca8361147b565b92508282026119d88161147b565b915082820484148315176119ef576119ee611662565b5b5092915050565b6000611a018261147b565b9150611a0c8361147b565b9250828203905081811115611a2457611a23611662565b5b9291505056fe4142434445464748494a4b4c4d4e4f505152535455565758595a6162636465666768696a6b6c6d6e6f707172737475767778797a303132333435363738392d5fa26469706673582212208795759fd771a35240f3e76d4b816e072fb9eb469bdc5826e85c4d4da88a36aa64736f6c63430008110033",
  "linkReferences": {},
  "deployedLinkReferences": {}
}