{
  "_format": "hh-sol-artifact-1",
  "contractName": "Webauthn_prec",
  "sourceName": "contracts/Webauthn_prec.sol",
  "abi": [
    {
      "inputs": [
        {
          "internalType": "uint256[2]",
          "name": "Q",
          "type": "uint256[2]"
        }
      ],
      "stateMutability": "nonpayable",
      "type": "constructor"
    },
    {
      "inputs": [],
      "name": "InvalidAuthenticatorData",
      "type": "error"
    },
    {
      "inputs": [],
      "name": "InvalidClientData",
      "type": "error"
    },
    {
      "inputs": [],
      "name": "InvalidSignature",
      "type": "error"
    },
    {
      "inputs": [
        {
          "internalType": "uint256",
          "name": "",
          "type": "uint256"
        },
        {
          "internalType": "uint256",
          "name": "",
          "type": "uint256"
        }
      ],
      "name": "Shamir8",
      "outputs": [
        {
          "internalType": "uint256",
          "name": "",
          "type": "uint256"
        }
      ],
      "stateMutability": "view",
      "type": "function"
    },
    {
      "inputs": [
        {
          "internalType": "bytes",
          "name": "authenticatorData",
          "type": "bytes"
        },
        {
          "internalType": "bytes1",
          "name": "authenticatorDataFlagMask",
          "type": "bytes1"
        },
        {
          "internalType": "bytes",
          "name": "clientData",
          "type": "bytes"
        },
        {
          "internalType": "bytes32",
          "name": "clientChallenge",
          "type": "bytes32"
        },
        {
          "internalType": "uint256",
          "name": "clientChallengeDataOffset",
          "type": "uint256"
        },
        {
          "internalType": "uint256[2]",
          "name": "rs",
          "type": "uint256[2]"
        },
        {
          "internalType": "uint256[2][256]",
          "name": "Shamir8",
          "type": "uint256[2][256]"
        }
      ],
      "name": "checkSignature_prec",
      "outputs": [
        {
          "internalType": "bool",
          "name": "",
          "type": "bool"
        }
      ],
      "stateMutability": "nonpayable",
      "type": "function"
    },
    {
      "inputs": [],
      "name": "counter",
      "outputs": [
        {
          "internalType": "uint256",
          "name": "",
          "type": "uint256"
        }
      ],
      "stateMutability": "view",
      "type": "function"
    },
    {
      "inputs": [
        {
          "internalType": "uint256[2]",
          "name": "Q",
          "type": "uint256[2]"
        }
      ],
      "name": "deploy_part2",
      "outputs": [
        {
          "internalType": "uint256[2][256]",
          "name": "res",
          "type": "uint256[2][256]"
        }
      ],
      "stateMutability": "nonpayable",
      "type": "function"
    },
    {
      "inputs": [
        {
          "internalType": "bytes",
          "name": "authenticatorData",
          "type": "bytes"
        },
        {
          "internalType": "bytes1",
          "name": "authenticatorDataFlagMask",
          "type": "bytes1"
        },
        {
          "internalType": "bytes",
          "name": "clientData",
          "type": "bytes"
        },
        {
          "internalType": "bytes32",
          "name": "clientChallenge",
          "type": "bytes32"
        },
        {
          "internalType": "uint256",
          "name": "clientChallengeDataOffset",
          "type": "uint256"
        },
        {
          "internalType": "uint256[2]",
          "name": "rs",
          "type": "uint256[2]"
        }
      ],
      "name": "validate_prec",
      "outputs": [],
      "stateMutability": "nonpayable",
      "type": "function"
    }
  ],
  "bytecode": "0x60806040523480156200001157600080fd5b5060405162005bb838038062005bb8833981810160405281019062000037919062001ac5565b620000ba6040518060400160405280601a81526020017f507265636f6d7075746520666f72205075626c6963206b65793a0000000000008152508260006002811062000088576200008762001af7565b5b602002015183600160028110620000a457620000a362001af7565b5b60200201516200013660201b620006031760201c565b620000d081620001df60201b620006a21760201c565b600190610100620000e39291906200177e565b506200012f6040518060400160405280601681526020017f507265636f6d707574652070617274203120646f6e650000000000000000000081525062000aac60201b62000e641760201c565b5062001d49565b620001da838383604051602401620001519392919062001bc0565b6040516020818303038152906040527fca47c4eb000000000000000000000000000000000000000000000000000000007bffffffffffffffffffffffffffffffffffffffffffffffffffffffff19166020820180517bffffffffffffffffffffffffffffffffffffffffffffffffffffffff838183161783525050505062000b4f60201b60201c565b505050565b620001e9620017d7565b6000620001f562001809565b7f6b17d1f2e12c4247f8bce6e563a440f277037d812deb33a0f4a13945d898c296816000600881106200022d576200022c62001af7565b5b602002015160006002811062000248576200024762001af7565b5b6020020181815250507f4fe342e2fe1a7f9b8ee7eb4a7c0f9e162bce33576b315ececbb6406837bf51f58160006008811062000289576200028862001af7565b5b6020020151600160028110620002a457620002a362001af7565b5b60200201818152505083600060028110620002c457620002c362001af7565b5b602002015181600460088110620002e057620002df62001af7565b5b6020020151600060028110620002fb57620002fa62001af7565b5b602002018181525050836001600281106200031b576200031a62001af7565b5b60200201518160046008811062000337576200033662001af7565b5b602002015160016002811062000352576200035162001af7565b5b6020020181815250506000600190505b6004811015620007f257620004048260018362000380919062001c33565b6008811062000394576200039362001af7565b5b6020020151600060028110620003af57620003ae62001af7565b5b602002015183600184620003c4919062001c33565b60088110620003d857620003d762001af7565b5b6020020151600160028110620003f357620003f262001af7565b5b602002015162000b7860201b60201c565b8383600881106200041a576200041962001af7565b5b602002015160006002811062000435576200043462001af7565b5b602002018484600881106200044f576200044e62001af7565b5b60200201516001600281106200046a576200046962001af7565b5b602002018281525082815250505062000510826003836200048c919062001c6e565b60088110620004a0576200049f62001af7565b5b6020020151600060028110620004bb57620004ba62001af7565b5b602002015183600384620004d0919062001c6e565b60088110620004e457620004e362001af7565b5b6020020151600160028110620004ff57620004fe62001af7565b5b602002015162000b7860201b60201c565b8360048462000520919062001c6e565b6008811062000534576200053362001af7565b5b60200201516000600281106200054f576200054e62001af7565b5b602002018460048562000563919062001c6e565b6008811062000577576200057662001af7565b5b602002015160016002811062000592576200059162001af7565b5b602002018281525082815250505060005b603f811015620007db5762000629838360088110620005c757620005c662001af7565b5b6020020151600060028110620005e257620005e162001af7565b5b6020020151848460088110620005fd57620005fc62001af7565b5b602002015160016002811062000618576200061762001af7565b5b602002015162000b7860201b60201c565b8484600881106200063f576200063e62001af7565b5b60200201516000600281106200065a576200065962001af7565b5b6020020185856008811062000674576200067362001af7565b5b60200201516001600281106200068f576200068e62001af7565b5b60200201828152508281525050506200073583600484620006b1919062001c6e565b60088110620006c557620006c462001af7565b5b6020020151600060028110620006e057620006df62001af7565b5b602002015184600485620006f5919062001c6e565b6008811062000709576200070862001af7565b5b602002015160016002811062000724576200072362001af7565b5b602002015162000b7860201b60201c565b8460048562000745919062001c6e565b6008811062000759576200075862001af7565b5b602002015160006002811062000774576200077362001af7565b5b602002018560048662000788919062001c6e565b600881106200079c576200079b62001af7565b5b6020020151600160028110620007b757620007b662001af7565b5b60200201828152508281525050508080620007d29062001ca9565b915050620005a3565b508080620007e99062001ca9565b91505062000362565b50600083600061010081106200080d576200080c62001af7565b5b602002015160006002811062000828576200082762001af7565b5b602002018181525050600083600061010081106200084b576200084a62001af7565b5b602002015160016002811062000866576200086562001af7565b5b6020020181815250506000600190505b608081101562000aa45760008482610100811062000899576200089862001af7565b5b6020020151600060028110620008b457620008b362001af7565b5b602002018181525050600084826101008110620008d657620008d562001af7565b5b6020020151600160028110620008f157620008f062001af7565b5b60200201818152505060005b600881101562000a8d576000816001901b83161462000a775762000a0083826008811062000930576200092f62001af7565b5b60200201516000600281106200094b576200094a62001af7565b5b602002015184836008811062000966576200096562001af7565b5b602002015160016002811062000981576200098062001af7565b5b6020020151878561010081106200099d576200099c62001af7565b5b6020020151600060028110620009b857620009b762001af7565b5b602002015188866101008110620009d457620009d362001af7565b5b6020020151600160028110620009ef57620009ee62001af7565b5b602002015162000bbc60201b60201c565b8684610100811062000a175762000a1662001af7565b5b602002015160006002811062000a325762000a3162001af7565b5b602002018785610100811062000a4d5762000a4c62001af7565b5b602002015160016002811062000a685762000a6762001af7565b5b60200201828152508281525050505b808062000a849062001ca9565b915050620008fd565b50808062000a9b9062001ca9565b91505062000876565b505050919050565b62000b4c8160405160240162000ac3919062001cf6565b6040516020818303038152906040527f41304fac000000000000000000000000000000000000000000000000000000007bffffffffffffffffffffffffffffffffffffffffffffffffffffffff19166020820180517bffffffffffffffffffffffffffffffffffffffffffffffffffffffff838183161783525050505062000b4f60201b60201c565b50565b60008151905060006a636f6e736f6c652e6c6f679050602083016000808483855afa5050505050565b600080600062000b918585600162000c5960201b60201c565b80935081965082975050505062000bb0858583620011f060201b60201c565b92509250509250929050565b60008060008062000bd48888620012a060201b60201c565b1562000be857858593509350505062000c50565b62000bfa8686620012a060201b60201c565b1562000c0e57858593509350505062000c50565b62000c2588886001808a8a620012ad60201b60201c565b809450819550829a50839b505050505062000c4988888484620015b660201b60201c565b9350935050505b94509492505050565b600080600080600080600062000c778a8a8a620016d860201b60201c565b1562000c9d5762000c8d620016f860201b60201c565b96509650965050505050620011e7565b7fffffffff00000001000000000000000000000000ffffffffffffffffffffffff8062000ccf5762000cce62001d1a565b5b888a0992507fffffffff00000001000000000000000000000000ffffffffffffffffffffffff8062000d065762000d0562001d1a565b5b6002840992507fffffffff00000001000000000000000000000000ffffffffffffffffffffffff8062000d3e5762000d3d62001d1a565b5b8a840991507fffffffff00000001000000000000000000000000ffffffffffffffffffffffff8062000d755762000d7462001d1a565b5b89830991507fffffffff00000001000000000000000000000000ffffffffffffffffffffffff8062000dac5762000dab62001d1a565b5b6002830991507fffffffff00000001000000000000000000000000ffffffffffffffffffffffff8062000de45762000de362001d1a565b5b8a8b0999507fffffffff00000001000000000000000000000000ffffffffffffffffffffffff8062000e1b5762000e1a62001d1a565b5b60038b0993507fffffffff00000001000000000000000000000000ffffffffffffffffffffffff8062000e535762000e5262001d1a565b5b88890997507fffffffff00000001000000000000000000000000ffffffffffffffffffffffff8062000e8a5762000e8962001d1a565b5b7fffffffff00000001000000000000000000000000fffffffffffffffffffffffc890997507fffffffff00000001000000000000000000000000ffffffffffffffffffffffff8062000ee15762000ee062001d1a565b5b88850893507fffffffff00000001000000000000000000000000ffffffffffffffffffffffff8062000f185762000f1762001d1a565b5b84850990507fffffffff00000001000000000000000000000000ffffffffffffffffffffffff8062000f4f5762000f4e62001d1a565b5b8260020999507fffffffff00000001000000000000000000000000ffffffffffffffffffffffff8062000f875762000f8662001d1a565b5b8a7fffffffff00000001000000000000000000000000ffffffffffffffffffffffff03820890507fffffffff00000001000000000000000000000000ffffffffffffffffffffffff8062000fe05762000fdf62001d1a565b5b817fffffffff00000001000000000000000000000000ffffffffffffffffffffffff03830899507fffffffff00000001000000000000000000000000ffffffffffffffffffffffff8062001039576200103862001d1a565b5b8a850999507fffffffff00000001000000000000000000000000ffffffffffffffffffffffff8062001070576200106f62001d1a565b5b838a0998507fffffffff00000001000000000000000000000000ffffffffffffffffffffffff80620010a757620010a662001d1a565b5b898a0998507fffffffff00000001000000000000000000000000ffffffffffffffffffffffff80620010de57620010dd62001d1a565b5b8960020998507fffffffff00000001000000000000000000000000ffffffffffffffffffffffff8062001116576200111562001d1a565b5b897fffffffff00000001000000000000000000000000ffffffffffffffffffffffff038b0895507fffffffff00000001000000000000000000000000ffffffffffffffffffffffff806200116f576200116e62001d1a565b5b81840996507fffffffff00000001000000000000000000000000ffffffffffffffffffffffff80620011a657620011a562001d1a565b5b83840994507fffffffff00000001000000000000000000000000ffffffffffffffffffffffff80620011dd57620011dc62001d1a565b5b8386099450505050505b93509350939050565b600080600062001227847fffffffff00000001000000000000000000000000ffffffffffffffffffffffff6200170c60201b60201c565b90507fffffffff00000001000000000000000000000000ffffffffffffffffffffffff806200125b576200125a62001d1a565b5b81870992507fffffffff00000001000000000000000000000000ffffffffffffffffffffffff8062001292576200129162001d1a565b5b818609915050935093915050565b6000808214905092915050565b60008060008060008903620012cf5785856001809350935093509350620015a9565b887fffffffff00000001000000000000000000000000ffffffffffffffffffffffff0398507fffffffff00000001000000000000000000000000ffffffffffffffffffffffff897fffffffff00000001000000000000000000000000ffffffffffffffffffffffff8988090894507fffffffff00000001000000000000000000000000ffffffffffffffffffffffff8a7fffffffff00000001000000000000000000000000ffffffffffffffffffffffff037fffffffff00000001000000000000000000000000ffffffffffffffffffffffff8a89090895507fffffffff00000001000000000000000000000000ffffffffffffffffffffffff86870993507fffffffff00000001000000000000000000000000ffffffffffffffffffffffff86850992507fffffffff00000001000000000000000000000000ffffffffffffffffffffffff84890991507fffffffff00000001000000000000000000000000ffffffffffffffffffffffff83880990507fffffffff00000001000000000000000000000000ffffffffffffffffffffffff848b0997507fffffffff00000001000000000000000000000000ffffffffffffffffffffffff80897fffffffff00000001000000000000000000000000fffffffffffffffffffffffd097fffffffff00000001000000000000000000000000ffffffffffffffffffffffff857fffffffff00000001000000000000000000000000ffffffffffffffffffffffff037fffffffff00000001000000000000000000000000ffffffffffffffffffffffff898a09080893507fffffffff00000001000000000000000000000000ffffffffffffffffffffffff80848b097fffffffff00000001000000000000000000000000ffffffffffffffffffffffff877fffffffff00000001000000000000000000000000ffffffffffffffffffffffff887fffffffff00000001000000000000000000000000ffffffffffffffffffffffff038d08090892505b9650965096509692505050565b6000806000620015ed847fffffffff00000001000000000000000000000000ffffffffffffffffffffffff6200170c60201b60201c565b90507fffffffff00000001000000000000000000000000ffffffffffffffffffffffff8062001621576200162062001d1a565b5b818709915060007fffffffff00000001000000000000000000000000ffffffffffffffffffffffff806200165a576200165962001d1a565b5b82870990507fffffffff00000001000000000000000000000000ffffffffffffffffffffffff8062001691576200169062001d1a565b5b81820991507fffffffff00000001000000000000000000000000ffffffffffffffffffffffff80620016c857620016c762001d1a565b5b8289099350505094509492505050565b6000808303620016ec5760019050620016f1565b600090505b9392505050565b600080600080600080925092509250909192565b6000620017186200183a565b60208152602080820152602060408201528360608201527fffffffff00000001000000000000000000000000fffffffffffffffffffffffd60808201528260a082015260208160c08360006005600019f16200177357600080fd5b805191505092915050565b826101006002028101928215620017c4579160200282015b82811115620017c357825182906002620017b29291906200185c565b509160200191906002019062001796565b5b509050620017d39190620018a1565b5090565b604051806120000160405280610100905b620017f2620018c9565b815260200190600190039081620017e85790505090565b6040518061010001604052806008905b62001823620018c9565b815260200190600190039081620018195790505090565b6040518060c00160405280600690602082028036833780820191505090505090565b82600281019282156200188e579160200282015b828111156200188d57825182559160200191906001019062001870565b5b5090506200189d9190620018eb565b5090565b5b80821115620018c55760008181620018bb91906200190a565b50600201620018a2565b5090565b6040518060400160405280600290602082028036833780820191505090505090565b5b8082111562001906576000816000905550600101620018ec565b5090565b506000815560010160009055565b6000604051905090565b600080fd5b600080fd5b6000601f19601f8301169050919050565b7f4e487b7100000000000000000000000000000000000000000000000000000000600052604160045260246000fd5b62001977826200192c565b810181811067ffffffffffffffff821117156200199957620019986200193d565b5b80604052505050565b6000620019ae62001918565b9050620019bc82826200196c565b919050565b600067ffffffffffffffff821115620019df57620019de6200193d565b5b602082029050919050565b600080fd5b6000819050919050565b62001a0481620019ef565b811462001a1057600080fd5b50565b60008151905062001a2481620019f9565b92915050565b600062001a4162001a3b84620019c1565b620019a2565b9050806020840283018581111562001a5e5762001a5d620019ea565b5b835b8181101562001a8b578062001a76888262001a13565b84526020840193505060208101905062001a60565b5050509392505050565b600082601f83011262001aad5762001aac62001927565b5b600262001abc84828562001a2a565b91505092915050565b60006040828403121562001ade5762001add62001922565b5b600062001aee8482850162001a95565b91505092915050565b7f4e487b7100000000000000000000000000000000000000000000000000000000600052603260045260246000fd5b600081519050919050565b600082825260208201905092915050565b60005b8381101562001b6257808201518184015260208101905062001b45565b60008484015250505050565b600062001b7b8262001b26565b62001b87818562001b31565b935062001b9981856020860162001b42565b62001ba4816200192c565b840191505092915050565b62001bba81620019ef565b82525050565b6000606082019050818103600083015262001bdc818662001b6e565b905062001bed602083018562001baf565b62001bfc604083018462001baf565b949350505050565b7f4e487b7100000000000000000000000000000000000000000000000000000000600052601160045260246000fd5b600062001c4082620019ef565b915062001c4d83620019ef565b925082820390508181111562001c685762001c6762001c04565b5b92915050565b600062001c7b82620019ef565b915062001c8883620019ef565b925082820190508082111562001ca35762001ca262001c04565b5b92915050565b600062001cb682620019ef565b91507fffffffffffffffffffffffffffffffffffffffffffffffffffffffffffffffff820362001ceb5762001cea62001c04565b5b600182019050919050565b6000602082019050818103600083015262001d12818462001b6e565b905092915050565b7f4e487b7100000000000000000000000000000000000000000000000000000000600052601260045260246000fd5b613e5f8062001d596000396000f3fe608060405234801561001057600080fd5b50600436106100575760003560e01c8063165b38141461005c57806361bc221a1461008c578063642e54dd146100aa578063912fe272146100da5780639f36b8fd1461010a575b600080fd5b61007660048036038101906100719190613248565b610126565b6040516100839190613297565b60405180910390f35b610094610155565b6040516100a19190613297565b60405180910390f35b6100c460048036038101906100bf91906133f9565b61015b565b6040516100d1919061356e565b60405180910390f35b6100f460048036038101906100ef9190613747565b610479565b6040516101019190613845565b60405180910390f35b610124600480360381019061011f9190613860565b610525565b005b600182610100811061013757600080fd5b60020201816002811061014957600080fd5b01600091509150505481565b60005481565b61016361312f565b600061016e83610efd565b90506000608090505b610100811015610256578160808203608081106101975761019661392f565b5b60200201516000600281106101af576101ae61392f565b5b602002015160018261010081106101c9576101c861392f565b5b600202016000600281106101e0576101df61392f565b5b01819055508160808203608081106101fb576101fa61392f565b5b60200201516001600281106102135761021261392f565b5b6020020151600182610100811061022d5761022c61392f565b5b600202016001600281106102445761024361392f565b5b01819055508080600101915050610177565b506102956040518060400160405280601781526020017f507265636f6d707574652070617274203220646f6e653a000000000000000000815250610e64565b5060005b6101008110156103fa576103456040518060400160405280600181526020017f220000000000000000000000000000000000000000000000000000000000000081525060018361010081106102f1576102f061392f565b5b600202016000600281106103085761030761392f565b5b01546040518060400160405280600281526020017f222c000000000000000000000000000000000000000000000000000000000000815250611700565b6103e76040518060400160405280600181526020017f220000000000000000000000000000000000000000000000000000000000000081525060018361010081106103935761039261392f565b5b600202016001600281106103aa576103a961392f565b5b01546040518060400160405280600281526020017f222c000000000000000000000000000000000000000000000000000000000000815250611700565b80806103f29061398d565b915050610299565b50600161010080602002604051908101604052809291906000905b8282101561046e5783826002020160028060200260405190810160405280929190826002801561045a576020028201915b815481526020019060010190808311610446575b505050505081526020019060010190610415565b505050509050919050565b60008061048c8b8b8b8b8b8b8b8b61179f565b905060006104d282866002806020026040519081016040528092919082600260200280828437600081840152601f19601f82011690508083019250505050505086611a57565b90506105136040518060400160405280600a81526020017f726573756c743d2025730000000000000000000000000000000000000000000081525082611cf0565b80925050509998505050505050505050565b6105ac8888888888888888600161010080602002604051908101604052809291906000905b828210156105a35783826002020160028060200260405190810160405280929190826002801561058f576020028201915b81548152602001906001019080831161057b575b50505050508152602001906001019061054a565b50505050610479565b6105e2576040517f8baa579f00000000000000000000000000000000000000000000000000000000815260040160405180910390fd5b6000808154809291906105f49061398d565b91905055505050505050505050565b61069d83838360405160240161061b93929190613a54565b6040516020818303038152906040527fca47c4eb000000000000000000000000000000000000000000000000000000007bffffffffffffffffffffffffffffffffffffffffffffffffffffffff19166020820180517bffffffffffffffffffffffffffffffffffffffffffffffffffffffff8381831617835250505050611d8c565b505050565b6106aa61312f565b60006106b461315e565b7f6b17d1f2e12c4247f8bce6e563a440f277037d812deb33a0f4a13945d898c296816000600881106106e9576106e861392f565b5b60200201516000600281106107015761070061392f565b5b6020020181815250507f4fe342e2fe1a7f9b8ee7eb4a7c0f9e162bce33576b315ececbb6406837bf51f58160006008811061073f5761073e61392f565b5b60200201516001600281106107575761075661392f565b5b602002018181525050836000600281106107745761077361392f565b5b60200201518160046008811061078d5761078c61392f565b5b60200201516000600281106107a5576107a461392f565b5b602002018181525050836001600281106107c2576107c161392f565b5b6020020151816004600881106107db576107da61392f565b5b60200201516001600281106107f3576107f261392f565b5b6020020181815250506000600190505b6004811015610bf75761088c8260018361081d9190613a92565b6008811061082e5761082d61392f565b5b60200201516000600281106108465761084561392f565b5b6020020151836001846108599190613a92565b6008811061086a5761086961392f565b5b60200201516001600281106108825761088161392f565b5b6020020151611db5565b83836008811061089f5761089e61392f565b5b60200201516000600281106108b7576108b661392f565b5b602002018484600881106108ce576108cd61392f565b5b60200201516001600281106108e6576108e561392f565b5b6020020182815250828152505050610974826003836109059190613ac6565b600881106109165761091561392f565b5b602002015160006002811061092e5761092d61392f565b5b6020020151836003846109419190613ac6565b600881106109525761095161392f565b5b602002015160016002811061096a5761096961392f565b5b6020020151611db5565b836004846109829190613ac6565b600881106109935761099261392f565b5b60200201516000600281106109ab576109aa61392f565b5b60200201846004856109bd9190613ac6565b600881106109ce576109cd61392f565b5b60200201516001600281106109e6576109e561392f565b5b602002018281525082815250505060005b603f811015610be357610a68838360088110610a1657610a1561392f565b5b6020020151600060028110610a2e57610a2d61392f565b5b6020020151848460088110610a4657610a4561392f565b5b6020020151600160028110610a5e57610a5d61392f565b5b6020020151611db5565b848460088110610a7b57610a7a61392f565b5b6020020151600060028110610a9357610a9261392f565b5b60200201858560088110610aaa57610aa961392f565b5b6020020151600160028110610ac257610ac161392f565b5b6020020182815250828152505050610b5083600484610ae19190613ac6565b60088110610af257610af161392f565b5b6020020151600060028110610b0a57610b0961392f565b5b602002015184600485610b1d9190613ac6565b60088110610b2e57610b2d61392f565b5b6020020151600160028110610b4657610b4561392f565b5b6020020151611db5565b84600485610b5e9190613ac6565b60088110610b6f57610b6e61392f565b5b6020020151600060028110610b8757610b8661392f565b5b6020020185600486610b999190613ac6565b60088110610baa57610ba961392f565b5b6020020151600160028110610bc257610bc161392f565b5b60200201828152508281525050508080610bdb9061398d565b9150506109f7565b508080610bef9061398d565b915050610803565b5060008360006101008110610c0f57610c0e61392f565b5b6020020151600060028110610c2757610c2661392f565b5b60200201818152505060008360006101008110610c4757610c4661392f565b5b6020020151600160028110610c5f57610c5e61392f565b5b6020020181815250506000600190505b6080811015610e5c57600084826101008110610c8e57610c8d61392f565b5b6020020151600060028110610ca657610ca561392f565b5b602002018181525050600084826101008110610cc557610cc461392f565b5b6020020151600160028110610cdd57610cdc61392f565b5b60200201818152505060005b6008811015610e48576000816001901b831614610e3557610dca838260088110610d1657610d1561392f565b5b6020020151600060028110610d2e57610d2d61392f565b5b6020020151848360088110610d4657610d4561392f565b5b6020020151600160028110610d5e57610d5d61392f565b5b602002015187856101008110610d7757610d7661392f565b5b6020020151600060028110610d8f57610d8e61392f565b5b602002015188866101008110610da857610da761392f565b5b6020020151600160028110610dc057610dbf61392f565b5b6020020151611de9565b86846101008110610dde57610ddd61392f565b5b6020020151600060028110610df657610df561392f565b5b6020020187856101008110610e0e57610e0d61392f565b5b6020020151600160028110610e2657610e2561392f565b5b60200201828152508281525050505b8080610e409061398d565b915050610ce9565b508080610e549061398d565b915050610c6f565b505050919050565b610efa81604051602401610e789190613afa565b6040516020818303038152906040527f41304fac000000000000000000000000000000000000000000000000000000007bffffffffffffffffffffffffffffffffffffffffffffffffffffffff19166020820180517bffffffffffffffffffffffffffffffffffffffffffffffffffffffff8381831617835250505050611d8c565b50565b610f0561318c565b6000610f0f61315e565b7f6b17d1f2e12c4247f8bce6e563a440f277037d812deb33a0f4a13945d898c29681600060088110610f4457610f4361392f565b5b6020020151600060028110610f5c57610f5b61392f565b5b6020020181815250507f4fe342e2fe1a7f9b8ee7eb4a7c0f9e162bce33576b315ececbb6406837bf51f581600060088110610f9a57610f9961392f565b5b6020020151600160028110610fb257610fb161392f565b5b60200201818152505083600060028110610fcf57610fce61392f565b5b602002015181600460088110610fe857610fe761392f565b5b602002015160006002811061100057610fff61392f565b5b6020020181815250508360016002811061101d5761101c61392f565b5b6020020151816004600881106110365761103561392f565b5b602002015160016002811061104e5761104d61392f565b5b6020020181815250506000600190505b6004811015611452576110e7826001836110789190613a92565b600881106110895761108861392f565b5b60200201516000600281106110a1576110a061392f565b5b6020020151836001846110b49190613a92565b600881106110c5576110c461392f565b5b60200201516001600281106110dd576110dc61392f565b5b6020020151611db5565b8383600881106110fa576110f961392f565b5b60200201516000600281106111125761111161392f565b5b602002018484600881106111295761112861392f565b5b60200201516001600281106111415761114061392f565b5b60200201828152508281525050506111cf826003836111609190613ac6565b600881106111715761117061392f565b5b60200201516000600281106111895761118861392f565b5b60200201518360038461119c9190613ac6565b600881106111ad576111ac61392f565b5b60200201516001600281106111c5576111c461392f565b5b6020020151611db5565b836004846111dd9190613ac6565b600881106111ee576111ed61392f565b5b60200201516000600281106112065761120561392f565b5b60200201846004856112189190613ac6565b600881106112295761122861392f565b5b60200201516001600281106112415761124061392f565b5b602002018281525082815250505060005b603f81101561143e576112c38383600881106112715761127061392f565b5b60200201516000600281106112895761128861392f565b5b60200201518484600881106112a1576112a061392f565b5b60200201516001600281106112b9576112b861392f565b5b6020020151611db5565b8484600881106112d6576112d561392f565b5b60200201516000600281106112ee576112ed61392f565b5b602002018585600881106113055761130461392f565b5b602002015160016002811061131d5761131c61392f565b5b60200201828152508281525050506113ab8360048461133c9190613ac6565b6008811061134d5761134c61392f565b5b60200201516000600281106113655761136461392f565b5b6020020151846004856113789190613ac6565b600881106113895761138861392f565b5b60200201516001600281106113a1576113a061392f565b5b6020020151611db5565b846004856113b99190613ac6565b600881106113ca576113c961392f565b5b60200201516000600281106113e2576113e161392f565b5b60200201856004866113f49190613ac6565b600881106114055761140461392f565b5b602002015160016002811061141d5761141c61392f565b5b602002018281525082815250505080806114369061398d565b915050611252565b50808061144a9061398d565b91505061105e565b506000836000608081106114695761146861392f565b5b60200201516000600281106114815761148061392f565b5b6020020181815250506000836000608081106114a05761149f61392f565b5b60200201516001600281106114b8576114b761392f565b5b6020020181815250506000608090505b6101008110156116f8576000846080836114e29190613a92565b608081106114f3576114f261392f565b5b602002015160006002811061150b5761150a61392f565b5b6020020181815250506000846080836115249190613a92565b608081106115355761153461392f565b5b602002015160016002811061154d5761154c61392f565b5b60200201818152505060005b60088110156116e4576000816001901b8316146116d1576116508382600881106115865761158561392f565b5b602002015160006002811061159e5761159d61392f565b5b60200201518483600881106115b6576115b561392f565b5b60200201516001600281106115ce576115cd61392f565b5b6020020151876080866115e19190613a92565b608081106115f2576115f161392f565b5b602002015160006002811061160a5761160961392f565b5b60200201518860808761161d9190613a92565b6080811061162e5761162d61392f565b5b60200201516001600281106116465761164561392f565b5b6020020151611de9565b8660808561165e9190613a92565b6080811061166f5761166e61392f565b5b60200201516000600281106116875761168661392f565b5b60200201876080866116999190613a92565b608081106116aa576116a961392f565b5b60200201516001600281106116c2576116c161392f565b5b60200201828152508281525050505b80806116dc9061398d565b915050611559565b5080806116f09061398d565b9150506114c8565b505050919050565b61179a83838360405160240161171893929190613b1c565b6040516020818303038152906040527f5970e089000000000000000000000000000000000000000000000000000000007bffffffffffffffffffffffffffffffffffffffffffffffffffffffff19166020820180517bffffffffffffffffffffffffffffffffffffffffffffffffffffffff8381831617835250505050611d8c565b505050565b6000867effffffffffffffffffffffffffffffffffffffffffffffffffffffffffffff1916878a8a60208181106117d9576117d861392f565b5b9050013560f81c60f81b167effffffffffffffffffffffffffffffffffffffffffffffffffffffffffffff19161461183d576040517ffc93479200000000000000000000000000000000000000000000000000000000815260040160405180910390fd5b6000611867856040516020016118539190613b82565b604051602081830303815290604052611e62565b90506000815167ffffffffffffffff811115611886576118856132c8565b5b6040519080825280601f01601f1916602001820160405280156118b85781602001600182028036833780820191505090505b50905080518589016020830137600081516020830120905080836040516020016118e29190613be4565b604051602081830303815290604052805190602001201461192f576040517febab5d2900000000000000000000000000000000000000000000000000000000815260040160405180910390fd5b505050600060208a8a90506119449190613ac6565b67ffffffffffffffff81111561195d5761195c6132c8565b5b6040519080825280601f01601f19166020018201604052801561198f5781602001600182028036833780820191505090505b509050888a60208301376000600288886040516119ad929190613c2f565b602060405180830381855afa1580156119ca573d6000803e3d6000fd5b5050506040513d601f19601f820116820180604052508101906119ed9190613c5d565b90508060208b01830152600282604051611a079190613be4565b602060405180830381855afa158015611a24573d6000803e3d6000fd5b5050506040513d601f19601f82011682018060405250810190611a479190613c5d565b9250505098975050505050505050565b6000611a616131ba565b8260046101008110611a7657611a7561392f565b5b6020020151600060028110611a8e57611a8d61392f565b5b602002015181600060028110611aa757611aa661392f565b5b6020020181815250508260046101008110611ac557611ac461392f565b5b6020020151600160028110611add57611adc61392f565b5b602002015181600160028110611af657611af561392f565b5b602002018181525050600084600060028110611b1557611b1461392f565b5b60200201511480611b5e57507fffffffff00000000ffffffffffffffffbce6faada7179e84f3b9cac2fc63255184600060028110611b5657611b5561392f565b5b602002015110155b80611b815750600084600160028110611b7a57611b7961392f565b5b6020020151145b15611b90576000915050611ce9565b6000611bd485600160028110611ba957611ba861392f565b5b60200201517fffffffff00000000ffffffffffffffffbce6faada7179e84f3b9cac2fc632551611f9b565b905060007fffffffff00000000ffffffffffffffffbce6faada7179e84f3b9cac2fc63255180611c0757611c06613c8a565b5b828860001c09905060007fffffffff00000000ffffffffffffffffbce6faada7179e84f3b9cac2fc63255180611c4057611c3f613c8a565b5b8388600060028110611c5557611c5461392f565b5b6020020151099050600080600080611c6e86868c61200a565b8093508195505050611c986040518060600160405280602c8152602001613dbe602c913985612361565b8a600060028110611cac57611cab61392f565b5b60200201517fffffffff00000000ffffffffffffffffbce6faada7179e84f3b9cac2fc63255185611cdd9190613cb9565b14985050505050505050505b9392505050565b611d888282604051602401611d06929190613cea565b6040516020818303038152906040527fc3b55635000000000000000000000000000000000000000000000000000000007bffffffffffffffffffffffffffffffffffffffffffffffffffffffff19166020820180517bffffffffffffffffffffffffffffffffffffffffffffffffffffffff8381831617835250505050611d8c565b5050565b60008151905060006a636f6e736f6c652e6c6f679050602083016000808483855afa5050505050565b6000806000611dc6858560016123fd565b809350819650829750505050611ddd858583612940565b92509250509250929050565b600080600080611df988886129e2565b15611e0b578585935093505050611e59565b611e1586866129e2565b15611e27578585935093505050611e59565b611e3688886001808a8a6129ef565b809450819550829a50839b5050505050611e5288888484612cf6565b9350935050505b94509492505050565b60606000825103611e8457604051806020016040528060008152509050611f96565b6000604051806060016040528060408152602001613dea60409139905060006001600360028651611eb59190613ac6565b611ebf9190613d1a565b6004611ecb9190613d4b565b611ed59190613a92565b67ffffffffffffffff811115611eee57611eed6132c8565b5b6040519080825280601f01601f191660200182016040528015611f205781602001600182028036833780820191505090505b509050600182016020820185865187015b80821015611f8c576003820191508151603f8160121c168501518453600184019350603f81600c1c168501518453600184019350603f8160061c168501518453600184019350603f8116850151845360018401935050611f31565b5050505080925050505b919050565b6000611fa56131dc565b60208152602080820152602060408201528360608201527fffffffff00000000ffffffffffffffffbce6faada7179e84f3b9cac2fc63254f60808201528260a082015260208160c08360006005600019f1611fff57600080fd5b805191505092915050565b60008060008060ff905061201c6131ba565b600160c0830389901c166001026001608084038a901c166002026001604085038b901c166004026001858c901c16600802600160c087038c901c166010026001608088038d901c166020026001604089038e901c166040026001898f901c166080020101010101010192508583610100811061209b5761209a61392f565b5b60200201516000600281106120b3576120b261392f565b5b6020020151868461010081106120cc576120cb61392f565b5b60200201516001600281106120e4576120e361392f565b5b602002015160018084600060028110612100576120ff61392f565b5b60200201856001600281106121185761211761392f565b5b6020020182815250828152508297508398505050505060fe91505b60c08210612312576121778585836000600281106121545761215361392f565b5b60200201518460016002811061216d5761216c61392f565b5b6020020151612e04565b8460006002811061218b5761218a61392f565b5b60200201856001600281106121a3576121a261392f565b5b60200201828152508281525082975083985050505050600160c0830389901c166001026001608084038a901c166002026001604085038b901c166004026001858c901c16600802600160c087038c901c166010026001608088038d901c166020026001604089038e901c166040026001898f901c166080020101010101010192506122c285858360006002811061223d5761223c61392f565b5b6020020151846001600281106122565761225561392f565b5b60200201518a88610100811061226f5761226e61392f565b5b60200201516000600281106122875761228661392f565b5b60200201518b8961010081106122a05761229f61392f565b5b60200201516001600281106122b8576122b761392f565b5b60200201516129ef565b846000600281106122d6576122d561392f565b5b60200201856001600281106122ee576122ed61392f565b5b60200201828152508281525082975083985050505050818060019003925050612133565b61234e85858360006002811061232b5761232a61392f565b5b6020020151846001600281106123445761234361392f565b5b6020020151612cf6565b8095508196505050505050935093915050565b6123f98282604051602401612377929190613d8d565b6040516020818303038152906040527fb60e72cc000000000000000000000000000000000000000000000000000000007bffffffffffffffffffffffffffffffffffffffffffffffffffffffff19166020820180517bffffffffffffffffffffffffffffffffffffffffffffffffffffffff8381831617835250505050611d8c565b5050565b60008060008060008060006124138a8a8a61308e565b1561242f576124206130ac565b96509650965050505050612937565b7fffffffff00000001000000000000000000000000ffffffffffffffffffffffff8061245e5761245d613c8a565b5b888a0992507fffffffff00000001000000000000000000000000ffffffffffffffffffffffff8061249257612491613c8a565b5b6002840992507fffffffff00000001000000000000000000000000ffffffffffffffffffffffff806124c7576124c6613c8a565b5b8a840991507fffffffff00000001000000000000000000000000ffffffffffffffffffffffff806124fb576124fa613c8a565b5b89830991507fffffffff00000001000000000000000000000000ffffffffffffffffffffffff8061252f5761252e613c8a565b5b6002830991507fffffffff00000001000000000000000000000000ffffffffffffffffffffffff8061256457612563613c8a565b5b8a8b0999507fffffffff00000001000000000000000000000000ffffffffffffffffffffffff8061259857612597613c8a565b5b60038b0993507fffffffff00000001000000000000000000000000ffffffffffffffffffffffff806125cd576125cc613c8a565b5b88890997507fffffffff00000001000000000000000000000000ffffffffffffffffffffffff8061260157612600613c8a565b5b7fffffffff00000001000000000000000000000000fffffffffffffffffffffffc890997507fffffffff00000001000000000000000000000000ffffffffffffffffffffffff8061265557612654613c8a565b5b88850893507fffffffff00000001000000000000000000000000ffffffffffffffffffffffff8061268957612688613c8a565b5b84850990507fffffffff00000001000000000000000000000000ffffffffffffffffffffffff806126bd576126bc613c8a565b5b8260020999507fffffffff00000001000000000000000000000000ffffffffffffffffffffffff806126f2576126f1613c8a565b5b8a7fffffffff00000001000000000000000000000000ffffffffffffffffffffffff03820890507fffffffff00000001000000000000000000000000ffffffffffffffffffffffff8061274857612747613c8a565b5b817fffffffff00000001000000000000000000000000ffffffffffffffffffffffff03830899507fffffffff00000001000000000000000000000000ffffffffffffffffffffffff8061279e5761279d613c8a565b5b8a850999507fffffffff00000001000000000000000000000000ffffffffffffffffffffffff806127d2576127d1613c8a565b5b838a0998507fffffffff00000001000000000000000000000000ffffffffffffffffffffffff8061280657612805613c8a565b5b898a0998507fffffffff00000001000000000000000000000000ffffffffffffffffffffffff8061283a57612839613c8a565b5b8960020998507fffffffff00000001000000000000000000000000ffffffffffffffffffffffff8061286f5761286e613c8a565b5b897fffffffff00000001000000000000000000000000ffffffffffffffffffffffff038b0895507fffffffff00000001000000000000000000000000ffffffffffffffffffffffff806128c5576128c4613c8a565b5b81840996507fffffffff00000001000000000000000000000000ffffffffffffffffffffffff806128f9576128f8613c8a565b5b83840994507fffffffff00000001000000000000000000000000ffffffffffffffffffffffff8061292d5761292c613c8a565b5b8386099450505050505b93509350939050565b600080600061296f847fffffffff00000001000000000000000000000000ffffffffffffffffffffffff6130c0565b90507fffffffff00000001000000000000000000000000ffffffffffffffffffffffff806129a05761299f613c8a565b5b81870992507fffffffff00000001000000000000000000000000ffffffffffffffffffffffff806129d4576129d3613c8a565b5b818609915050935093915050565b6000808214905092915050565b60008060008060008903612a0f5785856001809350935093509350612ce9565b887fffffffff00000001000000000000000000000000ffffffffffffffffffffffff0398507fffffffff00000001000000000000000000000000ffffffffffffffffffffffff897fffffffff00000001000000000000000000000000ffffffffffffffffffffffff8988090894507fffffffff00000001000000000000000000000000ffffffffffffffffffffffff8a7fffffffff00000001000000000000000000000000ffffffffffffffffffffffff037fffffffff00000001000000000000000000000000ffffffffffffffffffffffff8a89090895507fffffffff00000001000000000000000000000000ffffffffffffffffffffffff86870993507fffffffff00000001000000000000000000000000ffffffffffffffffffffffff86850992507fffffffff00000001000000000000000000000000ffffffffffffffffffffffff84890991507fffffffff00000001000000000000000000000000ffffffffffffffffffffffff83880990507fffffffff00000001000000000000000000000000ffffffffffffffffffffffff848b0997507fffffffff00000001000000000000000000000000ffffffffffffffffffffffff80897fffffffff00000001000000000000000000000000fffffffffffffffffffffffd097fffffffff00000001000000000000000000000000ffffffffffffffffffffffff857fffffffff00000001000000000000000000000000ffffffffffffffffffffffff037fffffffff00000001000000000000000000000000ffffffffffffffffffffffff898a09080893507fffffffff00000001000000000000000000000000ffffffffffffffffffffffff80848b097fffffffff00000001000000000000000000000000ffffffffffffffffffffffff877fffffffff00000001000000000000000000000000ffffffffffffffffffffffff887fffffffff00000001000000000000000000000000ffffffffffffffffffffffff038d08090892505b9650965096509692505050565b6000806000612d25847fffffffff00000001000000000000000000000000ffffffffffffffffffffffff6130c0565b90507fffffffff00000001000000000000000000000000ffffffffffffffffffffffff80612d5657612d55613c8a565b5b818709915060007fffffffff00000001000000000000000000000000ffffffffffffffffffffffff80612d8c57612d8b613c8a565b5b82870990507fffffffff00000001000000000000000000000000ffffffffffffffffffffffff80612dc057612dbf613c8a565b5b81820991507fffffffff00000001000000000000000000000000ffffffffffffffffffffffff80612df457612df3613c8a565b5b8289099350505094509492505050565b6000806000807fffffffff00000001000000000000000000000000ffffffffffffffffffffffff8760020993507fffffffff00000001000000000000000000000000ffffffffffffffffffffffff84850991507fffffffff00000001000000000000000000000000ffffffffffffffffffffffff82890990507fffffffff00000001000000000000000000000000ffffffffffffffffffffffff82850992507fffffffff00000001000000000000000000000000ffffffffffffffffffffffff86830991507fffffffff00000001000000000000000000000000ffffffffffffffffffffffff807fffffffff00000001000000000000000000000000ffffffffffffffffffffffff888b087fffffffff00000001000000000000000000000000ffffffffffffffffffffffff897fffffffff00000001000000000000000000000000ffffffffffffffffffffffff038c080960030995507fffffffff00000001000000000000000000000000ffffffffffffffffffffffff80827fffffffff00000001000000000000000000000000fffffffffffffffffffffffd097fffffffff00000001000000000000000000000000ffffffffffffffffffffffff8889090893507fffffffff00000001000000000000000000000000ffffffffffffffffffffffff80857fffffffff00000001000000000000000000000000ffffffffffffffffffffffff038308870997507fffffffff00000001000000000000000000000000ffffffffffffffffffffffff85840990507fffffffff00000001000000000000000000000000ffffffffffffffffffffffff808885097fffffffff00000001000000000000000000000000ffffffffffffffffffffffff0389089250945094509450949050565b60008083036130a057600190506130a5565b600090505b9392505050565b600080600080600080925092509250909192565b60006130ca6131dc565b60208152602080820152602060408201528360608201527fffffffff00000001000000000000000000000000fffffffffffffffffffffffd60808201528260a082015260208160c08360006005600019f161312457600080fd5b805191505092915050565b604051806120000160405280610100905b6131486131ba565b8152602001906001900390816131405790505090565b6040518061010001604052806008905b6131766131ba565b81526020019060019003908161316e5790505090565b6040518061100001604052806080905b6131a46131ba565b81526020019060019003908161319c5790505090565b6040518060400160405280600290602082028036833780820191505090505090565b6040518060c00160405280600690602082028036833780820191505090505090565b6000604051905090565b600080fd5b600080fd5b6000819050919050565b61322581613212565b811461323057600080fd5b50565b6000813590506132428161321c565b92915050565b6000806040838503121561325f5761325e613208565b5b600061326d85828601613233565b925050602061327e85828601613233565b9150509250929050565b61329181613212565b82525050565b60006020820190506132ac6000830184613288565b92915050565b600080fd5b6000601f19601f8301169050919050565b7f4e487b7100000000000000000000000000000000000000000000000000000000600052604160045260246000fd5b613300826132b7565b810181811067ffffffffffffffff8211171561331f5761331e6132c8565b5b80604052505050565b60006133326131fe565b905061333e82826132f7565b919050565b600067ffffffffffffffff82111561335e5761335d6132c8565b5b602082029050919050565b600080fd5b600061338161337c84613343565b613328565b9050806020840283018581111561339b5761339a613369565b5b835b818110156133c457806133b08882613233565b84526020840193505060208101905061339d565b5050509392505050565b600082601f8301126133e3576133e26132b2565b5b60026133f084828561336e565b91505092915050565b60006040828403121561340f5761340e613208565b5b600061341d848285016133ce565b91505092915050565b60006101009050919050565b600081905092915050565b6000819050919050565b600060029050919050565b600081905092915050565b6000819050919050565b61347081613212565b82525050565b60006134828383613467565b60208301905092915050565b6000602082019050919050565b6134a481613447565b6134ae8184613452565b92506134b98261345d565b8060005b838110156134ea5781516134d18782613476565b96506134dc8361348e565b9250506001810190506134bd565b505050505050565b60006134fe838361349b565b60408301905092915050565b6000602082019050919050565b61352081613426565b61352a8184613432565b92506135358261343d565b8060005b8381101561356657815161354d87826134f2565b96506135588361350a565b925050600181019050613539565b505050505050565b6000614000820190506135846000830184613517565b92915050565b600080fd5b60008083601f8401126135a5576135a46132b2565b5b8235905067ffffffffffffffff8111156135c2576135c161358a565b5b6020830191508360018202830111156135de576135dd613369565b5b9250929050565b60007fff0000000000000000000000000000000000000000000000000000000000000082169050919050565b61361a816135e5565b811461362557600080fd5b50565b60008135905061363781613611565b92915050565b6000819050919050565b6136508161363d565b811461365b57600080fd5b50565b60008135905061366d81613647565b92915050565b60008190508260206002028201111561368f5761368e613369565b5b92915050565b600067ffffffffffffffff8211156136b0576136af6132c8565b5b602082029050919050565b60006136ce6136c984613695565b613328565b905080604084028301858111156136e8576136e7613369565b5b835b8181101561371157806136fd88826133ce565b8452602084019350506040810190506136ea565b5050509392505050565b600082601f8301126137305761372f6132b2565b5b61010061373e8482856136bb565b91505092915050565b60008060008060008060008060006140e08a8c03121561376a57613769613208565b5b60008a013567ffffffffffffffff8111156137885761378761320d565b5b6137948c828d0161358f565b995099505060206137a78c828d01613628565b97505060408a013567ffffffffffffffff8111156137c8576137c761320d565b5b6137d48c828d0161358f565b965096505060606137e78c828d0161365e565b94505060806137f88c828d01613233565b93505060a06138098c828d01613673565b92505060e061381a8c828d0161371b565b9150509295985092959850929598565b60008115159050919050565b61383f8161382a565b82525050565b600060208201905061385a6000830184613836565b92915050565b60008060008060008060008060e0898b0312156138805761387f613208565b5b600089013567ffffffffffffffff81111561389e5761389d61320d565b5b6138aa8b828c0161358f565b985098505060206138bd8b828c01613628565b965050604089013567ffffffffffffffff8111156138de576138dd61320d565b5b6138ea8b828c0161358f565b955095505060606138fd8b828c0161365e565b935050608061390e8b828c01613233565b92505060a061391f8b828c01613673565b9150509295985092959890939650565b7f4e487b7100000000000000000000000000000000000000000000000000000000600052603260045260246000fd5b7f4e487b7100000000000000000000000000000000000000000000000000000000600052601160045260246000fd5b600061399882613212565b91507fffffffffffffffffffffffffffffffffffffffffffffffffffffffffffffffff82036139ca576139c961395e565b5b600182019050919050565b600081519050919050565b600082825260208201905092915050565b60005b83811015613a0f5780820151818401526020810190506139f4565b60008484015250505050565b6000613a26826139d5565b613a3081856139e0565b9350613a408185602086016139f1565b613a49816132b7565b840191505092915050565b60006060820190508181036000830152613a6e8186613a1b565b9050613a7d6020830185613288565b613a8a6040830184613288565b949350505050565b6000613a9d82613212565b9150613aa883613212565b9250828203905081811115613ac057613abf61395e565b5b92915050565b6000613ad182613212565b9150613adc83613212565b9250828201905080821115613af457613af361395e565b5b92915050565b60006020820190508181036000830152613b148184613a1b565b905092915050565b60006060820190508181036000830152613b368186613a1b565b9050613b456020830185613288565b8181036040830152613b578184613a1b565b9050949350505050565b6000819050919050565b613b7c613b778261363d565b613b61565b82525050565b6000613b8e8284613b6b565b60208201915081905092915050565b600081519050919050565b600081905092915050565b6000613bbe82613b9d565b613bc88185613ba8565b9350613bd88185602086016139f1565b80840191505092915050565b6000613bf08284613bb3565b915081905092915050565b82818337600083830152505050565b6000613c168385613ba8565b9350613c23838584613bfb565b82840190509392505050565b6000613c3c828486613c0a565b91508190509392505050565b600081519050613c5781613647565b92915050565b600060208284031215613c7357613c72613208565b5b6000613c8184828501613c48565b91505092915050565b7f4e487b7100000000000000000000000000000000000000000000000000000000600052601260045260246000fd5b6000613cc482613212565b9150613ccf83613212565b925082613cdf57613cde613c8a565b5b828206905092915050565b60006040820190508181036000830152613d048185613a1b565b9050613d136020830184613836565b9392505050565b6000613d2582613212565b9150613d3083613212565b925082613d4057613d3f613c8a565b5b828204905092915050565b6000613d5682613212565b9150613d6183613212565b9250828202613d6f81613212565b91508282048414831517613d8657613d8561395e565b5b5092915050565b60006040820190508181036000830152613da78185613a1b565b9050613db66020830184613288565b939250505056fe726573205368616d6972203864696d20707265636f6d70757465642058595a5a20206d756c6d756c6164643a4142434445464748494a4b4c4d4e4f505152535455565758595a6162636465666768696a6b6c6d6e6f707172737475767778797a303132333435363738392d5fa26469706673582212209efa2a26eabb91c83063ba9edc3d41c67e70c537f20004ac938e0b45c945a03864736f6c63430008110033",
  "linkReferences": {},
  "deployedLinkReferences": {}
}