{
  "_format": "hh-sol-artifact-1",
  "contractName": "Webauthn",
  "sourceName": "contracts/Webauthn.sol",
  "abi": [
    {
      "inputs": [],
      "name": "InvalidAuthenticatorData",
      "type": "error"
    },
    {
      "inputs": [],
      "name": "InvalidClientData",
      "type": "error"
    },
    {
      "inputs": [],
      "name": "InvalidSignature",
      "type": "error"
    },
    {
      "inputs": [],
      "name": "counter",
      "outputs": [
        {
          "internalType": "uint256",
          "name": "",
          "type": "uint256"
        }
      ],
      "stateMutability": "view",
      "type": "function"
    },
    {
      "inputs": [
        {
          "internalType": "bytes32",
          "name": "hash",
          "type": "bytes32"
        },
        {
          "internalType": "uint256[2]",
          "name": "rs",
          "type": "uint256[2]"
        },
        {
          "internalType": "uint256[2]",
          "name": "Q",
          "type": "uint256[2]"
        }
      ],
      "name": "ecdsa_verif",
      "outputs": [
        {
          "internalType": "bool",
          "name": "",
          "type": "bool"
        }
      ],
      "stateMutability": "nonpayable",
      "type": "function"
    },
    {
      "inputs": [
        {
          "internalType": "bytes",
          "name": "authenticatorData",
          "type": "bytes"
        },
        {
          "internalType": "bytes1",
          "name": "authenticatorDataFlagMask",
          "type": "bytes1"
        },
        {
          "internalType": "bytes",
          "name": "clientData",
          "type": "bytes"
        },
        {
          "internalType": "bytes32",
          "name": "clientChallenge",
          "type": "bytes32"
        },
        {
          "internalType": "uint256",
          "name": "clientChallengeDataOffset",
          "type": "uint256"
        },
        {
          "internalType": "uint256[2]",
          "name": "rs",
          "type": "uint256[2]"
        },
        {
          "internalType": "uint256[2]",
          "name": "Q",
          "type": "uint256[2]"
        }
      ],
      "name": "validate",
      "outputs": [],
      "stateMutability": "nonpayable",
      "type": "function"
    }
  ],
  "bytecode": "0x608060405234801561001057600080fd5b5061248d806100206000396000f3fe608060405234801561001057600080fd5b50600436106100415760003560e01c806342b2a7b91461004657806361bc221a14610062578063efdfa74f14610080575b600080fd5b610060600480360381019061005b9190611e89565b6100b0565b005b61006a610119565b6040516100779190611f7b565b60405180910390f35b61009a60048036038101906100959190611f96565b61011f565b6040516100a79190612004565b60405180910390f35b6100c1898989898989898989610210565b6100f7576040517f8baa579f00000000000000000000000000000000000000000000000000000000815260040160405180910390fd5b6000808154809291906101099061204e565b9190505550505050505050505050565b60005481565b60006101636040518060400160405280600581526020017f686173683d0000000000000000000000000000000000000000000000000000008152508560001c610246565b6101ba6040518060400160405280600481526020017f7273303d00000000000000000000000000000000000000000000000000000000815250846000600281106101b0576101af612096565b5b6020020135610246565b60006101c78585856102e2565b90506102086040518060400160405280600a81526020017f726573756c743d202573000000000000000000000000000000000000000000008152508261056f565b509392505050565b6000806102238b8b8b8b8b8b8b8b61060b565b905060006102328286866102e2565b905080925050509998505050505050505050565b6102de828260405160240161025c929190612155565b6040516020818303038152906040527fb60e72cc000000000000000000000000000000000000000000000000000000007bffffffffffffffffffffffffffffffffffffffffffffffffffffffff19166020820180517bffffffffffffffffffffffffffffffffffffffffffffffffffffffff83818316178352505050506108c3565b5050565b600080836000600281106102f9576102f8612096565b5b6020020135148061034257507fffffffff00000000ffffffffffffffffbce6faada7179e84f3b9cac2fc6325518360006002811061033a57610339612096565b5b602002013510155b80610365575060008360016002811061035e5761035d612096565b5b6020020135145b806103a857507fffffffff00000000ffffffffffffffffbce6faada7179e84f3b9cac2fc632551836001600281106103a05761039f612096565b5b602002013510155b156103b65760009050610568565b6103f0826000600281106103cd576103cc612096565b5b6020020135836001600281106103e6576103e5612096565b5b60200201356108ec565b6103fd5760009050610568565b600061044b8460016002811061041657610415612096565b5b60200201357fffffffff00000000ffffffffffffffffbce6faada7179e84f3b9cac2fc6325516104469190612185565b610ae0565b905060007fffffffff00000000ffffffffffffffffbce6faada7179e84f3b9cac2fc6325518061047e5761047d6121b9565b5b828760001c09905060007fffffffff00000000ffffffffffffffffbce6faada7179e84f3b9cac2fc632551806104b7576104b66121b9565b5b83876000600281106104cc576104cb612096565b5b60200201350990506000610512866000600281106104ed576104ec612096565b5b60200201358760016002811061050657610505612096565b5b60200201358585610b6e565b90507fffffffff00000000ffffffffffffffffbce6faada7179e84f3b9cac2fc63255187357fffffffff00000000ffffffffffffffffbce6faada7179e84f3b9cac2fc6325510382089050600081149450505050505b9392505050565b61060782826040516024016105859291906121e8565b6040516020818303038152906040527fc3b55635000000000000000000000000000000000000000000000000000000007bffffffffffffffffffffffffffffffffffffffffffffffffffffffff19166020820180517bffffffffffffffffffffffffffffffffffffffffffffffffffffffff83818316178352505050506108c3565b5050565b6000867effffffffffffffffffffffffffffffffffffffffffffffffffffffffffffff1916878a8a602081811061064557610644612096565b5b9050013560f81c60f81b167effffffffffffffffffffffffffffffffffffffffffffffffffffffffffffff1916146106a9576040517ffc93479200000000000000000000000000000000000000000000000000000000815260040160405180910390fd5b60006106d3856040516020016106bf9190612239565b6040516020818303038152906040526116d1565b90506000815167ffffffffffffffff8111156106f2576106f1612254565b5b6040519080825280601f01601f1916602001820160405280156107245781602001600182028036833780820191505090505b509050805185890160208301376000815160208301209050808360405160200161074e91906122ca565b604051602081830303815290604052805190602001201461079b576040517febab5d2900000000000000000000000000000000000000000000000000000000815260040160405180910390fd5b505050600060208a8a90506107b091906122e1565b67ffffffffffffffff8111156107c9576107c8612254565b5b6040519080825280601f01601f1916602001820160405280156107fb5781602001600182028036833780820191505090505b509050888a6020830137600060028888604051610819929190612349565b602060405180830381855afa158015610836573d6000803e3d6000fd5b5050506040513d601f19601f820116820180604052508101906108599190612377565b90508060208b0183015260028260405161087391906122ca565b602060405180830381855afa158015610890573d6000803e3d6000fd5b5050506040513d601f19601f820116820180604052508101906108b39190612377565b9250505098975050505050505050565b60008151905060006a636f6e736f6c652e6c6f679050602083016000808483855afa5050505050565b6000826000148061091c57507fffffffff00000001000000000000000000000000ffffffffffffffffffffffff83145b806109275750816000145b8061095157507fffffffff00000001000000000000000000000000ffffffffffffffffffffffff82145b1561095f5760009050610ada565b60007fffffffff00000001000000000000000000000000ffffffffffffffffffffffff806109905761098f6121b9565b5b838409905060007fffffffff00000001000000000000000000000000ffffffffffffffffffffffff806109c6576109c56121b9565b5b7fffffffff00000001000000000000000000000000ffffffffffffffffffffffff806109f5576109f46121b9565b5b7fffffffff00000001000000000000000000000000fffffffffffffffffffffffc87097fffffffff00000001000000000000000000000000ffffffffffffffffffffffff80610a4757610a466121b9565b5b877fffffffff00000001000000000000000000000000ffffffffffffffffffffffff80610a7757610a766121b9565b5b898a09090890507fffffffff00000001000000000000000000000000ffffffffffffffffffffffff80610aad57610aac6121b9565b5b7f5ac635d8aa3a93e7b3ebbd55769886bc651d06b0cc53b0f63bce3c3e27d2604b82089050808214925050505b92915050565b6000610aea611d12565b60208152602080820152602060408201528260608201527fffffffff00000000ffffffffffffffffbce6faada7179e84f3b9cac2fc63254f60808201527fffffffff00000000ffffffffffffffffbce6faada7179e84f3b9cac2fc63255160a082015260208160c08360006005600019f1610b6457600080fd5b8051915050919050565b600080600080600060ff9050610b82611d12565b60008060008a148015610b955750600089145b15610baa5760009750505050505050506116c9565b610bf67f6b17d1f2e12c4247f8bce6e563a440f277037d812deb33a0f4a13945d898c2967f4fe342e2fe1a7f9b8ee7eb4a7c0f9e162bce33576b315ececbb6406837bf51f58e8e61180a565b809250819350505060018a851c1660018a861c1660011b015b60008103610c345760018503945060018b861c1660018b871c1660011b019050610c0f565b5060018a851c1660018a861c1660011b01965060018703610c96577f6b17d1f2e12c4247f8bce6e563a440f277037d812deb33a0f4a13945d898c29697507f4fe342e2fe1a7f9b8ee7eb4a7c0f9e162bce33576b315ececbb6406837bf51f594505b60028703610ca5578b97508a94505b60038703610cb4578197508094505b60018403935060019650600195505b837fffffffffffffffffffffffffffffffffffffffffffffffffffffffffffffffff1115611620577fffffffff00000001000000000000000000000000ffffffffffffffffffffffff856002097fffffffff00000001000000000000000000000000ffffffffffffffffffffffff8182097fffffffff00000001000000000000000000000000ffffffffffffffffffffffff818b097fffffffff00000001000000000000000000000000ffffffffffffffffffffffff82840992507fffffffff00000001000000000000000000000000ffffffffffffffffffffffff807fffffffff00000001000000000000000000000000ffffffffffffffffffffffff8c8e087fffffffff00000001000000000000000000000000ffffffffffffffffffffffff8d7fffffffff00000001000000000000000000000000ffffffffffffffffffffffff038f08096003097fffffffff00000001000000000000000000000000ffffffffffffffffffffffff8a850999507fffffffff00000001000000000000000000000000ffffffffffffffffffffffff8b84099a507fffffffff00000001000000000000000000000000ffffffffffffffffffffffff80837fffffffff00000001000000000000000000000000fffffffffffffffffffffffd097fffffffff00000001000000000000000000000000ffffffffffffffffffffffff838409089b507fffffffff00000001000000000000000000000000ffffffffffffffffffffffff80837fffffffff00000001000000000000000000000000ffffffffffffffffffffffff038e08820992507fffffffff00000001000000000000000000000000ffffffffffffffffffffffff837fffffffff00000001000000000000000000000000ffffffffffffffffffffffff8b870908985060018e891c1660018e8a1c1660011b01905080610f9f57887fffffffff00000001000000000000000000000000ffffffffffffffffffffffff03985050505050611615565b60018103610fee577f6b17d1f2e12c4247f8bce6e563a440f277037d812deb33a0f4a13945d898c29693507f4fe342e2fe1a7f9b8ee7eb4a7c0f9e162bce33576b315ececbb6406837bf51f592505b60028103610ffd578f93508e92505b6003810361100c578593508492505b7fffffffff00000001000000000000000000000000ffffffffffffffffffffffff897fffffffff00000001000000000000000000000000ffffffffffffffffffffffff8c8609087fffffffff00000001000000000000000000000000ffffffffffffffffffffffff8d7fffffffff00000001000000000000000000000000ffffffffffffffffffffffff037fffffffff00000001000000000000000000000000ffffffffffffffffffffffff8e88090893506000810361140e576000840361140d577fffffffff00000001000000000000000000000000ffffffffffffffffffffffff8a60020994507fffffffff00000001000000000000000000000000ffffffffffffffffffffffff85860993507fffffffff00000001000000000000000000000000ffffffffffffffffffffffff848e0992507fffffffff00000001000000000000000000000000ffffffffffffffffffffffff8486097fffffffff00000001000000000000000000000000ffffffffffffffffffffffff8d8f0891507fffffffff00000001000000000000000000000000ffffffffffffffffffffffff8d7fffffffff00000001000000000000000000000000ffffffffffffffffffffffff038f0890507fffffffff00000001000000000000000000000000ffffffffffffffffffffffff81830991507fffffffff00000001000000000000000000000000ffffffffffffffffffffffff8d8f0894507fffffffff00000001000000000000000000000000ffffffffffffffffffffffff8d7fffffffff00000001000000000000000000000000ffffffffffffffffffffffff038f0895507fffffffff00000001000000000000000000000000ffffffffffffffffffffffff85870994507fffffffff00000001000000000000000000000000ffffffffffffffffffffffff8560030992507fffffffff00000001000000000000000000000000ffffffffffffffffffffffff8c87099b507fffffffff00000001000000000000000000000000ffffffffffffffffffffffff8d86099c507fffffffff00000001000000000000000000000000ffffffffffffffffffffffff80857fffffffff00000001000000000000000000000000fffffffffffffffffffffffd097fffffffff00000001000000000000000000000000ffffffffffffffffffffffff858609089d507fffffffff00000001000000000000000000000000ffffffffffffffffffffffff808f7fffffffff00000001000000000000000000000000ffffffffffffffffffffffff038608840994507fffffffff00000001000000000000000000000000ffffffffffffffffffffffff808c88097fffffffff00000001000000000000000000000000ffffffffffffffffffffffff0386089a50505050505050611615565b5b7fffffffff00000001000000000000000000000000ffffffffffffffffffffffff84850991507fffffffff00000001000000000000000000000000ffffffffffffffffffffffff8483097fffffffff00000001000000000000000000000000ffffffffffffffffffffffff838e099c507fffffffff00000001000000000000000000000000ffffffffffffffffffffffff818d099b507fffffffff00000001000000000000000000000000ffffffffffffffffffffffff838f097fffffffff00000001000000000000000000000000ffffffffffffffffffffffff80827fffffffff00000001000000000000000000000000fffffffffffffffffffffffd097fffffffff00000001000000000000000000000000ffffffffffffffffffffffff847fffffffff00000001000000000000000000000000ffffffffffffffffffffffff037fffffffff00000001000000000000000000000000ffffffffffffffffffffffff878809080893507fffffffff00000001000000000000000000000000ffffffffffffffffffffffff80838e097fffffffff00000001000000000000000000000000ffffffffffffffffffffffff857fffffffff00000001000000000000000000000000ffffffffffffffffffffffff887fffffffff00000001000000000000000000000000ffffffffffffffffffffffff03860809089b50839e50505050505050505b600184039350610cc3565b86606084015260208352602080840152602060408401527fffffffff00000001000000000000000000000000fffffffffffffffffffffffd60808401527fffffffff00000001000000000000000000000000ffffffffffffffffffffffff60a084015260208360c08560006005600019f161169a57600080fd5b7fffffffff00000001000000000000000000000000ffffffffffffffffffffffff835189099750505050505050505b949350505050565b606060008251036116f357604051806020016040528060008152509050611805565b60006040518060600160405280604081526020016124186040913990506000600160036002865161172491906122e1565b61172e91906123a4565b600461173a91906123d5565b6117449190612185565b67ffffffffffffffff81111561175d5761175c612254565b5b6040519080825280601f01601f19166020018201604052801561178f5781602001600182028036833780820191505090505b509050600182016020820185865187015b808210156117fb576003820191508151603f8160121c168501518453600184019350603f81600c1c168501518453600184019350603f8160061c168501518453600184019350603f81168501518453600184019350506117a0565b5050505080925050505b919050565b60008060008061181a8888611883565b1561182c57858593509350505061187a565b6118368686611883565b1561184857858593509350505061187a565b61185788886001808a8a611890565b809450819550829a50839b505050505061187388888484611b97565b9350935050505b94509492505050565b6000808214905092915050565b600080600080600089036118b05785856001809350935093509350611b8a565b887fffffffff00000001000000000000000000000000ffffffffffffffffffffffff0398507fffffffff00000001000000000000000000000000ffffffffffffffffffffffff897fffffffff00000001000000000000000000000000ffffffffffffffffffffffff8988090894507fffffffff00000001000000000000000000000000ffffffffffffffffffffffff8a7fffffffff00000001000000000000000000000000ffffffffffffffffffffffff037fffffffff00000001000000000000000000000000ffffffffffffffffffffffff8a89090895507fffffffff00000001000000000000000000000000ffffffffffffffffffffffff86870993507fffffffff00000001000000000000000000000000ffffffffffffffffffffffff86850992507fffffffff00000001000000000000000000000000ffffffffffffffffffffffff84890991507fffffffff00000001000000000000000000000000ffffffffffffffffffffffff83880990507fffffffff00000001000000000000000000000000ffffffffffffffffffffffff848b0997507fffffffff00000001000000000000000000000000ffffffffffffffffffffffff80897fffffffff00000001000000000000000000000000fffffffffffffffffffffffd097fffffffff00000001000000000000000000000000ffffffffffffffffffffffff857fffffffff00000001000000000000000000000000ffffffffffffffffffffffff037fffffffff00000001000000000000000000000000ffffffffffffffffffffffff898a09080893507fffffffff00000001000000000000000000000000ffffffffffffffffffffffff80848b097fffffffff00000001000000000000000000000000ffffffffffffffffffffffff877fffffffff00000001000000000000000000000000ffffffffffffffffffffffff887fffffffff00000001000000000000000000000000ffffffffffffffffffffffff038d08090892505b9650965096509692505050565b6000806000611ba584611c84565b90507fffffffff00000001000000000000000000000000ffffffffffffffffffffffff80611bd657611bd56121b9565b5b818709915060007fffffffff00000001000000000000000000000000ffffffffffffffffffffffff80611c0c57611c0b6121b9565b5b82870990507fffffffff00000001000000000000000000000000ffffffffffffffffffffffff80611c4057611c3f6121b9565b5b81820991507fffffffff00000001000000000000000000000000ffffffffffffffffffffffff80611c7457611c736121b9565b5b8289099350505094509492505050565b6000611c8e611d12565b60208152602080820152602060408201528260608201527fffffffff00000001000000000000000000000000fffffffffffffffffffffffd60808201527fffffffff00000001000000000000000000000000ffffffffffffffffffffffff60a082015260208160c08360006005600019f1611d0857600080fd5b8051915050919050565b6040518060c00160405280600690602082028036833780820191505090505090565b600080fd5b600080fd5b600080fd5b600080fd5b600080fd5b60008083601f840112611d6357611d62611d3e565b5b8235905067ffffffffffffffff811115611d8057611d7f611d43565b5b602083019150836001820283011115611d9c57611d9b611d48565b5b9250929050565b60007fff0000000000000000000000000000000000000000000000000000000000000082169050919050565b611dd881611da3565b8114611de357600080fd5b50565b600081359050611df581611dcf565b92915050565b6000819050919050565b611e0e81611dfb565b8114611e1957600080fd5b50565b600081359050611e2b81611e05565b92915050565b6000819050919050565b611e4481611e31565b8114611e4f57600080fd5b50565b600081359050611e6181611e3b565b92915050565b600081905082602060020282011115611e8357611e82611d48565b5b92915050565b60008060008060008060008060006101208a8c031215611eac57611eab611d34565b5b60008a013567ffffffffffffffff811115611eca57611ec9611d39565b5b611ed68c828d01611d4d565b99509950506020611ee98c828d01611de6565b97505060408a013567ffffffffffffffff811115611f0a57611f09611d39565b5b611f168c828d01611d4d565b96509650506060611f298c828d01611e1c565b9450506080611f3a8c828d01611e52565b93505060a0611f4b8c828d01611e67565b92505060e0611f5c8c828d01611e67565b9150509295985092959850929598565b611f7581611e31565b82525050565b6000602082019050611f906000830184611f6c565b92915050565b600080600060a08486031215611faf57611fae611d34565b5b6000611fbd86828701611e1c565b9350506020611fce86828701611e67565b9250506060611fdf86828701611e67565b9150509250925092565b60008115159050919050565b611ffe81611fe9565b82525050565b60006020820190506120196000830184611ff5565b92915050565b7f4e487b7100000000000000000000000000000000000000000000000000000000600052601160045260246000fd5b600061205982611e31565b91507fffffffffffffffffffffffffffffffffffffffffffffffffffffffffffffffff820361208b5761208a61201f565b5b600182019050919050565b7f4e487b7100000000000000000000000000000000000000000000000000000000600052603260045260246000fd5b600081519050919050565b600082825260208201905092915050565b60005b838110156120ff5780820151818401526020810190506120e4565b60008484015250505050565b6000601f19601f8301169050919050565b6000612127826120c5565b61213181856120d0565b93506121418185602086016120e1565b61214a8161210b565b840191505092915050565b6000604082019050818103600083015261216f818561211c565b905061217e6020830184611f6c565b9392505050565b600061219082611e31565b915061219b83611e31565b92508282039050818111156121b3576121b261201f565b5b92915050565b7f4e487b7100000000000000000000000000000000000000000000000000000000600052601260045260246000fd5b60006040820190508181036000830152612202818561211c565b90506122116020830184611ff5565b9392505050565b6000819050919050565b61223361222e82611dfb565b612218565b82525050565b60006122458284612222565b60208201915081905092915050565b7f4e487b7100000000000000000000000000000000000000000000000000000000600052604160045260246000fd5b600081519050919050565b600081905092915050565b60006122a482612283565b6122ae818561228e565b93506122be8185602086016120e1565b80840191505092915050565b60006122d68284612299565b915081905092915050565b60006122ec82611e31565b91506122f783611e31565b925082820190508082111561230f5761230e61201f565b5b92915050565b82818337600083830152505050565b6000612330838561228e565b935061233d838584612315565b82840190509392505050565b6000612356828486612324565b91508190509392505050565b60008151905061237181611e05565b92915050565b60006020828403121561238d5761238c611d34565b5b600061239b84828501612362565b91505092915050565b60006123af82611e31565b91506123ba83611e31565b9250826123ca576123c96121b9565b5b828204905092915050565b60006123e082611e31565b91506123eb83611e31565b92508282026123f981611e31565b915082820484148315176124105761240f61201f565b5b509291505056fe4142434445464748494a4b4c4d4e4f505152535455565758595a6162636465666768696a6b6c6d6e6f707172737475767778797a303132333435363738392d5fa26469706673582212200ca727f59ceba49e0f3039e93613297db96b2d0045d80aa42f082726ce3bf8f464736f6c63430008110033",
  "linkReferences": {},
  "deployedLinkReferences": {}
}