{
  "_format": "hh-sol-artifact-1",
  "contractName": "Webauthn_prec3",
  "sourceName": "contracts/Webauthn_prec.sol",
  "abi": [
    {
      "inputs": [
        {
          "internalType": "address",
          "name": "Precompute_contract",
          "type": "address"
        }
      ],
      "stateMutability": "nonpayable",
      "type": "constructor"
    },
    {
      "inputs": [],
      "name": "InvalidAuthenticatorData",
      "type": "error"
    },
    {
      "inputs": [],
      "name": "InvalidClientData",
      "type": "error"
    },
    {
      "inputs": [],
      "name": "InvalidSignature",
      "type": "error"
    },
    {
      "inputs": [],
      "name": "counter",
      "outputs": [
        {
          "internalType": "uint256",
          "name": "",
          "type": "uint256"
        }
      ],
      "stateMutability": "view",
      "type": "function"
    },
    {
      "inputs": [
        {
          "internalType": "bytes32",
          "name": "hash",
          "type": "bytes32"
        },
        {
          "internalType": "uint256[2]",
          "name": "rs",
          "type": "uint256[2]"
        }
      ],
      "name": "ecdsa_verif_prec",
      "outputs": [
        {
          "internalType": "bool",
          "name": "",
          "type": "bool"
        }
      ],
      "stateMutability": "nonpayable",
      "type": "function"
    },
    {
      "inputs": [
        {
          "internalType": "bytes",
          "name": "authenticatorData",
          "type": "bytes"
        },
        {
          "internalType": "bytes1",
          "name": "authenticatorDataFlagMask",
          "type": "bytes1"
        },
        {
          "internalType": "bytes",
          "name": "clientData",
          "type": "bytes"
        },
        {
          "internalType": "bytes32",
          "name": "clientChallenge",
          "type": "bytes32"
        },
        {
          "internalType": "uint256",
          "name": "clientChallengeDataOffset",
          "type": "uint256"
        },
        {
          "internalType": "uint256[2]",
          "name": "rs",
          "type": "uint256[2]"
        }
      ],
      "name": "validate_prec",
      "outputs": [],
      "stateMutability": "nonpayable",
      "type": "function"
    }
  ],
  "bytecode": "0x60806040523480156200001157600080fd5b50604051620019f2380380620019f28339818101604052810190620000379190620000e8565b806000806101000a81548173ffffffffffffffffffffffffffffffffffffffff021916908373ffffffffffffffffffffffffffffffffffffffff160217905550506200011a565b600080fd5b600073ffffffffffffffffffffffffffffffffffffffff82169050919050565b6000620000b08262000083565b9050919050565b620000c281620000a3565b8114620000ce57600080fd5b50565b600081519050620000e281620000b7565b92915050565b6000602082840312156200010157620001006200007e565b5b60006200011184828501620000d1565b91505092915050565b6118c8806200012a6000396000f3fe608060405234801561001057600080fd5b50600436106100415760003560e01c8063011f2d141461004657806361bc221a146100765780639f36b8fd14610094575b600080fd5b610060600480360381019061005b91906111fd565b6100b0565b60405161006d9190611258565b60405180910390f35b61007e6101c0565b60405161008b919061128c565b60405180910390f35b6100ae60048036038101906100a9919061138b565b6101c6565b005b60006100f46040518060400160405280600581526020017f686173683d0000000000000000000000000000000000000000000000000000008152508460001c61024f565b61014b6040518060400160405280600481526020017f7273303d00000000000000000000000000000000000000000000000000000000815250836000600281106101415761014061145a565b5b602002013561024f565b6000610178848460008054906101000a900473ffffffffffffffffffffffffffffffffffffffff166102eb565b90506101b96040518060400160405280600a81526020017f726573756c743d2025730000000000000000000000000000000000000000000081525082610486565b5092915050565b60015481565b6101f7888888888888888860008054906101000a900473ffffffffffffffffffffffffffffffffffffffff16610522565b61022d576040517f8baa579f00000000000000000000000000000000000000000000000000000000815260040160405180910390fd5b60016000815480929190610240906114b8565b91905055505050505050505050565b6102e78282604051602401610265929190611590565b6040516020818303038152906040527fb60e72cc000000000000000000000000000000000000000000000000000000007bffffffffffffffffffffffffffffffffffffffffffffffffffffffff19166020820180517bffffffffffffffffffffffffffffffffffffffffffffffffffffffff8381831617835250505050610558565b5050565b600080836000600281106103025761030161145a565b5b6020020135148061034b57507fffffffff00000000ffffffffffffffffbce6faada7179e84f3b9cac2fc632551836000600281106103435761034261145a565b5b602002013510155b8061036e57506000836001600281106103675761036661145a565b5b6020020135145b1561037c576000905061047f565b600061039f846001600281106103955761039461145a565b5b6020020135610581565b9050600061042b7fffffffff00000000ffffffffffffffffbce6faada7179e84f3b9cac2fc632551806103d5576103d46115c0565b5b838860001c097fffffffff00000000ffffffffffffffffbce6faada7179e84f3b9cac2fc6325518061040a576104096115c0565b5b848860006002811061041f5761041e61145a565b5b6020020135098661060f565b90507fffffffff00000000ffffffffffffffffbce6faada7179e84f3b9cac2fc63255185357fffffffff00000000ffffffffffffffffbce6faada7179e84f3b9cac2fc632551038208905060008114925050505b9392505050565b61051e828260405160240161049c9291906115ef565b6040516020818303038152906040527fc3b55635000000000000000000000000000000000000000000000000000000007bffffffffffffffffffffffffffffffffffffffffffffffffffffffff19166020820180517bffffffffffffffffffffffffffffffffffffffffffffffffffffffff8381831617835250505050610558565b5050565b6000806105358b8b8b8b8b8b8b8b610d83565b905060006105448286866102eb565b905080925050509998505050505050505050565b60008151905060006a636f6e736f6c652e6c6f679050602083016000808483855afa5050505050565b600061058b611174565b60208152602080820152602060408201528260608201527fffffffff00000000ffffffffffffffffbce6faada7179e84f3b9cac2fc63254f60808201527fffffffff00000000ffffffffffffffffbce6faada7179e84f3b9cac2fc63255160a082015260208160c08360006005600019f161060557600080fd5b8051915050919050565b60008061061a611174565b61010091505b6000816000600681106106365761063561145a565b5b6020020151036106d157600182039150600160c0830387901c1660016080840388901c1660020260016040850389901c166004026001858a901c16600802600160c087038a901c166010026001608088038b901c166020026001604089038c901c166040026001898d901c1660800201010101010101604002816000600681106106c3576106c261145a565b5b602002018181525050610620565b6040815182863c805192506020810151600180935060fe5b60bf811115610cd3577fffffffff00000001000000000000000000000000ffffffffffffffffffffffff836002097fffffffff00000001000000000000000000000000ffffffffffffffffffffffff8182097fffffffff00000001000000000000000000000000ffffffffffffffffffffffff8189097fffffffff00000001000000000000000000000000ffffffffffffffffffffffff82840992507fffffffff00000001000000000000000000000000ffffffffffffffffffffffff807fffffffff00000001000000000000000000000000ffffffffffffffffffffffff8a8c087fffffffff00000001000000000000000000000000ffffffffffffffffffffffff8b7fffffffff00000001000000000000000000000000ffffffffffffffffffffffff038d08096003097fffffffff00000001000000000000000000000000ffffffffffffffffffffffff86850995507fffffffff00000001000000000000000000000000ffffffffffffffffffffffff89840998507fffffffff00000001000000000000000000000000ffffffffffffffffffffffff80837fffffffff00000001000000000000000000000000fffffffffffffffffffffffd097fffffffff00000001000000000000000000000000ffffffffffffffffffffffff8384090899507fffffffff00000001000000000000000000000000ffffffffffffffffffffffff80837fffffffff00000001000000000000000000000000ffffffffffffffffffffffff038c08820992507fffffffff00000001000000000000000000000000ffffffffffffffffffffffff837fffffffff00000001000000000000000000000000ffffffffffffffffffffffff89870908965060018d861c1660091b60018d871c16600d1b01905060408503945060018d861c1660081b60018d871c16600c1b018101905060408503945060018d861c1660071b60018d871c16600b1b018101905060408503945060018d861c1660061b60018d871c16600a1b018101905080610a0057867fffffffff00000001000000000000000000000000ffffffffffffffffffffffff03965050505050610cc8565b604081898d3c7fffffffff00000001000000000000000000000000ffffffffffffffffffffffff877fffffffff00000001000000000000000000000000ffffffffffffffffffffffff8860208c015109087fffffffff00000001000000000000000000000000ffffffffffffffffffffffff8b7fffffffff00000001000000000000000000000000ffffffffffffffffffffffff037fffffffff00000001000000000000000000000000ffffffffffffffffffffffff8c8c51090893507fffffffff00000001000000000000000000000000ffffffffffffffffffffffff84850991507fffffffff00000001000000000000000000000000ffffffffffffffffffffffff84830994507fffffffff00000001000000000000000000000000ffffffffffffffffffffffff828b0993507fffffffff00000001000000000000000000000000ffffffffffffffffffffffff85880996507fffffffff00000001000000000000000000000000ffffffffffffffffffffffff828c097fffffffff00000001000000000000000000000000ffffffffffffffffffffffff80827fffffffff00000001000000000000000000000000fffffffffffffffffffffffd097fffffffff00000001000000000000000000000000ffffffffffffffffffffffff887fffffffff00000001000000000000000000000000ffffffffffffffffffffffff037fffffffff00000001000000000000000000000000ffffffffffffffffffffffff868709080892507fffffffff00000001000000000000000000000000ffffffffffffffffffffffff80878b097fffffffff00000001000000000000000000000000ffffffffffffffffffffffff847fffffffff00000001000000000000000000000000ffffffffffffffffffffffff877fffffffff00000001000000000000000000000000ffffffffffffffffffffffff03860809089850849a50829b505050505050505b60bf810190506106e9565b5083606084015260208352602080840152602060408401527fffffffff00000001000000000000000000000000fffffffffffffffffffffffd60808401527fffffffff00000001000000000000000000000000ffffffffffffffffffffffff60a084015260208360c08560006005600019f1610d4e57600080fd5b825193507fffffffff00000001000000000000000000000000ffffffffffffffffffffffff8486099450505050509392505050565b6000867effffffffffffffffffffffffffffffffffffffffffffffffffffffffffffff1916878a8a6020818110610dbd57610dbc61145a565b5b9050013560f81c60f81b167effffffffffffffffffffffffffffffffffffffffffffffffffffffffffffff191614610e21576040517ffc93479200000000000000000000000000000000000000000000000000000000815260040160405180910390fd5b6000610e4b85604051602001610e379190611640565b60405160208183030381529060405261103b565b90506000815167ffffffffffffffff811115610e6a57610e6961165b565b5b6040519080825280601f01601f191660200182016040528015610e9c5781602001600182028036833780820191505090505b5090508051858901602083013760008151602083012090508083604051602001610ec691906116d1565b6040516020818303038152906040528051906020012014610f13576040517febab5d2900000000000000000000000000000000000000000000000000000000815260040160405180910390fd5b505050600060208a8a9050610f2891906116e8565b67ffffffffffffffff811115610f4157610f4061165b565b5b6040519080825280601f01601f191660200182016040528015610f735781602001600182028036833780820191505090505b509050888a6020830137600060028888604051610f91929190611750565b602060405180830381855afa158015610fae573d6000803e3d6000fd5b5050506040513d601f19601f82011682018060405250810190610fd1919061177e565b90508060208b01830152600282604051610feb91906116d1565b602060405180830381855afa158015611008573d6000803e3d6000fd5b5050506040513d601f19601f8201168201806040525081019061102b919061177e565b9250505098975050505050505050565b6060600082510361105d5760405180602001604052806000815250905061116f565b60006040518060600160405280604081526020016118536040913990506000600160036002865161108e91906116e8565b61109891906117ab565b60046110a491906117dc565b6110ae919061181e565b67ffffffffffffffff8111156110c7576110c661165b565b5b6040519080825280601f01601f1916602001820160405280156110f95781602001600182028036833780820191505090505b509050600182016020820185865187015b80821015611165576003820191508151603f8160121c168501518453600184019350603f81600c1c168501518453600184019350603f8160061c168501518453600184019350603f811685015184536001840193505061110a565b5050505080925050505b919050565b6040518060c00160405280600690602082028036833780820191505090505090565b600080fd5b600080fd5b6000819050919050565b6111b3816111a0565b81146111be57600080fd5b50565b6000813590506111d0816111aa565b92915050565b600080fd5b6000819050826020600202820111156111f7576111f66111d6565b5b92915050565b6000806060838503121561121457611213611196565b5b6000611222858286016111c1565b9250506020611233858286016111db565b9150509250929050565b60008115159050919050565b6112528161123d565b82525050565b600060208201905061126d6000830184611249565b92915050565b6000819050919050565b61128681611273565b82525050565b60006020820190506112a1600083018461127d565b92915050565b600080fd5b600080fd5b60008083601f8401126112c7576112c66112a7565b5b8235905067ffffffffffffffff8111156112e4576112e36112ac565b5b602083019150836001820283011115611300576112ff6111d6565b5b9250929050565b60007fff0000000000000000000000000000000000000000000000000000000000000082169050919050565b61133c81611307565b811461134757600080fd5b50565b60008135905061135981611333565b92915050565b61136881611273565b811461137357600080fd5b50565b6000813590506113858161135f565b92915050565b60008060008060008060008060e0898b0312156113ab576113aa611196565b5b600089013567ffffffffffffffff8111156113c9576113c861119b565b5b6113d58b828c016112b1565b985098505060206113e88b828c0161134a565b965050604089013567ffffffffffffffff8111156114095761140861119b565b5b6114158b828c016112b1565b955095505060606114288b828c016111c1565b93505060806114398b828c01611376565b92505060a061144a8b828c016111db565b9150509295985092959890939650565b7f4e487b7100000000000000000000000000000000000000000000000000000000600052603260045260246000fd5b7f4e487b7100000000000000000000000000000000000000000000000000000000600052601160045260246000fd5b60006114c382611273565b91507fffffffffffffffffffffffffffffffffffffffffffffffffffffffffffffffff82036114f5576114f4611489565b5b600182019050919050565b600081519050919050565b600082825260208201905092915050565b60005b8381101561153a57808201518184015260208101905061151f565b60008484015250505050565b6000601f19601f8301169050919050565b600061156282611500565b61156c818561150b565b935061157c81856020860161151c565b61158581611546565b840191505092915050565b600060408201905081810360008301526115aa8185611557565b90506115b9602083018461127d565b9392505050565b7f4e487b7100000000000000000000000000000000000000000000000000000000600052601260045260246000fd5b600060408201905081810360008301526116098185611557565b90506116186020830184611249565b9392505050565b6000819050919050565b61163a611635826111a0565b61161f565b82525050565b600061164c8284611629565b60208201915081905092915050565b7f4e487b7100000000000000000000000000000000000000000000000000000000600052604160045260246000fd5b600081519050919050565b600081905092915050565b60006116ab8261168a565b6116b58185611695565b93506116c581856020860161151c565b80840191505092915050565b60006116dd82846116a0565b915081905092915050565b60006116f382611273565b91506116fe83611273565b925082820190508082111561171657611715611489565b5b92915050565b82818337600083830152505050565b60006117378385611695565b935061174483858461171c565b82840190509392505050565b600061175d82848661172b565b91508190509392505050565b600081519050611778816111aa565b92915050565b60006020828403121561179457611793611196565b5b60006117a284828501611769565b91505092915050565b60006117b682611273565b91506117c183611273565b9250826117d1576117d06115c0565b5b828204905092915050565b60006117e782611273565b91506117f283611273565b925082820261180081611273565b9150828204841483151761181757611816611489565b5b5092915050565b600061182982611273565b915061183483611273565b925082820390508181111561184c5761184b611489565b5b9291505056fe4142434445464748494a4b4c4d4e4f505152535455565758595a6162636465666768696a6b6c6d6e6f707172737475767778797a303132333435363738392d5fa2646970667358221220b037ece8fb8824ead2dcd034cdbbf7b1bbaa8df15b616204d5f0a630a76d799164736f6c63430008110033",
  "linkReferences": {},
  "deployedLinkReferences": {}
}