{
  "_format": "hh-sol-artifact-1",
  "contractName": "Webauthn_prec",
  "sourceName": "contracts/Webauthn_prec.sol",
  "abi": [
    {
      "inputs": [
        {
          "internalType": "uint256[2]",
          "name": "Q",
          "type": "uint256[2]"
        }
      ],
      "stateMutability": "nonpayable",
      "type": "constructor"
    },
    {
      "inputs": [],
      "name": "InvalidAuthenticatorData",
      "type": "error"
    },
    {
      "inputs": [],
      "name": "InvalidClientData",
      "type": "error"
    },
    {
      "inputs": [],
      "name": "InvalidSignature",
      "type": "error"
    },
    {
      "inputs": [
        {
          "internalType": "uint256",
          "name": "",
          "type": "uint256"
        },
        {
          "internalType": "uint256",
          "name": "",
          "type": "uint256"
        }
      ],
      "name": "Shamir8",
      "outputs": [
        {
          "internalType": "uint256",
          "name": "",
          "type": "uint256"
        }
      ],
      "stateMutability": "view",
      "type": "function"
    },
    {
      "inputs": [
        {
          "internalType": "bytes",
          "name": "authenticatorData",
          "type": "bytes"
        },
        {
          "internalType": "bytes1",
          "name": "authenticatorDataFlagMask",
          "type": "bytes1"
        },
        {
          "internalType": "bytes",
          "name": "clientData",
          "type": "bytes"
        },
        {
          "internalType": "bytes32",
          "name": "clientChallenge",
          "type": "bytes32"
        },
        {
          "internalType": "uint256",
          "name": "clientChallengeDataOffset",
          "type": "uint256"
        },
        {
          "internalType": "uint256[2]",
          "name": "rs",
          "type": "uint256[2]"
        },
        {
          "internalType": "uint256[2][256]",
          "name": "Shamir8",
          "type": "uint256[2][256]"
        }
      ],
      "name": "checkSignature_prec",
      "outputs": [
        {
          "internalType": "bool",
          "name": "",
          "type": "bool"
        }
      ],
      "stateMutability": "nonpayable",
      "type": "function"
    },
    {
      "inputs": [],
      "name": "counter",
      "outputs": [
        {
          "internalType": "uint256",
          "name": "",
          "type": "uint256"
        }
      ],
      "stateMutability": "view",
      "type": "function"
    },
    {
      "inputs": [
        {
          "internalType": "uint256[2]",
          "name": "Q",
          "type": "uint256[2]"
        }
      ],
      "name": "deploy_part2",
      "outputs": [
        {
          "internalType": "uint256[2][256]",
          "name": "res",
          "type": "uint256[2][256]"
        }
      ],
      "stateMutability": "nonpayable",
      "type": "function"
    },
    {
      "inputs": [
        {
          "internalType": "bytes",
          "name": "authenticatorData",
          "type": "bytes"
        },
        {
          "internalType": "bytes1",
          "name": "authenticatorDataFlagMask",
          "type": "bytes1"
        },
        {
          "internalType": "bytes",
          "name": "clientData",
          "type": "bytes"
        },
        {
          "internalType": "bytes32",
          "name": "clientChallenge",
          "type": "bytes32"
        },
        {
          "internalType": "uint256",
          "name": "clientChallengeDataOffset",
          "type": "uint256"
        },
        {
          "internalType": "uint256[2]",
          "name": "rs",
          "type": "uint256[2]"
        }
      ],
      "name": "validate_prec",
      "outputs": [],
      "stateMutability": "nonpayable",
      "type": "function"
    }
  ],
  "bytecode": "0x60806040523480156200001157600080fd5b5060405162005c1c38038062005c1c833981810160405281019062000037919062001ac5565b620000ba6040518060400160405280601a81526020017f507265636f6d7075746520666f72205075626c6963206b65793a0000000000008152508260006002811062000088576200008762001af7565b5b602002015183600160028110620000a457620000a362001af7565b5b60200201516200013660201b620008a81760201c565b620000d081620001df60201b620009471760201c565b600190610100620000e39291906200177e565b506200012f6040518060400160405280601681526020017f507265636f6d707574652070617274203120646f6e650000000000000000000081525062000aac60201b620011091760201c565b5062001d49565b620001da838383604051602401620001519392919062001bc0565b6040516020818303038152906040527fca47c4eb000000000000000000000000000000000000000000000000000000007bffffffffffffffffffffffffffffffffffffffffffffffffffffffff19166020820180517bffffffffffffffffffffffffffffffffffffffffffffffffffffffff838183161783525050505062000b4f60201b60201c565b505050565b620001e9620017d7565b6000620001f562001809565b7f6b17d1f2e12c4247f8bce6e563a440f277037d812deb33a0f4a13945d898c296816000600881106200022d576200022c62001af7565b5b602002015160006002811062000248576200024762001af7565b5b6020020181815250507f4fe342e2fe1a7f9b8ee7eb4a7c0f9e162bce33576b315ececbb6406837bf51f58160006008811062000289576200028862001af7565b5b6020020151600160028110620002a457620002a362001af7565b5b60200201818152505083600060028110620002c457620002c362001af7565b5b602002015181600460088110620002e057620002df62001af7565b5b6020020151600060028110620002fb57620002fa62001af7565b5b602002018181525050836001600281106200031b576200031a62001af7565b5b60200201518160046008811062000337576200033662001af7565b5b602002015160016002811062000352576200035162001af7565b5b6020020181815250506000600190505b6004811015620007f257620004048260018362000380919062001c33565b6008811062000394576200039362001af7565b5b6020020151600060028110620003af57620003ae62001af7565b5b602002015183600184620003c4919062001c33565b60088110620003d857620003d762001af7565b5b6020020151600160028110620003f357620003f262001af7565b5b602002015162000b7860201b60201c565b8383600881106200041a576200041962001af7565b5b602002015160006002811062000435576200043462001af7565b5b602002018484600881106200044f576200044e62001af7565b5b60200201516001600281106200046a576200046962001af7565b5b602002018281525082815250505062000510826003836200048c919062001c6e565b60088110620004a0576200049f62001af7565b5b6020020151600060028110620004bb57620004ba62001af7565b5b602002015183600384620004d0919062001c6e565b60088110620004e457620004e362001af7565b5b6020020151600160028110620004ff57620004fe62001af7565b5b602002015162000b7860201b60201c565b8360048462000520919062001c6e565b6008811062000534576200053362001af7565b5b60200201516000600281106200054f576200054e62001af7565b5b602002018460048562000563919062001c6e565b6008811062000577576200057662001af7565b5b602002015160016002811062000592576200059162001af7565b5b602002018281525082815250505060005b603f811015620007db5762000629838360088110620005c757620005c662001af7565b5b6020020151600060028110620005e257620005e162001af7565b5b6020020151848460088110620005fd57620005fc62001af7565b5b602002015160016002811062000618576200061762001af7565b5b602002015162000b7860201b60201c565b8484600881106200063f576200063e62001af7565b5b60200201516000600281106200065a576200065962001af7565b5b6020020185856008811062000674576200067362001af7565b5b60200201516001600281106200068f576200068e62001af7565b5b60200201828152508281525050506200073583600484620006b1919062001c6e565b60088110620006c557620006c462001af7565b5b6020020151600060028110620006e057620006df62001af7565b5b602002015184600485620006f5919062001c6e565b6008811062000709576200070862001af7565b5b602002015160016002811062000724576200072362001af7565b5b602002015162000b7860201b60201c565b8460048562000745919062001c6e565b6008811062000759576200075862001af7565b5b602002015160006002811062000774576200077362001af7565b5b602002018560048662000788919062001c6e565b600881106200079c576200079b62001af7565b5b6020020151600160028110620007b757620007b662001af7565b5b60200201828152508281525050508080620007d29062001ca9565b915050620005a3565b508080620007e99062001ca9565b91505062000362565b50600083600061010081106200080d576200080c62001af7565b5b602002015160006002811062000828576200082762001af7565b5b602002018181525050600083600061010081106200084b576200084a62001af7565b5b602002015160016002811062000866576200086562001af7565b5b6020020181815250506000600190505b608081101562000aa45760008482610100811062000899576200089862001af7565b5b6020020151600060028110620008b457620008b362001af7565b5b602002018181525050600084826101008110620008d657620008d562001af7565b5b6020020151600160028110620008f157620008f062001af7565b5b60200201818152505060005b600881101562000a8d576000816001901b83161462000a775762000a0083826008811062000930576200092f62001af7565b5b60200201516000600281106200094b576200094a62001af7565b5b602002015184836008811062000966576200096562001af7565b5b602002015160016002811062000981576200098062001af7565b5b6020020151878561010081106200099d576200099c62001af7565b5b6020020151600060028110620009b857620009b762001af7565b5b602002015188866101008110620009d457620009d362001af7565b5b6020020151600160028110620009ef57620009ee62001af7565b5b602002015162000bbc60201b60201c565b8684610100811062000a175762000a1662001af7565b5b602002015160006002811062000a325762000a3162001af7565b5b602002018785610100811062000a4d5762000a4c62001af7565b5b602002015160016002811062000a685762000a6762001af7565b5b60200201828152508281525050505b808062000a849062001ca9565b915050620008fd565b50808062000a9b9062001ca9565b91505062000876565b505050919050565b62000b4c8160405160240162000ac3919062001cf6565b6040516020818303038152906040527f41304fac000000000000000000000000000000000000000000000000000000007bffffffffffffffffffffffffffffffffffffffffffffffffffffffff19166020820180517bffffffffffffffffffffffffffffffffffffffffffffffffffffffff838183161783525050505062000b4f60201b60201c565b50565b60008151905060006a636f6e736f6c652e6c6f679050602083016000808483855afa5050505050565b600080600062000b918585600162000c5960201b60201c565b80935081965082975050505062000bb0858583620011f060201b60201c565b92509250509250929050565b60008060008062000bd48888620012a060201b60201c565b1562000be857858593509350505062000c50565b62000bfa8686620012a060201b60201c565b1562000c0e57858593509350505062000c50565b62000c2588886001808a8a620012ad60201b60201c565b809450819550829a50839b505050505062000c4988888484620015b660201b60201c565b9350935050505b94509492505050565b600080600080600080600062000c778a8a8a620016d860201b60201c565b1562000c9d5762000c8d620016f860201b60201c565b96509650965050505050620011e7565b7fffffffff00000001000000000000000000000000ffffffffffffffffffffffff8062000ccf5762000cce62001d1a565b5b888a0992507fffffffff00000001000000000000000000000000ffffffffffffffffffffffff8062000d065762000d0562001d1a565b5b6002840992507fffffffff00000001000000000000000000000000ffffffffffffffffffffffff8062000d3e5762000d3d62001d1a565b5b8a840991507fffffffff00000001000000000000000000000000ffffffffffffffffffffffff8062000d755762000d7462001d1a565b5b89830991507fffffffff00000001000000000000000000000000ffffffffffffffffffffffff8062000dac5762000dab62001d1a565b5b6002830991507fffffffff00000001000000000000000000000000ffffffffffffffffffffffff8062000de45762000de362001d1a565b5b8a8b0999507fffffffff00000001000000000000000000000000ffffffffffffffffffffffff8062000e1b5762000e1a62001d1a565b5b60038b0993507fffffffff00000001000000000000000000000000ffffffffffffffffffffffff8062000e535762000e5262001d1a565b5b88890997507fffffffff00000001000000000000000000000000ffffffffffffffffffffffff8062000e8a5762000e8962001d1a565b5b7fffffffff00000001000000000000000000000000fffffffffffffffffffffffc890997507fffffffff00000001000000000000000000000000ffffffffffffffffffffffff8062000ee15762000ee062001d1a565b5b88850893507fffffffff00000001000000000000000000000000ffffffffffffffffffffffff8062000f185762000f1762001d1a565b5b84850990507fffffffff00000001000000000000000000000000ffffffffffffffffffffffff8062000f4f5762000f4e62001d1a565b5b8260020999507fffffffff00000001000000000000000000000000ffffffffffffffffffffffff8062000f875762000f8662001d1a565b5b8a7fffffffff00000001000000000000000000000000ffffffffffffffffffffffff03820890507fffffffff00000001000000000000000000000000ffffffffffffffffffffffff8062000fe05762000fdf62001d1a565b5b817fffffffff00000001000000000000000000000000ffffffffffffffffffffffff03830899507fffffffff00000001000000000000000000000000ffffffffffffffffffffffff8062001039576200103862001d1a565b5b8a850999507fffffffff00000001000000000000000000000000ffffffffffffffffffffffff8062001070576200106f62001d1a565b5b838a0998507fffffffff00000001000000000000000000000000ffffffffffffffffffffffff80620010a757620010a662001d1a565b5b898a0998507fffffffff00000001000000000000000000000000ffffffffffffffffffffffff80620010de57620010dd62001d1a565b5b8960020998507fffffffff00000001000000000000000000000000ffffffffffffffffffffffff8062001116576200111562001d1a565b5b897fffffffff00000001000000000000000000000000ffffffffffffffffffffffff038b0895507fffffffff00000001000000000000000000000000ffffffffffffffffffffffff806200116f576200116e62001d1a565b5b81840996507fffffffff00000001000000000000000000000000ffffffffffffffffffffffff80620011a657620011a562001d1a565b5b83840994507fffffffff00000001000000000000000000000000ffffffffffffffffffffffff80620011dd57620011dc62001d1a565b5b8386099450505050505b93509350939050565b600080600062001227847fffffffff00000001000000000000000000000000ffffffffffffffffffffffff6200170c60201b60201c565b90507fffffffff00000001000000000000000000000000ffffffffffffffffffffffff806200125b576200125a62001d1a565b5b81870992507fffffffff00000001000000000000000000000000ffffffffffffffffffffffff8062001292576200129162001d1a565b5b818609915050935093915050565b6000808214905092915050565b60008060008060008903620012cf5785856001809350935093509350620015a9565b887fffffffff00000001000000000000000000000000ffffffffffffffffffffffff0398507fffffffff00000001000000000000000000000000ffffffffffffffffffffffff897fffffffff00000001000000000000000000000000ffffffffffffffffffffffff8988090894507fffffffff00000001000000000000000000000000ffffffffffffffffffffffff8a7fffffffff00000001000000000000000000000000ffffffffffffffffffffffff037fffffffff00000001000000000000000000000000ffffffffffffffffffffffff8a89090895507fffffffff00000001000000000000000000000000ffffffffffffffffffffffff86870993507fffffffff00000001000000000000000000000000ffffffffffffffffffffffff86850992507fffffffff00000001000000000000000000000000ffffffffffffffffffffffff84890991507fffffffff00000001000000000000000000000000ffffffffffffffffffffffff83880990507fffffffff00000001000000000000000000000000ffffffffffffffffffffffff848b0997507fffffffff00000001000000000000000000000000ffffffffffffffffffffffff80897fffffffff00000001000000000000000000000000fffffffffffffffffffffffd097fffffffff00000001000000000000000000000000ffffffffffffffffffffffff857fffffffff00000001000000000000000000000000ffffffffffffffffffffffff037fffffffff00000001000000000000000000000000ffffffffffffffffffffffff898a09080893507fffffffff00000001000000000000000000000000ffffffffffffffffffffffff80848b097fffffffff00000001000000000000000000000000ffffffffffffffffffffffff877fffffffff00000001000000000000000000000000ffffffffffffffffffffffff887fffffffff00000001000000000000000000000000ffffffffffffffffffffffff038d08090892505b9650965096509692505050565b6000806000620015ed847fffffffff00000001000000000000000000000000ffffffffffffffffffffffff6200170c60201b60201c565b90507fffffffff00000001000000000000000000000000ffffffffffffffffffffffff8062001621576200162062001d1a565b5b818709915060007fffffffff00000001000000000000000000000000ffffffffffffffffffffffff806200165a576200165962001d1a565b5b82870990507fffffffff00000001000000000000000000000000ffffffffffffffffffffffff8062001691576200169062001d1a565b5b81820991507fffffffff00000001000000000000000000000000ffffffffffffffffffffffff80620016c857620016c762001d1a565b5b8289099350505094509492505050565b6000808303620016ec5760019050620016f1565b600090505b9392505050565b600080600080600080925092509250909192565b6000620017186200183a565b60208152602080820152602060408201528360608201527fffffffff00000001000000000000000000000000fffffffffffffffffffffffd60808201528260a082015260208160c08360006005600019f16200177357600080fd5b805191505092915050565b826101006002028101928215620017c4579160200282015b82811115620017c357825182906002620017b29291906200185c565b509160200191906002019062001796565b5b509050620017d39190620018a1565b5090565b604051806120000160405280610100905b620017f2620018c9565b815260200190600190039081620017e85790505090565b6040518061010001604052806008905b62001823620018c9565b815260200190600190039081620018195790505090565b6040518060c00160405280600690602082028036833780820191505090505090565b82600281019282156200188e579160200282015b828111156200188d57825182559160200191906001019062001870565b5b5090506200189d9190620018eb565b5090565b5b80821115620018c55760008181620018bb91906200190a565b50600201620018a2565b5090565b6040518060400160405280600290602082028036833780820191505090505090565b5b8082111562001906576000816000905550600101620018ec565b5090565b506000815560010160009055565b6000604051905090565b600080fd5b600080fd5b6000601f19601f8301169050919050565b7f4e487b7100000000000000000000000000000000000000000000000000000000600052604160045260246000fd5b62001977826200192c565b810181811067ffffffffffffffff821117156200199957620019986200193d565b5b80604052505050565b6000620019ae62001918565b9050620019bc82826200196c565b919050565b600067ffffffffffffffff821115620019df57620019de6200193d565b5b602082029050919050565b600080fd5b6000819050919050565b62001a0481620019ef565b811462001a1057600080fd5b50565b60008151905062001a2481620019f9565b92915050565b600062001a4162001a3b84620019c1565b620019a2565b9050806020840283018581111562001a5e5762001a5d620019ea565b5b835b8181101562001a8b578062001a76888262001a13565b84526020840193505060208101905062001a60565b5050509392505050565b600082601f83011262001aad5762001aac62001927565b5b600262001abc84828562001a2a565b91505092915050565b60006040828403121562001ade5762001add62001922565b5b600062001aee8482850162001a95565b91505092915050565b7f4e487b7100000000000000000000000000000000000000000000000000000000600052603260045260246000fd5b600081519050919050565b600082825260208201905092915050565b60005b8381101562001b6257808201518184015260208101905062001b45565b60008484015250505050565b600062001b7b8262001b26565b62001b87818562001b31565b935062001b9981856020860162001b42565b62001ba4816200192c565b840191505092915050565b62001bba81620019ef565b82525050565b6000606082019050818103600083015262001bdc818662001b6e565b905062001bed602083018562001baf565b62001bfc604083018462001baf565b949350505050565b7f4e487b7100000000000000000000000000000000000000000000000000000000600052601160045260246000fd5b600062001c4082620019ef565b915062001c4d83620019ef565b925082820390508181111562001c685762001c6762001c04565b5b92915050565b600062001c7b82620019ef565b915062001c8883620019ef565b925082820190508082111562001ca35762001ca262001c04565b5b92915050565b600062001cb682620019ef565b91507fffffffffffffffffffffffffffffffffffffffffffffffffffffffffffffffff820362001ceb5762001cea62001c04565b5b600182019050919050565b6000602082019050818103600083015262001d12818462001b6e565b905092915050565b7f4e487b7100000000000000000000000000000000000000000000000000000000600052601260045260246000fd5b613ec38062001d596000396000f3fe608060405234801561001057600080fd5b50600436106100575760003560e01c8063165b38141461005c57806361bc221a1461008c578063642e54dd146100aa578063912fe272146100da5780639f36b8fd1461010a575b600080fd5b610076600480360381019061007191906132d3565b610126565b6040516100839190613322565b60405180910390f35b610094610155565b6040516100a19190613322565b60405180910390f35b6100c460048036038101906100bf9190613484565b61015b565b6040516100d191906135f9565b60405180910390f35b6100f460048036038101906100ef919061380a565b610479565b6040516101019190613900565b60405180910390f35b610124600480360381019061011f919061391b565b6107ce565b005b600182610100811061013757600080fd5b60020201816002811061014957600080fd5b01600091509150505481565b60005481565b6101636131ba565b600061016e836111a2565b90506000608090505b61010081101561025657816080820360808110610197576101966139e0565b5b60200201516000600281106101af576101ae6139e0565b5b602002015160018261010081106101c9576101c86139e0565b5b600202016000600281106101e0576101df6139e0565b5b01819055508160808203608081106101fb576101fa6139e0565b5b6020020151600160028110610213576102126139e0565b5b6020020151600182610100811061022d5761022c6139e0565b5b60020201600160028110610244576102436139e0565b5b01819055508080600101915050610177565b506102956040518060400160405280601781526020017f507265636f6d707574652070617274203220646f6e653a000000000000000000815250611109565b5060005b6101008110156103fa576103456040518060400160405280600181526020017f220000000000000000000000000000000000000000000000000000000000000081525060018361010081106102f1576102f06139e0565b5b60020201600060028110610308576103076139e0565b5b01546040518060400160405280600281526020017f222c0000000000000000000000000000000000000000000000000000000000008152506119a5565b6103e76040518060400160405280600181526020017f22000000000000000000000000000000000000000000000000000000000000008152506001836101008110610393576103926139e0565b5b600202016001600281106103aa576103a96139e0565b5b01546040518060400160405280600281526020017f222c0000000000000000000000000000000000000000000000000000000000008152506119a5565b80806103f290613a3e565b915050610299565b50600161010080602002604051908101604052809291906000905b8282101561046e5783826002020160028060200260405190810160405280929190826002801561045a576020028201915b815481526020019060010190808311610446575b505050505081526020019060010190610415565b505050509050919050565b6000867effffffffffffffffffffffffffffffffffffffffffffffffffffffffffffff191687896020815181106104b3576104b26139e0565b5b602001015160f81c60f81b167effffffffffffffffffffffffffffffffffffffffffffffffffffffffffffff191614610518576040517ffc93479200000000000000000000000000000000000000000000000000000000815260040160405180910390fd5b60006105428660405160200161052e9190613aa7565b604051602081830303815290604052611a44565b90506000815167ffffffffffffffff81111561056157610560613353565b5b6040519080825280601f01601f1916602001820160405280156105935781602001600182028036833780820191505090505b5090506105a588878351846000611b7d565b50806040516020016105b79190613b33565b60405160208183030381529060405280519060200120826040516020016105de9190613b33565b604051602081830303815290604052805190602001201461062b576040517febab5d2900000000000000000000000000000000000000000000000000000000815260040160405180910390fd5b600060208b5161063b9190613b4a565b67ffffffffffffffff81111561065457610653613353565b5b6040519080825280601f01601f1916602001820160405280156106865781602001600182028036833780820191505090505b5090506106998b60008d51846000611b7d565b5061071860028a6040516106ad9190613b33565b602060405180830381855afa1580156106ca573d6000803e3d6000fd5b5050506040513d601f19601f820116820180604052508101906106ed9190613b93565b6040516020016106fd9190613aa7565b60405160208183030381529060405260006020848f51611b7d565b50600060028260405161072b9190613b33565b602060405180830381855afa158015610748573d6000803e3d6000fd5b5050506040513d601f19601f8201168201806040525081019061076b9190613b93565b9050600061077a828989611c1b565b90506107bb6040518060400160405280600a81526020017f726573756c743d2025730000000000000000000000000000000000000000000081525082611eb4565b8095505050505050979650505050505050565b610853868686868686600161010080602002604051908101604052809291906000905b8282101561084a57838260020201600280602002604051908101604052809291908260028015610836576020028201915b815481526020019060010190808311610822575b5050505050815260200190600101906107f1565b50505050610479565b610889576040517f8baa579f00000000000000000000000000000000000000000000000000000000815260040160405180910390fd5b60008081548092919061089b90613a3e565b9190505550505050505050565b6109428383836040516024016108c093929190613c15565b6040516020818303038152906040527fca47c4eb000000000000000000000000000000000000000000000000000000007bffffffffffffffffffffffffffffffffffffffffffffffffffffffff19166020820180517bffffffffffffffffffffffffffffffffffffffffffffffffffffffff8381831617835250505050611f50565b505050565b61094f6131ba565b60006109596131e9565b7f6b17d1f2e12c4247f8bce6e563a440f277037d812deb33a0f4a13945d898c2968160006008811061098e5761098d6139e0565b5b60200201516000600281106109a6576109a56139e0565b5b6020020181815250507f4fe342e2fe1a7f9b8ee7eb4a7c0f9e162bce33576b315ececbb6406837bf51f5816000600881106109e4576109e36139e0565b5b60200201516001600281106109fc576109fb6139e0565b5b60200201818152505083600060028110610a1957610a186139e0565b5b602002015181600460088110610a3257610a316139e0565b5b6020020151600060028110610a4a57610a496139e0565b5b60200201818152505083600160028110610a6757610a666139e0565b5b602002015181600460088110610a8057610a7f6139e0565b5b6020020151600160028110610a9857610a976139e0565b5b6020020181815250506000600190505b6004811015610e9c57610b3182600183610ac29190613c53565b60088110610ad357610ad26139e0565b5b6020020151600060028110610aeb57610aea6139e0565b5b602002015183600184610afe9190613c53565b60088110610b0f57610b0e6139e0565b5b6020020151600160028110610b2757610b266139e0565b5b6020020151611f79565b838360088110610b4457610b436139e0565b5b6020020151600060028110610b5c57610b5b6139e0565b5b60200201848460088110610b7357610b726139e0565b5b6020020151600160028110610b8b57610b8a6139e0565b5b6020020182815250828152505050610c1982600383610baa9190613b4a565b60088110610bbb57610bba6139e0565b5b6020020151600060028110610bd357610bd26139e0565b5b602002015183600384610be69190613b4a565b60088110610bf757610bf66139e0565b5b6020020151600160028110610c0f57610c0e6139e0565b5b6020020151611f79565b83600484610c279190613b4a565b60088110610c3857610c376139e0565b5b6020020151600060028110610c5057610c4f6139e0565b5b6020020184600485610c629190613b4a565b60088110610c7357610c726139e0565b5b6020020151600160028110610c8b57610c8a6139e0565b5b602002018281525082815250505060005b603f811015610e8857610d0d838360088110610cbb57610cba6139e0565b5b6020020151600060028110610cd357610cd26139e0565b5b6020020151848460088110610ceb57610cea6139e0565b5b6020020151600160028110610d0357610d026139e0565b5b6020020151611f79565b848460088110610d2057610d1f6139e0565b5b6020020151600060028110610d3857610d376139e0565b5b60200201858560088110610d4f57610d4e6139e0565b5b6020020151600160028110610d6757610d666139e0565b5b6020020182815250828152505050610df583600484610d869190613b4a565b60088110610d9757610d966139e0565b5b6020020151600060028110610daf57610dae6139e0565b5b602002015184600485610dc29190613b4a565b60088110610dd357610dd26139e0565b5b6020020151600160028110610deb57610dea6139e0565b5b6020020151611f79565b84600485610e039190613b4a565b60088110610e1457610e136139e0565b5b6020020151600060028110610e2c57610e2b6139e0565b5b6020020185600486610e3e9190613b4a565b60088110610e4f57610e4e6139e0565b5b6020020151600160028110610e6757610e666139e0565b5b60200201828152508281525050508080610e8090613a3e565b915050610c9c565b508080610e9490613a3e565b915050610aa8565b5060008360006101008110610eb457610eb36139e0565b5b6020020151600060028110610ecc57610ecb6139e0565b5b60200201818152505060008360006101008110610eec57610eeb6139e0565b5b6020020151600160028110610f0457610f036139e0565b5b6020020181815250506000600190505b608081101561110157600084826101008110610f3357610f326139e0565b5b6020020151600060028110610f4b57610f4a6139e0565b5b602002018181525050600084826101008110610f6a57610f696139e0565b5b6020020151600160028110610f8257610f816139e0565b5b60200201818152505060005b60088110156110ed576000816001901b8316146110da5761106f838260088110610fbb57610fba6139e0565b5b6020020151600060028110610fd357610fd26139e0565b5b6020020151848360088110610feb57610fea6139e0565b5b6020020151600160028110611003576110026139e0565b5b60200201518785610100811061101c5761101b6139e0565b5b6020020151600060028110611034576110336139e0565b5b60200201518886610100811061104d5761104c6139e0565b5b6020020151600160028110611065576110646139e0565b5b6020020151611fad565b86846101008110611083576110826139e0565b5b602002015160006002811061109b5761109a6139e0565b5b60200201878561010081106110b3576110b26139e0565b5b60200201516001600281106110cb576110ca6139e0565b5b60200201828152508281525050505b80806110e590613a3e565b915050610f8e565b5080806110f990613a3e565b915050610f14565b505050919050565b61119f8160405160240161111d9190613c87565b6040516020818303038152906040527f41304fac000000000000000000000000000000000000000000000000000000007bffffffffffffffffffffffffffffffffffffffffffffffffffffffff19166020820180517bffffffffffffffffffffffffffffffffffffffffffffffffffffffff8381831617835250505050611f50565b50565b6111aa613217565b60006111b46131e9565b7f6b17d1f2e12c4247f8bce6e563a440f277037d812deb33a0f4a13945d898c296816000600881106111e9576111e86139e0565b5b6020020151600060028110611201576112006139e0565b5b6020020181815250507f4fe342e2fe1a7f9b8ee7eb4a7c0f9e162bce33576b315ececbb6406837bf51f58160006008811061123f5761123e6139e0565b5b6020020151600160028110611257576112566139e0565b5b60200201818152505083600060028110611274576112736139e0565b5b60200201518160046008811061128d5761128c6139e0565b5b60200201516000600281106112a5576112a46139e0565b5b602002018181525050836001600281106112c2576112c16139e0565b5b6020020151816004600881106112db576112da6139e0565b5b60200201516001600281106112f3576112f26139e0565b5b6020020181815250506000600190505b60048110156116f75761138c8260018361131d9190613c53565b6008811061132e5761132d6139e0565b5b6020020151600060028110611346576113456139e0565b5b6020020151836001846113599190613c53565b6008811061136a576113696139e0565b5b6020020151600160028110611382576113816139e0565b5b6020020151611f79565b83836008811061139f5761139e6139e0565b5b60200201516000600281106113b7576113b66139e0565b5b602002018484600881106113ce576113cd6139e0565b5b60200201516001600281106113e6576113e56139e0565b5b6020020182815250828152505050611474826003836114059190613b4a565b60088110611416576114156139e0565b5b602002015160006002811061142e5761142d6139e0565b5b6020020151836003846114419190613b4a565b60088110611452576114516139e0565b5b602002015160016002811061146a576114696139e0565b5b6020020151611f79565b836004846114829190613b4a565b60088110611493576114926139e0565b5b60200201516000600281106114ab576114aa6139e0565b5b60200201846004856114bd9190613b4a565b600881106114ce576114cd6139e0565b5b60200201516001600281106114e6576114e56139e0565b5b602002018281525082815250505060005b603f8110156116e357611568838360088110611516576115156139e0565b5b602002015160006002811061152e5761152d6139e0565b5b6020020151848460088110611546576115456139e0565b5b602002015160016002811061155e5761155d6139e0565b5b6020020151611f79565b84846008811061157b5761157a6139e0565b5b6020020151600060028110611593576115926139e0565b5b602002018585600881106115aa576115a96139e0565b5b60200201516001600281106115c2576115c16139e0565b5b6020020182815250828152505050611650836004846115e19190613b4a565b600881106115f2576115f16139e0565b5b602002015160006002811061160a576116096139e0565b5b60200201518460048561161d9190613b4a565b6008811061162e5761162d6139e0565b5b6020020151600160028110611646576116456139e0565b5b6020020151611f79565b8460048561165e9190613b4a565b6008811061166f5761166e6139e0565b5b6020020151600060028110611687576116866139e0565b5b60200201856004866116999190613b4a565b600881106116aa576116a96139e0565b5b60200201516001600281106116c2576116c16139e0565b5b602002018281525082815250505080806116db90613a3e565b9150506114f7565b5080806116ef90613a3e565b915050611303565b5060008360006080811061170e5761170d6139e0565b5b6020020151600060028110611726576117256139e0565b5b602002018181525050600083600060808110611745576117446139e0565b5b602002015160016002811061175d5761175c6139e0565b5b6020020181815250506000608090505b61010081101561199d576000846080836117879190613c53565b60808110611798576117976139e0565b5b60200201516000600281106117b0576117af6139e0565b5b6020020181815250506000846080836117c99190613c53565b608081106117da576117d96139e0565b5b60200201516001600281106117f2576117f16139e0565b5b60200201818152505060005b6008811015611989576000816001901b831614611976576118f583826008811061182b5761182a6139e0565b5b6020020151600060028110611843576118426139e0565b5b602002015184836008811061185b5761185a6139e0565b5b6020020151600160028110611873576118726139e0565b5b6020020151876080866118869190613c53565b60808110611897576118966139e0565b5b60200201516000600281106118af576118ae6139e0565b5b6020020151886080876118c29190613c53565b608081106118d3576118d26139e0565b5b60200201516001600281106118eb576118ea6139e0565b5b6020020151611fad565b866080856119039190613c53565b60808110611914576119136139e0565b5b602002015160006002811061192c5761192b6139e0565b5b602002018760808661193e9190613c53565b6080811061194f5761194e6139e0565b5b6020020151600160028110611967576119666139e0565b5b60200201828152508281525050505b808061198190613a3e565b9150506117fe565b50808061199590613a3e565b91505061176d565b505050919050565b611a3f8383836040516024016119bd93929190613ca9565b6040516020818303038152906040527f5970e089000000000000000000000000000000000000000000000000000000007bffffffffffffffffffffffffffffffffffffffffffffffffffffffff19166020820180517bffffffffffffffffffffffffffffffffffffffffffffffffffffffff8381831617835250505050611f50565b505050565b60606000825103611a6657604051806020016040528060008152509050611b78565b6000604051806060016040528060408152602001613e4e60409139905060006001600360028651611a979190613b4a565b611aa19190613d1d565b6004611aad9190613d4e565b611ab79190613c53565b67ffffffffffffffff811115611ad057611acf613353565b5b6040519080825280601f01601f191660200182016040528015611b025781602001600182028036833780820191505090505b509050600182016020820185865187015b80821015611b6e576003820191508151603f8160121c168501518453600184019350603f81600c1c168501518453600184019350603f8160061c168501518453600184019350603f8116850151845360018401935050611b13565b5050505080925050505b919050565b606060008285611b8d9190613b4a565b90508084511015611b9d57600080fd5b6000866020611bac9190613b4a565b90506000846020611bbd9190613b4a565b90505b86886020611bce9190613b4a565b611bd89190613b4a565b821015611c0c5781890151808288015250602082611bf69190613b4a565b9150602081611c059190613b4a565b9050611bc0565b85935050505095945050505050565b6000611c25613245565b8260046101008110611c3a57611c396139e0565b5b6020020151600060028110611c5257611c516139e0565b5b602002015181600060028110611c6b57611c6a6139e0565b5b6020020181815250508260046101008110611c8957611c886139e0565b5b6020020151600160028110611ca157611ca06139e0565b5b602002015181600160028110611cba57611cb96139e0565b5b602002018181525050600084600060028110611cd957611cd86139e0565b5b60200201511480611d2257507fffffffff00000000ffffffffffffffffbce6faada7179e84f3b9cac2fc63255184600060028110611d1a57611d196139e0565b5b602002015110155b80611d455750600084600160028110611d3e57611d3d6139e0565b5b6020020151145b15611d54576000915050611ead565b6000611d9885600160028110611d6d57611d6c6139e0565b5b60200201517fffffffff00000000ffffffffffffffffbce6faada7179e84f3b9cac2fc632551612026565b905060007fffffffff00000000ffffffffffffffffbce6faada7179e84f3b9cac2fc63255180611dcb57611dca613cee565b5b828860001c09905060007fffffffff00000000ffffffffffffffffbce6faada7179e84f3b9cac2fc63255180611e0457611e03613cee565b5b8388600060028110611e1957611e186139e0565b5b6020020151099050600080600080611e3286868c612095565b8093508195505050611e5c6040518060600160405280602c8152602001613e22602c9139856123ec565b8a600060028110611e7057611e6f6139e0565b5b60200201517fffffffff00000000ffffffffffffffffbce6faada7179e84f3b9cac2fc63255185611ea19190613d90565b14985050505050505050505b9392505050565b611f4c8282604051602401611eca929190613dc1565b6040516020818303038152906040527fc3b55635000000000000000000000000000000000000000000000000000000007bffffffffffffffffffffffffffffffffffffffffffffffffffffffff19166020820180517bffffffffffffffffffffffffffffffffffffffffffffffffffffffff8381831617835250505050611f50565b5050565b60008151905060006a636f6e736f6c652e6c6f679050602083016000808483855afa5050505050565b6000806000611f8a85856001612488565b809350819650829750505050611fa18585836129cb565b92509250509250929050565b600080600080611fbd8888612a6d565b15611fcf57858593509350505061201d565b611fd98686612a6d565b15611feb57858593509350505061201d565b611ffa88886001808a8a612a7a565b809450819550829a50839b505050505061201688888484612d81565b9350935050505b94509492505050565b6000612030613267565b60208152602080820152602060408201528360608201527fffffffff00000000ffffffffffffffffbce6faada7179e84f3b9cac2fc63254f60808201528260a082015260208160c08360006005600019f161208a57600080fd5b805191505092915050565b60008060008060ff90506120a7613245565b600160c0830389901c166001026001608084038a901c166002026001604085038b901c166004026001858c901c16600802600160c087038c901c166010026001608088038d901c166020026001604089038e901c166040026001898f901c1660800201010101010101925085836101008110612126576121256139e0565b5b602002015160006002811061213e5761213d6139e0565b5b602002015186846101008110612157576121566139e0565b5b602002015160016002811061216f5761216e6139e0565b5b60200201516001808460006002811061218b5761218a6139e0565b5b60200201856001600281106121a3576121a26139e0565b5b6020020182815250828152508297508398505050505060fe91505b60c0821061239d576122028585836000600281106121df576121de6139e0565b5b6020020151846001600281106121f8576121f76139e0565b5b6020020151612e8f565b84600060028110612216576122156139e0565b5b602002018560016002811061222e5761222d6139e0565b5b60200201828152508281525082975083985050505050600160c0830389901c166001026001608084038a901c166002026001604085038b901c166004026001858c901c16600802600160c087038c901c166010026001608088038d901c166020026001604089038e901c166040026001898f901c1660800201010101010101925061234d8585836000600281106122c8576122c76139e0565b5b6020020151846001600281106122e1576122e06139e0565b5b60200201518a8861010081106122fa576122f96139e0565b5b6020020151600060028110612312576123116139e0565b5b60200201518b89610100811061232b5761232a6139e0565b5b6020020151600160028110612343576123426139e0565b5b6020020151612a7a565b84600060028110612361576123606139e0565b5b6020020185600160028110612379576123786139e0565b5b602002018281525082815250829750839850505050508180600190039250506121be565b6123d98585836000600281106123b6576123b56139e0565b5b6020020151846001600281106123cf576123ce6139e0565b5b6020020151612d81565b8095508196505050505050935093915050565b6124848282604051602401612402929190613df1565b6040516020818303038152906040527fb60e72cc000000000000000000000000000000000000000000000000000000007bffffffffffffffffffffffffffffffffffffffffffffffffffffffff19166020820180517bffffffffffffffffffffffffffffffffffffffffffffffffffffffff8381831617835250505050611f50565b5050565b600080600080600080600061249e8a8a8a613119565b156124ba576124ab613137565b965096509650505050506129c2565b7fffffffff00000001000000000000000000000000ffffffffffffffffffffffff806124e9576124e8613cee565b5b888a0992507fffffffff00000001000000000000000000000000ffffffffffffffffffffffff8061251d5761251c613cee565b5b6002840992507fffffffff00000001000000000000000000000000ffffffffffffffffffffffff8061255257612551613cee565b5b8a840991507fffffffff00000001000000000000000000000000ffffffffffffffffffffffff8061258657612585613cee565b5b89830991507fffffffff00000001000000000000000000000000ffffffffffffffffffffffff806125ba576125b9613cee565b5b6002830991507fffffffff00000001000000000000000000000000ffffffffffffffffffffffff806125ef576125ee613cee565b5b8a8b0999507fffffffff00000001000000000000000000000000ffffffffffffffffffffffff8061262357612622613cee565b5b60038b0993507fffffffff00000001000000000000000000000000ffffffffffffffffffffffff8061265857612657613cee565b5b88890997507fffffffff00000001000000000000000000000000ffffffffffffffffffffffff8061268c5761268b613cee565b5b7fffffffff00000001000000000000000000000000fffffffffffffffffffffffc890997507fffffffff00000001000000000000000000000000ffffffffffffffffffffffff806126e0576126df613cee565b5b88850893507fffffffff00000001000000000000000000000000ffffffffffffffffffffffff8061271457612713613cee565b5b84850990507fffffffff00000001000000000000000000000000ffffffffffffffffffffffff8061274857612747613cee565b5b8260020999507fffffffff00000001000000000000000000000000ffffffffffffffffffffffff8061277d5761277c613cee565b5b8a7fffffffff00000001000000000000000000000000ffffffffffffffffffffffff03820890507fffffffff00000001000000000000000000000000ffffffffffffffffffffffff806127d3576127d2613cee565b5b817fffffffff00000001000000000000000000000000ffffffffffffffffffffffff03830899507fffffffff00000001000000000000000000000000ffffffffffffffffffffffff8061282957612828613cee565b5b8a850999507fffffffff00000001000000000000000000000000ffffffffffffffffffffffff8061285d5761285c613cee565b5b838a0998507fffffffff00000001000000000000000000000000ffffffffffffffffffffffff8061289157612890613cee565b5b898a0998507fffffffff00000001000000000000000000000000ffffffffffffffffffffffff806128c5576128c4613cee565b5b8960020998507fffffffff00000001000000000000000000000000ffffffffffffffffffffffff806128fa576128f9613cee565b5b897fffffffff00000001000000000000000000000000ffffffffffffffffffffffff038b0895507fffffffff00000001000000000000000000000000ffffffffffffffffffffffff806129505761294f613cee565b5b81840996507fffffffff00000001000000000000000000000000ffffffffffffffffffffffff8061298457612983613cee565b5b83840994507fffffffff00000001000000000000000000000000ffffffffffffffffffffffff806129b8576129b7613cee565b5b8386099450505050505b93509350939050565b60008060006129fa847fffffffff00000001000000000000000000000000ffffffffffffffffffffffff61314b565b90507fffffffff00000001000000000000000000000000ffffffffffffffffffffffff80612a2b57612a2a613cee565b5b81870992507fffffffff00000001000000000000000000000000ffffffffffffffffffffffff80612a5f57612a5e613cee565b5b818609915050935093915050565b6000808214905092915050565b60008060008060008903612a9a5785856001809350935093509350612d74565b887fffffffff00000001000000000000000000000000ffffffffffffffffffffffff0398507fffffffff00000001000000000000000000000000ffffffffffffffffffffffff897fffffffff00000001000000000000000000000000ffffffffffffffffffffffff8988090894507fffffffff00000001000000000000000000000000ffffffffffffffffffffffff8a7fffffffff00000001000000000000000000000000ffffffffffffffffffffffff037fffffffff00000001000000000000000000000000ffffffffffffffffffffffff8a89090895507fffffffff00000001000000000000000000000000ffffffffffffffffffffffff86870993507fffffffff00000001000000000000000000000000ffffffffffffffffffffffff86850992507fffffffff00000001000000000000000000000000ffffffffffffffffffffffff84890991507fffffffff00000001000000000000000000000000ffffffffffffffffffffffff83880990507fffffffff00000001000000000000000000000000ffffffffffffffffffffffff848b0997507fffffffff00000001000000000000000000000000ffffffffffffffffffffffff80897fffffffff00000001000000000000000000000000fffffffffffffffffffffffd097fffffffff00000001000000000000000000000000ffffffffffffffffffffffff857fffffffff00000001000000000000000000000000ffffffffffffffffffffffff037fffffffff00000001000000000000000000000000ffffffffffffffffffffffff898a09080893507fffffffff00000001000000000000000000000000ffffffffffffffffffffffff80848b097fffffffff00000001000000000000000000000000ffffffffffffffffffffffff877fffffffff00000001000000000000000000000000ffffffffffffffffffffffff887fffffffff00000001000000000000000000000000ffffffffffffffffffffffff038d08090892505b9650965096509692505050565b6000806000612db0847fffffffff00000001000000000000000000000000ffffffffffffffffffffffff61314b565b90507fffffffff00000001000000000000000000000000ffffffffffffffffffffffff80612de157612de0613cee565b5b818709915060007fffffffff00000001000000000000000000000000ffffffffffffffffffffffff80612e1757612e16613cee565b5b82870990507fffffffff00000001000000000000000000000000ffffffffffffffffffffffff80612e4b57612e4a613cee565b5b81820991507fffffffff00000001000000000000000000000000ffffffffffffffffffffffff80612e7f57612e7e613cee565b5b8289099350505094509492505050565b6000806000807fffffffff00000001000000000000000000000000ffffffffffffffffffffffff8760020993507fffffffff00000001000000000000000000000000ffffffffffffffffffffffff84850991507fffffffff00000001000000000000000000000000ffffffffffffffffffffffff82890990507fffffffff00000001000000000000000000000000ffffffffffffffffffffffff82850992507fffffffff00000001000000000000000000000000ffffffffffffffffffffffff86830991507fffffffff00000001000000000000000000000000ffffffffffffffffffffffff807fffffffff00000001000000000000000000000000ffffffffffffffffffffffff888b087fffffffff00000001000000000000000000000000ffffffffffffffffffffffff897fffffffff00000001000000000000000000000000ffffffffffffffffffffffff038c080960030995507fffffffff00000001000000000000000000000000ffffffffffffffffffffffff80827fffffffff00000001000000000000000000000000fffffffffffffffffffffffd097fffffffff00000001000000000000000000000000ffffffffffffffffffffffff8889090893507fffffffff00000001000000000000000000000000ffffffffffffffffffffffff80857fffffffff00000001000000000000000000000000ffffffffffffffffffffffff038308870997507fffffffff00000001000000000000000000000000ffffffffffffffffffffffff85840990507fffffffff00000001000000000000000000000000ffffffffffffffffffffffff808885097fffffffff00000001000000000000000000000000ffffffffffffffffffffffff0389089250945094509450949050565b600080830361312b5760019050613130565b600090505b9392505050565b600080600080600080925092509250909192565b6000613155613267565b60208152602080820152602060408201528360608201527fffffffff00000001000000000000000000000000fffffffffffffffffffffffd60808201528260a082015260208160c08360006005600019f16131af57600080fd5b805191505092915050565b604051806120000160405280610100905b6131d3613245565b8152602001906001900390816131cb5790505090565b6040518061010001604052806008905b613201613245565b8152602001906001900390816131f95790505090565b6040518061100001604052806080905b61322f613245565b8152602001906001900390816132275790505090565b6040518060400160405280600290602082028036833780820191505090505090565b6040518060c00160405280600690602082028036833780820191505090505090565b6000604051905090565b600080fd5b600080fd5b6000819050919050565b6132b08161329d565b81146132bb57600080fd5b50565b6000813590506132cd816132a7565b92915050565b600080604083850312156132ea576132e9613293565b5b60006132f8858286016132be565b9250506020613309858286016132be565b9150509250929050565b61331c8161329d565b82525050565b60006020820190506133376000830184613313565b92915050565b600080fd5b6000601f19601f8301169050919050565b7f4e487b7100000000000000000000000000000000000000000000000000000000600052604160045260246000fd5b61338b82613342565b810181811067ffffffffffffffff821117156133aa576133a9613353565b5b80604052505050565b60006133bd613289565b90506133c98282613382565b919050565b600067ffffffffffffffff8211156133e9576133e8613353565b5b602082029050919050565b600080fd5b600061340c613407846133ce565b6133b3565b90508060208402830185811115613426576134256133f4565b5b835b8181101561344f578061343b88826132be565b845260208401935050602081019050613428565b5050509392505050565b600082601f83011261346e5761346d61333d565b5b600261347b8482856133f9565b91505092915050565b60006040828403121561349a57613499613293565b5b60006134a884828501613459565b91505092915050565b60006101009050919050565b600081905092915050565b6000819050919050565b600060029050919050565b600081905092915050565b6000819050919050565b6134fb8161329d565b82525050565b600061350d83836134f2565b60208301905092915050565b6000602082019050919050565b61352f816134d2565b61353981846134dd565b9250613544826134e8565b8060005b8381101561357557815161355c8782613501565b965061356783613519565b925050600181019050613548565b505050505050565b60006135898383613526565b60408301905092915050565b6000602082019050919050565b6135ab816134b1565b6135b581846134bd565b92506135c0826134c8565b8060005b838110156135f15781516135d8878261357d565b96506135e383613595565b9250506001810190506135c4565b505050505050565b60006140008201905061360f60008301846135a2565b92915050565b600080fd5b600067ffffffffffffffff82111561363557613634613353565b5b61363e82613342565b9050602081019050919050565b82818337600083830152505050565b600061366d6136688461361a565b6133b3565b90508281526020810184848401111561368957613688613615565b5b61369484828561364b565b509392505050565b600082601f8301126136b1576136b061333d565b5b81356136c184826020860161365a565b91505092915050565b60007fff0000000000000000000000000000000000000000000000000000000000000082169050919050565b6136ff816136ca565b811461370a57600080fd5b50565b60008135905061371c816136f6565b92915050565b6000819050919050565b61373581613722565b811461374057600080fd5b50565b6000813590506137528161372c565b92915050565b600067ffffffffffffffff82111561377357613772613353565b5b602082029050919050565b600061379161378c84613758565b6133b3565b905080604084028301858111156137ab576137aa6133f4565b5b835b818110156137d457806137c08882613459565b8452602084019350506040810190506137ad565b5050509392505050565b600082601f8301126137f3576137f261333d565b5b61010061380184828561377e565b91505092915050565b60008060008060008060006140e0888a03121561382a57613829613293565b5b600088013567ffffffffffffffff81111561384857613847613298565b5b6138548a828b0161369c565b97505060206138658a828b0161370d565b965050604088013567ffffffffffffffff81111561388657613885613298565b5b6138928a828b0161369c565b95505060606138a38a828b01613743565b94505060806138b48a828b016132be565b93505060a06138c58a828b01613459565b92505060e06138d68a828b016137de565b91505092959891949750929550565b60008115159050919050565b6138fa816138e5565b82525050565b600060208201905061391560008301846138f1565b92915050565b60008060008060008060e0878903121561393857613937613293565b5b600087013567ffffffffffffffff81111561395657613955613298565b5b61396289828a0161369c565b965050602061397389828a0161370d565b955050604087013567ffffffffffffffff81111561399457613993613298565b5b6139a089828a0161369c565b94505060606139b189828a01613743565b93505060806139c289828a016132be565b92505060a06139d389828a01613459565b9150509295509295509295565b7f4e487b7100000000000000000000000000000000000000000000000000000000600052603260045260246000fd5b7f4e487b7100000000000000000000000000000000000000000000000000000000600052601160045260246000fd5b6000613a498261329d565b91507fffffffffffffffffffffffffffffffffffffffffffffffffffffffffffffffff8203613a7b57613a7a613a0f565b5b600182019050919050565b6000819050919050565b613aa1613a9c82613722565b613a86565b82525050565b6000613ab38284613a90565b60208201915081905092915050565b600081519050919050565b600081905092915050565b60005b83811015613af6578082015181840152602081019050613adb565b60008484015250505050565b6000613b0d82613ac2565b613b178185613acd565b9350613b27818560208601613ad8565b80840191505092915050565b6000613b3f8284613b02565b915081905092915050565b6000613b558261329d565b9150613b608361329d565b9250828201905080821115613b7857613b77613a0f565b5b92915050565b600081519050613b8d8161372c565b92915050565b600060208284031215613ba957613ba8613293565b5b6000613bb784828501613b7e565b91505092915050565b600081519050919050565b600082825260208201905092915050565b6000613be782613bc0565b613bf18185613bcb565b9350613c01818560208601613ad8565b613c0a81613342565b840191505092915050565b60006060820190508181036000830152613c2f8186613bdc565b9050613c3e6020830185613313565b613c4b6040830184613313565b949350505050565b6000613c5e8261329d565b9150613c698361329d565b9250828203905081811115613c8157613c80613a0f565b5b92915050565b60006020820190508181036000830152613ca18184613bdc565b905092915050565b60006060820190508181036000830152613cc38186613bdc565b9050613cd26020830185613313565b8181036040830152613ce48184613bdc565b9050949350505050565b7f4e487b7100000000000000000000000000000000000000000000000000000000600052601260045260246000fd5b6000613d288261329d565b9150613d338361329d565b925082613d4357613d42613cee565b5b828204905092915050565b6000613d598261329d565b9150613d648361329d565b9250828202613d728161329d565b91508282048414831517613d8957613d88613a0f565b5b5092915050565b6000613d9b8261329d565b9150613da68361329d565b925082613db657613db5613cee565b5b828206905092915050565b60006040820190508181036000830152613ddb8185613bdc565b9050613dea60208301846138f1565b9392505050565b60006040820190508181036000830152613e0b8185613bdc565b9050613e1a6020830184613313565b939250505056fe726573205368616d6972203864696d20707265636f6d70757465642058595a5a20206d756c6d756c6164643a4142434445464748494a4b4c4d4e4f505152535455565758595a6162636465666768696a6b6c6d6e6f707172737475767778797a303132333435363738392d5fa2646970667358221220d0d6fdcd1a8149186aa4f3929d5c19b021c499bf8a662ba44c08ec459ed92c0f64736f6c63430008110033",
  "linkReferences": {},
  "deployedLinkReferences": {}
}