{
  "_format": "hh-sol-artifact-1",
  "contractName": "Webauthn_prec2",
  "sourceName": "contracts/Webauthn_prec.sol",
  "abi": [
    {
      "inputs": [
        {
          "internalType": "bytes",
          "name": "Shamir8_ss2",
          "type": "bytes"
        }
      ],
      "stateMutability": "nonpayable",
      "type": "constructor"
    },
    {
      "inputs": [],
      "name": "InvalidAuthenticatorData",
      "type": "error"
    },
    {
      "inputs": [],
      "name": "InvalidClientData",
      "type": "error"
    },
    {
      "inputs": [],
      "name": "InvalidSignature",
      "type": "error"
    },
    {
      "inputs": [
        {
          "internalType": "bytes",
          "name": "authenticatorData",
          "type": "bytes"
        },
        {
          "internalType": "bytes1",
          "name": "authenticatorDataFlagMask",
          "type": "bytes1"
        },
        {
          "internalType": "bytes",
          "name": "clientData",
          "type": "bytes"
        },
        {
          "internalType": "bytes32",
          "name": "clientChallenge",
          "type": "bytes32"
        },
        {
          "internalType": "uint256",
          "name": "clientChallengeDataOffset",
          "type": "uint256"
        },
        {
          "internalType": "uint256[2]",
          "name": "rs",
          "type": "uint256[2]"
        }
      ],
      "name": "checkSignature_prec",
      "outputs": [
        {
          "internalType": "bool",
          "name": "",
          "type": "bool"
        }
      ],
      "stateMutability": "nonpayable",
      "type": "function"
    },
    {
      "inputs": [],
      "name": "counter",
      "outputs": [
        {
          "internalType": "uint256",
          "name": "",
          "type": "uint256"
        }
      ],
      "stateMutability": "view",
      "type": "function"
    },
    {
      "inputs": [
        {
          "internalType": "bytes",
          "name": "authenticatorData",
          "type": "bytes"
        },
        {
          "internalType": "bytes1",
          "name": "authenticatorDataFlagMask",
          "type": "bytes1"
        },
        {
          "internalType": "bytes",
          "name": "clientData",
          "type": "bytes"
        },
        {
          "internalType": "bytes32",
          "name": "clientChallenge",
          "type": "bytes32"
        },
        {
          "internalType": "uint256",
          "name": "clientChallengeDataOffset",
          "type": "uint256"
        },
        {
          "internalType": "uint256[2]",
          "name": "rs",
          "type": "uint256[2]"
        }
      ],
      "name": "validate_prec",
      "outputs": [],
      "stateMutability": "nonpayable",
      "type": "function"
    }
  ],
  "bytecode": "0x60806040523480156200001157600080fd5b506040516200291d3803806200291d8339818101604052810190620000379190620004b2565b6000815190506200006d604051806060016040528060358152602001620028e860359139826200015d60201b6200048e1760201c565b62000083826200020360201b6200052a1760201c565b6000806101000a81548173ffffffffffffffffffffffffffffffffffffffff021916908373ffffffffffffffffffffffffffffffffffffffff1602179055506000604067ffffffffffffffff811115620000e257620000e16200034e565b5b6040519080825280601f01601f191660200182016040528015620001155781602001600182028036833780820191505090505b50905062000122620002fd565b60008060008060008060009054906101000a900473ffffffffffffffffffffffffffffffffffffffff16905050505050505050505062000745565b620001ff8282604051602401620001769291906200057b565b6040516020818303038152906040527fb60e72cc000000000000000000000000000000000000000000000000000000007bffffffffffffffffffffffffffffffffffffffffffffffffffffffff19166020820180517bffffffffffffffffffffffffffffffffffffffffffffffffffffffff8381831617835250505050620002d460201b60201c565b5050565b6000808260405160200162000219919062000637565b60405160208183030381529060405290506000816040516020016200023f9190620006ad565b60405160208183030381529060405290508051602082016000f09250600073ffffffffffffffffffffffffffffffffffffffff168373ffffffffffffffffffffffffffffffffffffffff1603620002cd576040517f08c379a0000000000000000000000000000000000000000000000000000000008152600401620002c49062000723565b60405180910390fd5b5050919050565b60008151905060006a636f6e736f6c652e6c6f679050602083016000808483855afa5050505050565b6040518060400160405280600290602082028036833780820191505090505090565b6000604051905090565b600080fd5b600080fd5b600080fd5b600080fd5b6000601f19601f8301169050919050565b7f4e487b7100000000000000000000000000000000000000000000000000000000600052604160045260246000fd5b62000388826200033d565b810181811067ffffffffffffffff82111715620003aa57620003a96200034e565b5b80604052505050565b6000620003bf6200031f565b9050620003cd82826200037d565b919050565b600067ffffffffffffffff821115620003f057620003ef6200034e565b5b620003fb826200033d565b9050602081019050919050565b60005b83811015620004285780820151818401526020810190506200040b565b60008484015250505050565b60006200044b6200044584620003d2565b620003b3565b9050828152602081018484840111156200046a576200046962000338565b5b6200047784828562000408565b509392505050565b600082601f83011262000497576200049662000333565b5b8151620004a984826020860162000434565b91505092915050565b600060208284031215620004cb57620004ca62000329565b5b600082015167ffffffffffffffff811115620004ec57620004eb6200032e565b5b620004fa848285016200047f565b91505092915050565b600081519050919050565b600082825260208201905092915050565b60006200052c8262000503565b6200053881856200050e565b93506200054a81856020860162000408565b62000555816200033d565b840191505092915050565b6000819050919050565b620005758162000560565b82525050565b600060408201905081810360008301526200059781856200051f565b9050620005a860208301846200056a565b9392505050565b600081905092915050565b60008082015250565b6000620005d2600183620005af565b9150620005df82620005ba565b600182019050919050565b600081519050919050565b600081905092915050565b60006200060d82620005ea565b620006198185620005f5565b93506200062b81856020860162000408565b80840191505092915050565b60006200064482620005c3565b915062000652828462000600565b915081905092915050565b7f600b5981380380925939f3000000000000000000000000000000000000000000600082015250565b600062000695600b83620005af565b9150620006a2826200065d565b600b82019050919050565b6000620006ba8262000686565b9150620006c8828462000600565b915081905092915050565b7f4445504c4f594d454e545f4641494c4544000000000000000000000000000000600082015250565b60006200070b6011836200050e565b91506200071882620006d3565b602082019050919050565b600060208201905081810360008301526200073e81620006fc565b9050919050565b61219380620007556000396000f3fe608060405234801561001057600080fd5b50600436106100415760003560e01c806361bc221a146100465780639f36b8fd14610064578063a53fd77c14610080575b600080fd5b61004e6100b0565b60405161005b91906117d6565b60405180910390f35b61007e60048036038101906100799190611abb565b6100b6565b005b61009a60048036038101906100959190611abb565b61011a565b6040516100a79190611b9b565b60405180910390f35b60015481565b6100c486868686868661011a565b6100fa576040517f8baa579f00000000000000000000000000000000000000000000000000000000815260040160405180910390fd5b6001600081548092919061010d90611be5565b9190505550505050505050565b6000857effffffffffffffffffffffffffffffffffffffffffffffffffffffffffffff1916868860208151811061015457610153611c2d565b5b602001015160f81c60f81b167effffffffffffffffffffffffffffffffffffffffffffffffffffffffffffff1916146101b9576040517ffc93479200000000000000000000000000000000000000000000000000000000815260040160405180910390fd5b60006101e3856040516020016101cf9190611c7d565b6040516020818303038152906040526105f4565b90506000815167ffffffffffffffff81111561020257610201611820565b5b6040519080825280601f01601f1916602001820160405280156102345781602001600182028036833780820191505090505b5090506102468786835184600061072d565b50806040516020016102589190611d09565b604051602081830303815290604052805190602001208260405160200161027f9190611d09565b60405160208183030381529060405280519060200120146102cc576040517febab5d2900000000000000000000000000000000000000000000000000000000815260040160405180910390fd5b600060208a516102dc9190611d20565b67ffffffffffffffff8111156102f5576102f4611820565b5b6040519080825280601f01601f1916602001820160405280156103275781602001600182028036833780820191505090505b50905061033a8a60008c5184600061072d565b506103b960028960405161034e9190611d09565b602060405180830381855afa15801561036b573d6000803e3d6000fd5b5050506040513d601f19601f8201168201806040525081019061038e9190611d69565b60405160200161039e9190611c7d565b60405160208183030381529060405260006020848e5161072d565b5060006002826040516103cc9190611d09565b602060405180830381855afa1580156103e9573d6000803e3d6000fd5b5050506040513d601f19601f8201168201806040525081019061040c9190611d69565b9050600061043b828860008054906101000a900473ffffffffffffffffffffffffffffffffffffffff166107cb565b905061047c6040518060400160405280600a81526020017f726573756c743d20257300000000000000000000000000000000000000000000815250826109e4565b80955050505050509695505050505050565b61052682826040516024016104a4929190611deb565b6040516020818303038152906040527fb60e72cc000000000000000000000000000000000000000000000000000000007bffffffffffffffffffffffffffffffffffffffffffffffffffffffff19166020820180517bffffffffffffffffffffffffffffffffffffffffffffffffffffffff8381831617835250505050610a80565b5050565b6000808260405160200161053e9190611e52565b60405160208183030381529060405290506000816040516020016105629190611ec0565b60405160208183030381529060405290508051602082016000f09250600073ffffffffffffffffffffffffffffffffffffffff168373ffffffffffffffffffffffffffffffffffffffff16036105ed576040517f08c379a00000000000000000000000000000000000000000000000000000000081526004016105e490611f2e565b60405180910390fd5b5050919050565b6060600082510361061657604051806020016040528060008152509050610728565b600060405180606001604052806040815260200161211e604091399050600060016003600286516106479190611d20565b6106519190611f7d565b600461065d9190611fae565b6106679190611ff0565b67ffffffffffffffff8111156106805761067f611820565b5b6040519080825280601f01601f1916602001820160405280156106b25781602001600182028036833780820191505090505b509050600182016020820185865187015b8082101561071e576003820191508151603f8160121c168501518453600184019350603f81600c1c168501518453600184019350603f8160061c168501518453600184019350603f81168501518453600184019350506106c3565b5050505080925050505b919050565b60606000828561073d9190611d20565b9050808451101561074d57600080fd5b600086602061075c9190611d20565b9050600084602061076d9190611d20565b90505b8688602061077e9190611d20565b6107889190611d20565b8210156107bc57818901518082880152506020826107a69190611d20565b91506020816107b59190611d20565b9050610770565b85935050505095945050505050565b600080836000600281106107e2576107e1611c2d565b5b6020020151148061082b57507fffffffff00000000ffffffffffffffffbce6faada7179e84f3b9cac2fc6325518360006002811061082357610822611c2d565b5b602002015110155b8061084e575060008360016002811061084757610846611c2d565b5b6020020151145b1561085c57600090506109dd565b60006108a08460016002811061087557610874611c2d565b5b60200201517fffffffff00000000ffffffffffffffffbce6faada7179e84f3b9cac2fc632551610aa9565b905060007fffffffff00000000ffffffffffffffffbce6faada7179e84f3b9cac2fc632551806108d3576108d2611f4e565b5b828760001c09905060007fffffffff00000000ffffffffffffffffbce6faada7179e84f3b9cac2fc6325518061090c5761090b611f4e565b5b838760006002811061092157610920611c2d565b5b6020020151099050610931611779565b61093c838388610b18565b90506109786040518060600160405280602c81526020016120f2602c91398260006002811061096e5761096d611c2d565b5b602002015161048e565b8660006002811061098c5761098b611c2d565b5b60200201517fffffffff00000000ffffffffffffffffbce6faada7179e84f3b9cac2fc632551826000600281106109c6576109c5611c2d565b5b60200201516109d59190612024565b149450505050505b9392505050565b610a7c82826040516024016109fa929190612055565b6040516020818303038152906040527fc3b55635000000000000000000000000000000000000000000000000000000007bffffffffffffffffffffffffffffffffffffffffffffffffffffffff19166020820180517bffffffffffffffffffffffffffffffffffffffffffffffffffffffff8381831617835250505050610a80565b5050565b60008151905060006a636f6e736f6c652e6c6f679050602083016000808483855afa5050505050565b6000610ab361179b565b60208152602080820152602060408201528360608201527fffffffff00000000ffffffffffffffffbce6faada7179e84f3b9cac2fc63254f60808201528260a082015260208160c08360006005600019f1610b0d57600080fd5b805191505092915050565b610b20611779565b600080600060ff9150610b31611779565b600160c0840389901c166001026001608085038a901c166002026001604086038b901c166004026001868c901c16600802600160c088038c901c166010026001608089038d901c16602002600160408a038e901c1660400260018a8f901c16608002010101010101019350610ba68685610f28565b86600060028110610bba57610bb9611c2d565b5b6020020187600160028110610bd257610bd1611c2d565b5b602002018281525082815250505060018082600060028110610bf757610bf6611c2d565b5b6020020183600160028110610c0f57610c0e611c2d565b5b602002018281525082815250505060fe92505b60c08310610e7757610c9685600060028110610c4157610c40611c2d565b5b602002015186600160028110610c5a57610c59611c2d565b5b602002015183600060028110610c7357610c72611c2d565b5b602002015184600160028110610c8c57610c8b611c2d565b5b6020020151610fa9565b88600060028110610caa57610ca9611c2d565b5b6020020189600160028110610cc257610cc1611c2d565b5b6020020186600060028110610cda57610cd9611c2d565b5b6020020187600160028110610cf257610cf1611c2d565b5b602002018481525084815250848152508481525050505050600160c0840389901c166001026001608085038a901c166002026001604086038b901c166004026001868c901c16600802600160c088038c901c166010026001608089038d901c16602002600160408a038e901c1660400260018a8f901c16608002010101010101019350610d7f8685610f28565b8093508195505050610df585600060028110610d9e57610d9d611c2d565b5b602002015186600160028110610db757610db6611c2d565b5b602002015183600060028110610dd057610dcf611c2d565b5b602002015184600160028110610de957610de8611c2d565b5b60200201518887611233565b88600060028110610e0957610e08611c2d565b5b6020020189600160028110610e2157610e20611c2d565b5b6020020186600060028110610e3957610e38611c2d565b5b6020020187600160028110610e5157610e50611c2d565b5b602002018481525084815250848152508481525050505050828060019003935050610c22565b610ee385600060028110610e8e57610e8d611c2d565b5b602002015186600160028110610ea757610ea6611c2d565b5b602002015183600060028110610ec057610ebf611c2d565b5b602002015184600160028110610ed957610ed8611c2d565b5b602002015161153a565b86600060028110610ef757610ef6611c2d565b5b6020020187600160028110610f0f57610f0e611c2d565b5b6020020182815250828152505050505050509392505050565b6000806000604067ffffffffffffffff811115610f4857610f47611820565b5b6040519080825280601f01601f191660200182016040528015610f7a5781602001600182028036833780820191505090505b509050610f91858560400260408760400201611648565b90506020810151925060408101519150509250929050565b6000806000807fffffffff00000001000000000000000000000000ffffffffffffffffffffffff8760020993507fffffffff00000001000000000000000000000000ffffffffffffffffffffffff84850991507fffffffff00000001000000000000000000000000ffffffffffffffffffffffff82890990507fffffffff00000001000000000000000000000000ffffffffffffffffffffffff82850992507fffffffff00000001000000000000000000000000ffffffffffffffffffffffff86830991507fffffffff00000001000000000000000000000000ffffffffffffffffffffffff807fffffffff00000001000000000000000000000000ffffffffffffffffffffffff888b087fffffffff00000001000000000000000000000000ffffffffffffffffffffffff897fffffffff00000001000000000000000000000000ffffffffffffffffffffffff038c080960030995507fffffffff00000001000000000000000000000000ffffffffffffffffffffffff80827fffffffff00000001000000000000000000000000fffffffffffffffffffffffd097fffffffff00000001000000000000000000000000ffffffffffffffffffffffff8889090893507fffffffff00000001000000000000000000000000ffffffffffffffffffffffff80857fffffffff00000001000000000000000000000000ffffffffffffffffffffffff038308870997507fffffffff00000001000000000000000000000000ffffffffffffffffffffffff85840990507fffffffff00000001000000000000000000000000ffffffffffffffffffffffff808885097fffffffff00000001000000000000000000000000ffffffffffffffffffffffff0389089250945094509450949050565b60008060008060008903611253578585600180935093509350935061152d565b887fffffffff00000001000000000000000000000000ffffffffffffffffffffffff0398507fffffffff00000001000000000000000000000000ffffffffffffffffffffffff897fffffffff00000001000000000000000000000000ffffffffffffffffffffffff8988090894507fffffffff00000001000000000000000000000000ffffffffffffffffffffffff8a7fffffffff00000001000000000000000000000000ffffffffffffffffffffffff037fffffffff00000001000000000000000000000000ffffffffffffffffffffffff8a89090895507fffffffff00000001000000000000000000000000ffffffffffffffffffffffff86870993507fffffffff00000001000000000000000000000000ffffffffffffffffffffffff86850992507fffffffff00000001000000000000000000000000ffffffffffffffffffffffff84890991507fffffffff00000001000000000000000000000000ffffffffffffffffffffffff83880990507fffffffff00000001000000000000000000000000ffffffffffffffffffffffff848b0997507fffffffff00000001000000000000000000000000ffffffffffffffffffffffff80897fffffffff00000001000000000000000000000000fffffffffffffffffffffffd097fffffffff00000001000000000000000000000000ffffffffffffffffffffffff857fffffffff00000001000000000000000000000000ffffffffffffffffffffffff037fffffffff00000001000000000000000000000000ffffffffffffffffffffffff898a09080893507fffffffff00000001000000000000000000000000ffffffffffffffffffffffff80848b097fffffffff00000001000000000000000000000000ffffffffffffffffffffffff877fffffffff00000001000000000000000000000000ffffffffffffffffffffffff887fffffffff00000001000000000000000000000000ffffffffffffffffffffffff038d08090892505b9650965096509692505050565b6000806000611569847fffffffff00000001000000000000000000000000ffffffffffffffffffffffff6116e1565b90507fffffffff00000001000000000000000000000000ffffffffffffffffffffffff8061159a57611599611f4e565b5b818709915060007fffffffff00000001000000000000000000000000ffffffffffffffffffffffff806115d0576115cf611f4e565b5b82870990507fffffffff00000001000000000000000000000000ffffffffffffffffffffffff8061160457611603611f4e565b5b81820991507fffffffff00000001000000000000000000000000ffffffffffffffffffffffff8061163857611637611f4e565b5b8289099350505094509492505050565b60606001836116579190611d20565b92506001826116669190611d20565b9150818473ffffffffffffffffffffffffffffffffffffffff163b10156116c2576040517f08c379a00000000000000000000000000000000000000000000000000000000081526004016116b9906120d1565b60405180910390fd5b6116d8848485856116d39190611ff0565b611750565b90509392505050565b60006116eb61179b565b60208152602080820152602060408201528360608201527fffffffff00000001000000000000000000000000fffffffffffffffffffffffd60808201528260a082015260208160c08360006005600019f161174557600080fd5b805191505092915050565b60606040519050601f19601f6020840101168101604052818152818360208301863c9392505050565b6040518060400160405280600290602082028036833780820191505090505090565b6040518060c00160405280600690602082028036833780820191505090505090565b6000819050919050565b6117d0816117bd565b82525050565b60006020820190506117eb60008301846117c7565b92915050565b6000604051905090565b600080fd5b600080fd5b600080fd5b600080fd5b6000601f19601f8301169050919050565b7f4e487b7100000000000000000000000000000000000000000000000000000000600052604160045260246000fd5b6118588261180f565b810181811067ffffffffffffffff8211171561187757611876611820565b5b80604052505050565b600061188a6117f1565b9050611896828261184f565b919050565b600067ffffffffffffffff8211156118b6576118b5611820565b5b6118bf8261180f565b9050602081019050919050565b82818337600083830152505050565b60006118ee6118e98461189b565b611880565b90508281526020810184848401111561190a5761190961180a565b5b6119158482856118cc565b509392505050565b600082601f83011261193257611931611805565b5b81356119428482602086016118db565b91505092915050565b60007fff0000000000000000000000000000000000000000000000000000000000000082169050919050565b6119808161194b565b811461198b57600080fd5b50565b60008135905061199d81611977565b92915050565b6000819050919050565b6119b6816119a3565b81146119c157600080fd5b50565b6000813590506119d3816119ad565b92915050565b6119e2816117bd565b81146119ed57600080fd5b50565b6000813590506119ff816119d9565b92915050565b600067ffffffffffffffff821115611a2057611a1f611820565b5b602082029050919050565b600080fd5b6000611a43611a3e84611a05565b611880565b90508060208402830185811115611a5d57611a5c611a2b565b5b835b81811015611a865780611a7288826119f0565b845260208401935050602081019050611a5f565b5050509392505050565b600082601f830112611aa557611aa4611805565b5b6002611ab2848285611a30565b91505092915050565b60008060008060008060e08789031215611ad857611ad76117fb565b5b600087013567ffffffffffffffff811115611af657611af5611800565b5b611b0289828a0161191d565b9650506020611b1389828a0161198e565b955050604087013567ffffffffffffffff811115611b3457611b33611800565b5b611b4089828a0161191d565b9450506060611b5189828a016119c4565b9350506080611b6289828a016119f0565b92505060a0611b7389828a01611a90565b9150509295509295509295565b60008115159050919050565b611b9581611b80565b82525050565b6000602082019050611bb06000830184611b8c565b92915050565b7f4e487b7100000000000000000000000000000000000000000000000000000000600052601160045260246000fd5b6000611bf0826117bd565b91507fffffffffffffffffffffffffffffffffffffffffffffffffffffffffffffffff8203611c2257611c21611bb6565b5b600182019050919050565b7f4e487b7100000000000000000000000000000000000000000000000000000000600052603260045260246000fd5b6000819050919050565b611c77611c72826119a3565b611c5c565b82525050565b6000611c898284611c66565b60208201915081905092915050565b600081519050919050565b600081905092915050565b60005b83811015611ccc578082015181840152602081019050611cb1565b60008484015250505050565b6000611ce382611c98565b611ced8185611ca3565b9350611cfd818560208601611cae565b80840191505092915050565b6000611d158284611cd8565b915081905092915050565b6000611d2b826117bd565b9150611d36836117bd565b9250828201905080821115611d4e57611d4d611bb6565b5b92915050565b600081519050611d63816119ad565b92915050565b600060208284031215611d7f57611d7e6117fb565b5b6000611d8d84828501611d54565b91505092915050565b600081519050919050565b600082825260208201905092915050565b6000611dbd82611d96565b611dc78185611da1565b9350611dd7818560208601611cae565b611de08161180f565b840191505092915050565b60006040820190508181036000830152611e058185611db2565b9050611e1460208301846117c7565b9392505050565b600081905092915050565b60008082015250565b6000611e3c600183611e1b565b9150611e4782611e26565b600182019050919050565b6000611e5d82611e2f565b9150611e698284611cd8565b915081905092915050565b7f600b5981380380925939f3000000000000000000000000000000000000000000600082015250565b6000611eaa600b83611e1b565b9150611eb582611e74565b600b82019050919050565b6000611ecb82611e9d565b9150611ed78284611cd8565b915081905092915050565b7f4445504c4f594d454e545f4641494c4544000000000000000000000000000000600082015250565b6000611f18601183611da1565b9150611f2382611ee2565b602082019050919050565b60006020820190508181036000830152611f4781611f0b565b9050919050565b7f4e487b7100000000000000000000000000000000000000000000000000000000600052601260045260246000fd5b6000611f88826117bd565b9150611f93836117bd565b925082611fa357611fa2611f4e565b5b828204905092915050565b6000611fb9826117bd565b9150611fc4836117bd565b9250828202611fd2816117bd565b91508282048414831517611fe957611fe8611bb6565b5b5092915050565b6000611ffb826117bd565b9150612006836117bd565b925082820390508181111561201e5761201d611bb6565b5b92915050565b600061202f826117bd565b915061203a836117bd565b92508261204a57612049611f4e565b5b828206905092915050565b6000604082019050818103600083015261206f8185611db2565b905061207e6020830184611b8c565b9392505050565b7f4f55545f4f465f424f554e445300000000000000000000000000000000000000600082015250565b60006120bb600d83611da1565b91506120c682612085565b602082019050919050565b600060208201905081810360008301526120ea816120ae565b905091905056fe726573205368616d6972203864696d20707265636f6d70757465642058595a5a20206d756c6d756c6164643a4142434445464748494a4b4c4d4e4f505152535455565758595a6162636465666768696a6b6c6d6e6f707172737475767778797a303132333435363738392d5fa2646970667358221220b7e4a502c3543b088ed0417adf0b25e7a0db2f770ab56cb0e6f71ef1794f5a8e64736f6c634300081100334563726974757265206465206c61207461626c6520696e707574202064616e73206c6520636f6e747261742c207461696c6c65203a",
  "linkReferences": {},
  "deployedLinkReferences": {}
}