{
  "_format": "hh-sol-artifact-1",
  "contractName": "BytecodeTable",
  "sourceName": "contracts/Webauthn_prec.sol",
  "abi": [
    {
      "inputs": [
        {
          "internalType": "address",
          "name": "selfe",
          "type": "address"
        }
      ],
      "name": "Reader",
      "outputs": [],
      "stateMutability": "nonpayable",
      "type": "function"
    }
  ],
  "bytecode": "0x608060405234801561001057600080fd5b50610425806100206000396000f3fe608060405234801561001057600080fd5b506004361061002b5760003560e01c80634dc5862814610030575b600080fd5b61004a60048036038101906100459190610230565b61004c565b005b6100546101ab565b6100a96040518060400160405280600881526020017f616464726573733d0000000000000000000000000000000000000000000000008152508373ffffffffffffffffffffffffffffffffffffffff166100e6565b60005b6101008110156100e15760008160406100c59190610296565b905060408184863c5080806100d9906102d8565b9150506100ac565b505050565b61017e82826040516024016100fc9291906103bf565b6040516020818303038152906040527fb60e72cc000000000000000000000000000000000000000000000000000000007bffffffffffffffffffffffffffffffffffffffffffffffffffffffff19166020820180517bffffffffffffffffffffffffffffffffffffffffffffffffffffffff8381831617835250505050610182565b5050565b60008151905060006a636f6e736f6c652e6c6f679050602083016000808483855afa5050505050565b6040518060400160405280600290602082028036833780820191505090505090565b600080fd5b600073ffffffffffffffffffffffffffffffffffffffff82169050919050565b60006101fd826101d2565b9050919050565b61020d816101f2565b811461021857600080fd5b50565b60008135905061022a81610204565b92915050565b600060208284031215610246576102456101cd565b5b60006102548482850161021b565b91505092915050565b6000819050919050565b7f4e487b7100000000000000000000000000000000000000000000000000000000600052601160045260246000fd5b60006102a18261025d565b91506102ac8361025d565b92508282026102ba8161025d565b915082820484148315176102d1576102d0610267565b5b5092915050565b60006102e38261025d565b91507fffffffffffffffffffffffffffffffffffffffffffffffffffffffffffffffff820361031557610314610267565b5b600182019050919050565b600081519050919050565b600082825260208201905092915050565b60005b8381101561035a57808201518184015260208101905061033f565b60008484015250505050565b6000601f19601f8301169050919050565b600061038282610320565b61038c818561032b565b935061039c81856020860161033c565b6103a581610366565b840191505092915050565b6103b98161025d565b82525050565b600060408201905081810360008301526103d98185610377565b90506103e860208301846103b0565b939250505056fea2646970667358221220b3f3c4ae8d454d916807b971c97f06cf81cd7ccb617434e8ed6dbe9cbe931dec64736f6c63430008110033",
  "linkReferences": {},
  "deployedLinkReferences": {}
}