{
  "_format": "hh-sol-artifact-1",
  "contractName": "Webauthn_prec2",
  "sourceName": "contracts/Webauthn_prec.sol",
  "abi": [
    {
      "inputs": [
        {
          "internalType": "bytes",
          "name": "Shamir8_ss2",
          "type": "bytes"
        }
      ],
      "stateMutability": "nonpayable",
      "type": "constructor"
    },
    {
      "inputs": [],
      "name": "InvalidAuthenticatorData",
      "type": "error"
    },
    {
      "inputs": [],
      "name": "InvalidClientData",
      "type": "error"
    },
    {
      "inputs": [],
      "name": "InvalidSignature",
      "type": "error"
    },
    {
      "inputs": [
        {
          "internalType": "bytes",
          "name": "authenticatorData",
          "type": "bytes"
        },
        {
          "internalType": "bytes1",
          "name": "authenticatorDataFlagMask",
          "type": "bytes1"
        },
        {
          "internalType": "bytes",
          "name": "clientData",
          "type": "bytes"
        },
        {
          "internalType": "bytes32",
          "name": "clientChallenge",
          "type": "bytes32"
        },
        {
          "internalType": "uint256",
          "name": "clientChallengeDataOffset",
          "type": "uint256"
        },
        {
          "internalType": "uint256[2]",
          "name": "rs",
          "type": "uint256[2]"
        }
      ],
      "name": "checkSignature_prec",
      "outputs": [
        {
          "internalType": "bool",
          "name": "",
          "type": "bool"
        }
      ],
      "stateMutability": "nonpayable",
      "type": "function"
    },
    {
      "inputs": [],
      "name": "counter",
      "outputs": [
        {
          "internalType": "uint256",
          "name": "",
          "type": "uint256"
        }
      ],
      "stateMutability": "view",
      "type": "function"
    },
    {
      "inputs": [
        {
          "internalType": "bytes",
          "name": "authenticatorData",
          "type": "bytes"
        },
        {
          "internalType": "bytes1",
          "name": "authenticatorDataFlagMask",
          "type": "bytes1"
        },
        {
          "internalType": "bytes",
          "name": "clientData",
          "type": "bytes"
        },
        {
          "internalType": "bytes32",
          "name": "clientChallenge",
          "type": "bytes32"
        },
        {
          "internalType": "uint256",
          "name": "clientChallengeDataOffset",
          "type": "uint256"
        },
        {
          "internalType": "uint256[2]",
          "name": "rs",
          "type": "uint256[2]"
        }
      ],
      "name": "validate_prec",
      "outputs": [],
      "stateMutability": "nonpayable",
      "type": "function"
    }
  ],
  "bytecode": "0x60806040523480156200001157600080fd5b50604051620027aa380380620027aa8339818101604052810190620000379190620004b2565b6000815190506200006d6040518060600160405280603581526020016200277560359139826200015d60201b620001e91760201c565b62000083826200020360201b620002851760201c565b6000806101000a81548173ffffffffffffffffffffffffffffffffffffffff021916908373ffffffffffffffffffffffffffffffffffffffff1602179055506000604067ffffffffffffffff811115620000e257620000e16200034e565b5b6040519080825280601f01601f191660200182016040528015620001155781602001600182028036833780820191505090505b50905062000122620002fd565b60008060008060008060009054906101000a900473ffffffffffffffffffffffffffffffffffffffff16905050505050505050505062000745565b620001ff8282604051602401620001769291906200057b565b6040516020818303038152906040527fb60e72cc000000000000000000000000000000000000000000000000000000007bffffffffffffffffffffffffffffffffffffffffffffffffffffffff19166020820180517bffffffffffffffffffffffffffffffffffffffffffffffffffffffff8381831617835250505050620002d460201b60201c565b5050565b6000808260405160200162000219919062000637565b60405160208183030381529060405290506000816040516020016200023f9190620006ad565b60405160208183030381529060405290508051602082016000f09250600073ffffffffffffffffffffffffffffffffffffffff168373ffffffffffffffffffffffffffffffffffffffff1603620002cd576040517f08c379a0000000000000000000000000000000000000000000000000000000008152600401620002c49062000723565b60405180910390fd5b5050919050565b60008151905060006a636f6e736f6c652e6c6f679050602083016000808483855afa5050505050565b6040518060400160405280600290602082028036833780820191505090505090565b6000604051905090565b600080fd5b600080fd5b600080fd5b600080fd5b6000601f19601f8301169050919050565b7f4e487b7100000000000000000000000000000000000000000000000000000000600052604160045260246000fd5b62000388826200033d565b810181811067ffffffffffffffff82111715620003aa57620003a96200034e565b5b80604052505050565b6000620003bf6200031f565b9050620003cd82826200037d565b919050565b600067ffffffffffffffff821115620003f057620003ef6200034e565b5b620003fb826200033d565b9050602081019050919050565b60005b83811015620004285780820151818401526020810190506200040b565b60008484015250505050565b60006200044b6200044584620003d2565b620003b3565b9050828152602081018484840111156200046a576200046962000338565b5b6200047784828562000408565b509392505050565b600082601f83011262000497576200049662000333565b5b8151620004a984826020860162000434565b91505092915050565b600060208284031215620004cb57620004ca62000329565b5b600082015167ffffffffffffffff811115620004ec57620004eb6200032e565b5b620004fa848285016200047f565b91505092915050565b600081519050919050565b600082825260208201905092915050565b60006200052c8262000503565b6200053881856200050e565b93506200054a81856020860162000408565b62000555816200033d565b840191505092915050565b6000819050919050565b620005758162000560565b82525050565b600060408201905081810360008301526200059781856200051f565b9050620005a860208301846200056a565b9392505050565b600081905092915050565b60008082015250565b6000620005d2600183620005af565b9150620005df82620005ba565b600182019050919050565b600081519050919050565b600081905092915050565b60006200060d82620005ea565b620006198185620005f5565b93506200062b81856020860162000408565b80840191505092915050565b60006200064482620005c3565b915062000652828462000600565b915081905092915050565b7f600b5981380380925939f3000000000000000000000000000000000000000000600082015250565b600062000695600b83620005af565b9150620006a2826200065d565b600b82019050919050565b6000620006ba8262000686565b9150620006c8828462000600565b915081905092915050565b7f4445504c4f594d454e545f4641494c4544000000000000000000000000000000600082015250565b60006200070b6011836200050e565b91506200071882620006d3565b602082019050919050565b600060208201905081810360008301526200073e81620006fc565b9050919050565b61202080620007556000396000f3fe608060405234801561001057600080fd5b50600436106100415760003560e01c806361bc221a146100465780639f36b8fd14610064578063a53fd77c14610080575b600080fd5b61004e6100b0565b60405161005b919061174b565b60405180910390f35b61007e600480360381019061007991906118b1565b6100b6565b005b61009a600480360381019061009591906118b1565b61011e565b6040516100a7919061199b565b60405180910390f35b60015481565b6100c6888888888888888861011e565b6100fc576040517f8baa579f00000000000000000000000000000000000000000000000000000000815260040160405180910390fd5b6001600081548092919061010f906119e5565b91905055505050505050505050565b6000806101318a8a8a8a8a8a8a8a61034f565b9050600061019782856002806020026040519081016040528092919082600260200280828437600081840152601f19601f82011690508083019250505050505060008054906101000a900473ffffffffffffffffffffffffffffffffffffffff16610607565b90506101d86040518060400160405280600a81526020017f726573756c743d2025730000000000000000000000000000000000000000000081525082610820565b809250505098975050505050505050565b61028182826040516024016101ff929190611abd565b6040516020818303038152906040527fb60e72cc000000000000000000000000000000000000000000000000000000007bffffffffffffffffffffffffffffffffffffffffffffffffffffffff19166020820180517bffffffffffffffffffffffffffffffffffffffffffffffffffffffff83818316178352505050506108bc565b5050565b600080826040516020016102999190611b6b565b60405160208183030381529060405290506000816040516020016102bd9190611bd9565b60405160208183030381529060405290508051602082016000f09250600073ffffffffffffffffffffffffffffffffffffffff168373ffffffffffffffffffffffffffffffffffffffff1603610348576040517f08c379a000000000000000000000000000000000000000000000000000000000815260040161033f90611c47565b60405180910390fd5b5050919050565b6000867effffffffffffffffffffffffffffffffffffffffffffffffffffffffffffff1916878a8a602081811061038957610388611c67565b5b9050013560f81c60f81b167effffffffffffffffffffffffffffffffffffffffffffffffffffffffffffff1916146103ed576040517ffc93479200000000000000000000000000000000000000000000000000000000815260040160405180910390fd5b6000610417856040516020016104039190611cb7565b6040516020818303038152906040526108e5565b90506000815167ffffffffffffffff81111561043657610435611cd2565b5b6040519080825280601f01601f1916602001820160405280156104685781602001600182028036833780820191505090505b50905080518589016020830137600081516020830120905080836040516020016104929190611d01565b60405160208183030381529060405280519060200120146104df576040517febab5d2900000000000000000000000000000000000000000000000000000000815260040160405180910390fd5b505050600060208a8a90506104f49190611d18565b67ffffffffffffffff81111561050d5761050c611cd2565b5b6040519080825280601f01601f19166020018201604052801561053f5781602001600182028036833780820191505090505b509050888a602083013760006002888860405161055d929190611d80565b602060405180830381855afa15801561057a573d6000803e3d6000fd5b5050506040513d601f19601f8201168201806040525081019061059d9190611dae565b90508060208b018301526002826040516105b79190611d01565b602060405180830381855afa1580156105d4573d6000803e3d6000fd5b5050506040513d601f19601f820116820180604052508101906105f79190611dae565b9250505098975050505050505050565b6000808360006002811061061e5761061d611c67565b5b6020020151148061066757507fffffffff00000000ffffffffffffffffbce6faada7179e84f3b9cac2fc6325518360006002811061065f5761065e611c67565b5b602002015110155b8061068a575060008360016002811061068357610682611c67565b5b6020020151145b156106985760009050610819565b60006106dc846001600281106106b1576106b0611c67565b5b60200201517fffffffff00000000ffffffffffffffffbce6faada7179e84f3b9cac2fc632551610a1e565b905060007fffffffff00000000ffffffffffffffffbce6faada7179e84f3b9cac2fc6325518061070f5761070e611ddb565b5b828760001c09905060007fffffffff00000000ffffffffffffffffbce6faada7179e84f3b9cac2fc6325518061074857610747611ddb565b5b838760006002811061075d5761075c611c67565b5b602002015109905061076d6116ee565b610778838388610a8d565b90506107b46040518060600160405280602c8152602001611f7f602c9139826000600281106107aa576107a9611c67565b5b60200201516101e9565b866000600281106107c8576107c7611c67565b5b60200201517fffffffff00000000ffffffffffffffffbce6faada7179e84f3b9cac2fc6325518260006002811061080257610801611c67565b5b60200201516108119190611e0a565b149450505050505b9392505050565b6108b88282604051602401610836929190611e3b565b6040516020818303038152906040527fc3b55635000000000000000000000000000000000000000000000000000000007bffffffffffffffffffffffffffffffffffffffffffffffffffffffff19166020820180517bffffffffffffffffffffffffffffffffffffffffffffffffffffffff83818316178352505050506108bc565b5050565b60008151905060006a636f6e736f6c652e6c6f679050602083016000808483855afa5050505050565b6060600082510361090757604051806020016040528060008152509050610a19565b6000604051806060016040528060408152602001611fab604091399050600060016003600286516109389190611d18565b6109429190611e6b565b600461094e9190611e9c565b6109589190611ede565b67ffffffffffffffff81111561097157610970611cd2565b5b6040519080825280601f01601f1916602001820160405280156109a35781602001600182028036833780820191505090505b509050600182016020820185865187015b80821015610a0f576003820191508151603f8160121c168501518453600184019350603f81600c1c168501518453600184019350603f8160061c168501518453600184019350603f81168501518453600184019350506109b4565b5050505080925050505b919050565b6000610a28611710565b60208152602080820152602060408201528360608201527fffffffff00000000ffffffffffffffffbce6faada7179e84f3b9cac2fc63254f60808201528260a082015260208160c08360006005600019f1610a8257600080fd5b805191505092915050565b610a956116ee565b600080600060ff9150610aa66116ee565b600160c0840389901c166001026001608085038a901c166002026001604086038b901c166004026001868c901c16600802600160c088038c901c166010026001608089038d901c16602002600160408a038e901c1660400260018a8f901c16608002010101010101019350610b1b8685610e9d565b86600060028110610b2f57610b2e611c67565b5b6020020187600160028110610b4757610b46611c67565b5b602002018281525082815250505060018082600060028110610b6c57610b6b611c67565b5b6020020183600160028110610b8457610b83611c67565b5b602002018281525082815250505060fe92505b60c08310610dec57610c0b85600060028110610bb657610bb5611c67565b5b602002015186600160028110610bcf57610bce611c67565b5b602002015183600060028110610be857610be7611c67565b5b602002015184600160028110610c0157610c00611c67565b5b6020020151610f1e565b88600060028110610c1f57610c1e611c67565b5b6020020189600160028110610c3757610c36611c67565b5b6020020186600060028110610c4f57610c4e611c67565b5b6020020187600160028110610c6757610c66611c67565b5b602002018481525084815250848152508481525050505050600160c0840389901c166001026001608085038a901c166002026001604086038b901c166004026001868c901c16600802600160c088038c901c166010026001608089038d901c16602002600160408a038e901c1660400260018a8f901c16608002010101010101019350610cf48685610e9d565b8093508195505050610d6a85600060028110610d1357610d12611c67565b5b602002015186600160028110610d2c57610d2b611c67565b5b602002015183600060028110610d4557610d44611c67565b5b602002015184600160028110610d5e57610d5d611c67565b5b602002015188876111a8565b88600060028110610d7e57610d7d611c67565b5b6020020189600160028110610d9657610d95611c67565b5b6020020186600060028110610dae57610dad611c67565b5b6020020187600160028110610dc657610dc5611c67565b5b602002018481525084815250848152508481525050505050828060019003935050610b97565b610e5885600060028110610e0357610e02611c67565b5b602002015186600160028110610e1c57610e1b611c67565b5b602002015183600060028110610e3557610e34611c67565b5b602002015184600160028110610e4e57610e4d611c67565b5b60200201516114af565b86600060028110610e6c57610e6b611c67565b5b6020020187600160028110610e8457610e83611c67565b5b6020020182815250828152505050505050509392505050565b6000806000604067ffffffffffffffff811115610ebd57610ebc611cd2565b5b6040519080825280601f01601f191660200182016040528015610eef5781602001600182028036833780820191505090505b509050610f068585604002604087604002016115bd565b90506020810151925060408101519150509250929050565b6000806000807fffffffff00000001000000000000000000000000ffffffffffffffffffffffff8760020993507fffffffff00000001000000000000000000000000ffffffffffffffffffffffff84850991507fffffffff00000001000000000000000000000000ffffffffffffffffffffffff82890990507fffffffff00000001000000000000000000000000ffffffffffffffffffffffff82850992507fffffffff00000001000000000000000000000000ffffffffffffffffffffffff86830991507fffffffff00000001000000000000000000000000ffffffffffffffffffffffff807fffffffff00000001000000000000000000000000ffffffffffffffffffffffff888b087fffffffff00000001000000000000000000000000ffffffffffffffffffffffff897fffffffff00000001000000000000000000000000ffffffffffffffffffffffff038c080960030995507fffffffff00000001000000000000000000000000ffffffffffffffffffffffff80827fffffffff00000001000000000000000000000000fffffffffffffffffffffffd097fffffffff00000001000000000000000000000000ffffffffffffffffffffffff8889090893507fffffffff00000001000000000000000000000000ffffffffffffffffffffffff80857fffffffff00000001000000000000000000000000ffffffffffffffffffffffff038308870997507fffffffff00000001000000000000000000000000ffffffffffffffffffffffff85840990507fffffffff00000001000000000000000000000000ffffffffffffffffffffffff808885097fffffffff00000001000000000000000000000000ffffffffffffffffffffffff0389089250945094509450949050565b600080600080600089036111c857858560018093509350935093506114a2565b887fffffffff00000001000000000000000000000000ffffffffffffffffffffffff0398507fffffffff00000001000000000000000000000000ffffffffffffffffffffffff897fffffffff00000001000000000000000000000000ffffffffffffffffffffffff8988090894507fffffffff00000001000000000000000000000000ffffffffffffffffffffffff8a7fffffffff00000001000000000000000000000000ffffffffffffffffffffffff037fffffffff00000001000000000000000000000000ffffffffffffffffffffffff8a89090895507fffffffff00000001000000000000000000000000ffffffffffffffffffffffff86870993507fffffffff00000001000000000000000000000000ffffffffffffffffffffffff86850992507fffffffff00000001000000000000000000000000ffffffffffffffffffffffff84890991507fffffffff00000001000000000000000000000000ffffffffffffffffffffffff83880990507fffffffff00000001000000000000000000000000ffffffffffffffffffffffff848b0997507fffffffff00000001000000000000000000000000ffffffffffffffffffffffff80897fffffffff00000001000000000000000000000000fffffffffffffffffffffffd097fffffffff00000001000000000000000000000000ffffffffffffffffffffffff857fffffffff00000001000000000000000000000000ffffffffffffffffffffffff037fffffffff00000001000000000000000000000000ffffffffffffffffffffffff898a09080893507fffffffff00000001000000000000000000000000ffffffffffffffffffffffff80848b097fffffffff00000001000000000000000000000000ffffffffffffffffffffffff877fffffffff00000001000000000000000000000000ffffffffffffffffffffffff887fffffffff00000001000000000000000000000000ffffffffffffffffffffffff038d08090892505b9650965096509692505050565b60008060006114de847fffffffff00000001000000000000000000000000ffffffffffffffffffffffff611656565b90507fffffffff00000001000000000000000000000000ffffffffffffffffffffffff8061150f5761150e611ddb565b5b818709915060007fffffffff00000001000000000000000000000000ffffffffffffffffffffffff8061154557611544611ddb565b5b82870990507fffffffff00000001000000000000000000000000ffffffffffffffffffffffff8061157957611578611ddb565b5b81820991507fffffffff00000001000000000000000000000000ffffffffffffffffffffffff806115ad576115ac611ddb565b5b8289099350505094509492505050565b60606001836115cc9190611d18565b92506001826115db9190611d18565b9150818473ffffffffffffffffffffffffffffffffffffffff163b1015611637576040517f08c379a000000000000000000000000000000000000000000000000000000000815260040161162e90611f5e565b60405180910390fd5b61164d848485856116489190611ede565b6116c5565b90509392505050565b6000611660611710565b60208152602080820152602060408201528360608201527fffffffff00000001000000000000000000000000fffffffffffffffffffffffd60808201528260a082015260208160c08360006005600019f16116ba57600080fd5b805191505092915050565b60606040519050601f19601f6020840101168101604052818152818360208301863c9392505050565b6040518060400160405280600290602082028036833780820191505090505090565b6040518060c00160405280600690602082028036833780820191505090505090565b6000819050919050565b61174581611732565b82525050565b6000602082019050611760600083018461173c565b92915050565b600080fd5b600080fd5b600080fd5b600080fd5b600080fd5b60008083601f84011261179557611794611770565b5b8235905067ffffffffffffffff8111156117b2576117b1611775565b5b6020830191508360018202830111156117ce576117cd61177a565b5b9250929050565b60007fff0000000000000000000000000000000000000000000000000000000000000082169050919050565b61180a816117d5565b811461181557600080fd5b50565b60008135905061182781611801565b92915050565b6000819050919050565b6118408161182d565b811461184b57600080fd5b50565b60008135905061185d81611837565b92915050565b61186c81611732565b811461187757600080fd5b50565b60008135905061188981611863565b92915050565b6000819050826020600202820111156118ab576118aa61177a565b5b92915050565b60008060008060008060008060e0898b0312156118d1576118d0611766565b5b600089013567ffffffffffffffff8111156118ef576118ee61176b565b5b6118fb8b828c0161177f565b9850985050602061190e8b828c01611818565b965050604089013567ffffffffffffffff81111561192f5761192e61176b565b5b61193b8b828c0161177f565b9550955050606061194e8b828c0161184e565b935050608061195f8b828c0161187a565b92505060a06119708b828c0161188f565b9150509295985092959890939650565b60008115159050919050565b61199581611980565b82525050565b60006020820190506119b0600083018461198c565b92915050565b7f4e487b7100000000000000000000000000000000000000000000000000000000600052601160045260246000fd5b60006119f082611732565b91507fffffffffffffffffffffffffffffffffffffffffffffffffffffffffffffffff8203611a2257611a216119b6565b5b600182019050919050565b600081519050919050565b600082825260208201905092915050565b60005b83811015611a67578082015181840152602081019050611a4c565b60008484015250505050565b6000601f19601f8301169050919050565b6000611a8f82611a2d565b611a998185611a38565b9350611aa9818560208601611a49565b611ab281611a73565b840191505092915050565b60006040820190508181036000830152611ad78185611a84565b9050611ae6602083018461173c565b9392505050565b600081905092915050565b60008082015250565b6000611b0e600183611aed565b9150611b1982611af8565b600182019050919050565b600081519050919050565b600081905092915050565b6000611b4582611b24565b611b4f8185611b2f565b9350611b5f818560208601611a49565b80840191505092915050565b6000611b7682611b01565b9150611b828284611b3a565b915081905092915050565b7f600b5981380380925939f3000000000000000000000000000000000000000000600082015250565b6000611bc3600b83611aed565b9150611bce82611b8d565b600b82019050919050565b6000611be482611bb6565b9150611bf08284611b3a565b915081905092915050565b7f4445504c4f594d454e545f4641494c4544000000000000000000000000000000600082015250565b6000611c31601183611a38565b9150611c3c82611bfb565b602082019050919050565b60006020820190508181036000830152611c6081611c24565b9050919050565b7f4e487b7100000000000000000000000000000000000000000000000000000000600052603260045260246000fd5b6000819050919050565b611cb1611cac8261182d565b611c96565b82525050565b6000611cc38284611ca0565b60208201915081905092915050565b7f4e487b7100000000000000000000000000000000000000000000000000000000600052604160045260246000fd5b6000611d0d8284611b3a565b915081905092915050565b6000611d2382611732565b9150611d2e83611732565b9250828201905080821115611d4657611d456119b6565b5b92915050565b82818337600083830152505050565b6000611d678385611b2f565b9350611d74838584611d4c565b82840190509392505050565b6000611d8d828486611d5b565b91508190509392505050565b600081519050611da881611837565b92915050565b600060208284031215611dc457611dc3611766565b5b6000611dd284828501611d99565b91505092915050565b7f4e487b7100000000000000000000000000000000000000000000000000000000600052601260045260246000fd5b6000611e1582611732565b9150611e2083611732565b925082611e3057611e2f611ddb565b5b828206905092915050565b60006040820190508181036000830152611e558185611a84565b9050611e64602083018461198c565b9392505050565b6000611e7682611732565b9150611e8183611732565b925082611e9157611e90611ddb565b5b828204905092915050565b6000611ea782611732565b9150611eb283611732565b9250828202611ec081611732565b91508282048414831517611ed757611ed66119b6565b5b5092915050565b6000611ee982611732565b9150611ef483611732565b9250828203905081811115611f0c57611f0b6119b6565b5b92915050565b7f4f55545f4f465f424f554e445300000000000000000000000000000000000000600082015250565b6000611f48600d83611a38565b9150611f5382611f12565b602082019050919050565b60006020820190508181036000830152611f7781611f3b565b905091905056fe726573205368616d6972203864696d20707265636f6d70757465642058595a5a20206d756c6d756c6164643a4142434445464748494a4b4c4d4e4f505152535455565758595a6162636465666768696a6b6c6d6e6f707172737475767778797a303132333435363738392d5fa264697066735822122018ae017a2af0ba06dcd81bcbc377f3feb90d97f9a6e935615f3d354ba0d851b364736f6c634300081100334563726974757265206465206c61207461626c6520696e707574202064616e73206c6520636f6e747261742c207461696c6c65203a",
  "linkReferences": {},
  "deployedLinkReferences": {}
}