{
  "_format": "hh-sol-artifact-1",
  "contractName": "Webauthn_prec4",
  "sourceName": "contracts/Webauthn_prec.sol",
  "abi": [
    {
      "inputs": [
        {
          "internalType": "uint256",
          "name": "Precompute_contract",
          "type": "uint256"
        }
      ],
      "stateMutability": "nonpayable",
      "type": "constructor"
    },
    {
      "inputs": [],
      "name": "InvalidAuthenticatorData",
      "type": "error"
    },
    {
      "inputs": [],
      "name": "InvalidClientData",
      "type": "error"
    },
    {
      "inputs": [],
      "name": "InvalidSignature",
      "type": "error"
    },
    {
      "inputs": [],
      "name": "counter",
      "outputs": [
        {
          "internalType": "uint256",
          "name": "",
          "type": "uint256"
        }
      ],
      "stateMutability": "view",
      "type": "function"
    },
    {
      "inputs": [
        {
          "internalType": "bytes",
          "name": "authenticatorData",
          "type": "bytes"
        },
        {
          "internalType": "bytes1",
          "name": "authenticatorDataFlagMask",
          "type": "bytes1"
        },
        {
          "internalType": "bytes",
          "name": "clientData",
          "type": "bytes"
        },
        {
          "internalType": "bytes32",
          "name": "clientChallenge",
          "type": "bytes32"
        },
        {
          "internalType": "uint256",
          "name": "clientChallengeDataOffset",
          "type": "uint256"
        },
        {
          "internalType": "uint256[2]",
          "name": "rs",
          "type": "uint256[2]"
        }
      ],
      "name": "validate_prec_4",
      "outputs": [],
      "stateMutability": "nonpayable",
      "type": "function"
    }
  ],
  "bytecode": "0x60806040523480156200001157600080fd5b506040516200158b3803806200158b833981810160405281019062000037919062000085565b8060008190555050620000b7565b600080fd5b6000819050919050565b6200005f816200004a565b81146200006b57600080fd5b50565b6000815190506200007f8162000054565b92915050565b6000602082840312156200009e576200009d62000045565b5b6000620000ae848285016200006e565b91505092915050565b6114c480620000c76000396000f3fe608060405234801561001057600080fd5b50600436106100365760003560e01c806361bc221a1461003b5780639d767d4214610059575b600080fd5b610043610075565b6040516100509190610ee7565b60405180910390f35b610073600480360381019061006e919061104d565b61007b565b005b60015481565b61008e88888888888888886000546100e6565b6100c4576040517f8baa579f00000000000000000000000000000000000000000000000000000000815260040160405180910390fd5b600160008154809291906100d79061114b565b91905055505050505050505050565b6000806100f98b8b8b8b8b8b8b8b61011c565b905060006101088286866103d4565b905080925050509998505050505050505050565b6000867effffffffffffffffffffffffffffffffffffffffffffffffffffffffffffff1916878a8a602081811061015657610155611193565b5b9050013560f81c60f81b167effffffffffffffffffffffffffffffffffffffffffffffffffffffffffffff1916146101ba576040517ffc93479200000000000000000000000000000000000000000000000000000000815260040160405180910390fd5b60006101e4856040516020016101d091906111e3565b60405160208183030381529060405261056f565b90506000815167ffffffffffffffff811115610203576102026111fe565b5b6040519080825280601f01601f1916602001820160405280156102355781602001600182028036833780820191505090505b509050805185890160208301376000815160208301209050808360405160200161025f919061129e565b60405160208183030381529060405280519060200120146102ac576040517febab5d2900000000000000000000000000000000000000000000000000000000815260040160405180910390fd5b505050600060208a8a90506102c191906112b5565b67ffffffffffffffff8111156102da576102d96111fe565b5b6040519080825280601f01601f19166020018201604052801561030c5781602001600182028036833780820191505090505b509050888a602083013760006002888860405161032a92919061131d565b602060405180830381855afa158015610347573d6000803e3d6000fd5b5050506040513d601f19601f8201168201806040525081019061036a919061134b565b90508060208b01830152600282604051610384919061129e565b602060405180830381855afa1580156103a1573d6000803e3d6000fd5b5050506040513d601f19601f820116820180604052508101906103c4919061134b565b9250505098975050505050505050565b600080836000600281106103eb576103ea611193565b5b6020020135148061043457507fffffffff00000000ffffffffffffffffbce6faada7179e84f3b9cac2fc6325518360006002811061042c5761042b611193565b5b602002013510155b8061045757506000836001600281106104505761044f611193565b5b6020020135145b156104655760009050610568565b60006104888460016002811061047e5761047d611193565b5b60200201356106a8565b905060006105147fffffffff00000000ffffffffffffffffbce6faada7179e84f3b9cac2fc632551806104be576104bd611378565b5b838860001c097fffffffff00000000ffffffffffffffffbce6faada7179e84f3b9cac2fc632551806104f3576104f2611378565b5b848860006002811061050857610507611193565b5b60200201350986610736565b90507fffffffff00000000ffffffffffffffffbce6faada7179e84f3b9cac2fc63255185357fffffffff00000000ffffffffffffffffbce6faada7179e84f3b9cac2fc632551038208905060008114925050505b9392505050565b60606000825103610591576040518060200160405280600081525090506106a3565b600060405180606001604052806040815260200161144f604091399050600060016003600286516105c291906112b5565b6105cc91906113a7565b60046105d891906113d8565b6105e2919061141a565b67ffffffffffffffff8111156105fb576105fa6111fe565b5b6040519080825280601f01601f19166020018201604052801561062d5781602001600182028036833780820191505090505b509050600182016020820185865187015b80821015610699576003820191508151603f8160121c168501518453600184019350603f81600c1c168501518453600184019350603f8160061c168501518453600184019350603f811685015184536001840193505061063e565b5050505080925050505b919050565b60006106b2610eac565b60208152602080820152602060408201528260608201527fffffffff00000000ffffffffffffffffbce6faada7179e84f3b9cac2fc63254f60808201527fffffffff00000000ffffffffffffffffbce6faada7179e84f3b9cac2fc63255160a082015260208160c08360006005600019f161072c57600080fd5b8051915050919050565b600080610741610eac565b61010091505b60008160006006811061075d5761075c611193565b5b6020020151036107f857600182039150600160c0830387901c1660016080840388901c1660020260016040850389901c166004026001858a901c16600802600160c087038a901c166010026001608088038b901c166020026001604089038c901c166040026001898d901c1660800201010101010101604002816000600681106107ea576107e9611193565b5b602002018181525050610747565b6040848251018239805192506020810151600180935060fe5b60bf811115610dfc577fffffffff00000001000000000000000000000000ffffffffffffffffffffffff836002097fffffffff00000001000000000000000000000000ffffffffffffffffffffffff8182097fffffffff00000001000000000000000000000000ffffffffffffffffffffffff8189097fffffffff00000001000000000000000000000000ffffffffffffffffffffffff82840992507fffffffff00000001000000000000000000000000ffffffffffffffffffffffff807fffffffff00000001000000000000000000000000ffffffffffffffffffffffff8a8c087fffffffff00000001000000000000000000000000ffffffffffffffffffffffff8b7fffffffff00000001000000000000000000000000ffffffffffffffffffffffff038d08096003097fffffffff00000001000000000000000000000000ffffffffffffffffffffffff86850995507fffffffff00000001000000000000000000000000ffffffffffffffffffffffff89840998507fffffffff00000001000000000000000000000000ffffffffffffffffffffffff80837fffffffff00000001000000000000000000000000fffffffffffffffffffffffd097fffffffff00000001000000000000000000000000ffffffffffffffffffffffff8384090899507fffffffff00000001000000000000000000000000ffffffffffffffffffffffff80837fffffffff00000001000000000000000000000000ffffffffffffffffffffffff038c08820992507fffffffff00000001000000000000000000000000ffffffffffffffffffffffff837fffffffff00000001000000000000000000000000ffffffffffffffffffffffff89870908965060018d861c1660091b60018d871c16600d1b01905060408503945060018d861c1660081b60018d871c16600c1b018101905060408503945060018d861c1660071b60018d871c16600b1b018101905060408503945060018d861c1660061b60018d871c16600a1b018101905080610b2857867fffffffff00000001000000000000000000000000ffffffffffffffffffffffff03965050505050610df1565b60408b820189397fffffffff00000001000000000000000000000000ffffffffffffffffffffffff877fffffffff00000001000000000000000000000000ffffffffffffffffffffffff8860208c015109087fffffffff00000001000000000000000000000000ffffffffffffffffffffffff8b7fffffffff00000001000000000000000000000000ffffffffffffffffffffffff037fffffffff00000001000000000000000000000000ffffffffffffffffffffffff8c8c51090893507fffffffff00000001000000000000000000000000ffffffffffffffffffffffff84850991507fffffffff00000001000000000000000000000000ffffffffffffffffffffffff84830994507fffffffff00000001000000000000000000000000ffffffffffffffffffffffff828b0993507fffffffff00000001000000000000000000000000ffffffffffffffffffffffff85880996507fffffffff00000001000000000000000000000000ffffffffffffffffffffffff828c097fffffffff00000001000000000000000000000000ffffffffffffffffffffffff80827fffffffff00000001000000000000000000000000fffffffffffffffffffffffd097fffffffff00000001000000000000000000000000ffffffffffffffffffffffff887fffffffff00000001000000000000000000000000ffffffffffffffffffffffff037fffffffff00000001000000000000000000000000ffffffffffffffffffffffff868709080892507fffffffff00000001000000000000000000000000ffffffffffffffffffffffff80878b097fffffffff00000001000000000000000000000000ffffffffffffffffffffffff847fffffffff00000001000000000000000000000000ffffffffffffffffffffffff877fffffffff00000001000000000000000000000000ffffffffffffffffffffffff03860809089850849a50829b505050505050505b60bf81019050610811565b5083606084015260208352602080840152602060408401527fffffffff00000001000000000000000000000000fffffffffffffffffffffffd60808401527fffffffff00000001000000000000000000000000ffffffffffffffffffffffff60a084015260208360c08560006005600019f1610e7757600080fd5b825193507fffffffff00000001000000000000000000000000ffffffffffffffffffffffff8486099450505050509392505050565b6040518060c00160405280600690602082028036833780820191505090505090565b6000819050919050565b610ee181610ece565b82525050565b6000602082019050610efc6000830184610ed8565b92915050565b600080fd5b600080fd5b600080fd5b600080fd5b600080fd5b60008083601f840112610f3157610f30610f0c565b5b8235905067ffffffffffffffff811115610f4e57610f4d610f11565b5b602083019150836001820283011115610f6a57610f69610f16565b5b9250929050565b60007fff0000000000000000000000000000000000000000000000000000000000000082169050919050565b610fa681610f71565b8114610fb157600080fd5b50565b600081359050610fc381610f9d565b92915050565b6000819050919050565b610fdc81610fc9565b8114610fe757600080fd5b50565b600081359050610ff981610fd3565b92915050565b61100881610ece565b811461101357600080fd5b50565b60008135905061102581610fff565b92915050565b60008190508260206002028201111561104757611046610f16565b5b92915050565b60008060008060008060008060e0898b03121561106d5761106c610f02565b5b600089013567ffffffffffffffff81111561108b5761108a610f07565b5b6110978b828c01610f1b565b985098505060206110aa8b828c01610fb4565b965050604089013567ffffffffffffffff8111156110cb576110ca610f07565b5b6110d78b828c01610f1b565b955095505060606110ea8b828c01610fea565b93505060806110fb8b828c01611016565b92505060a061110c8b828c0161102b565b9150509295985092959890939650565b7f4e487b7100000000000000000000000000000000000000000000000000000000600052601160045260246000fd5b600061115682610ece565b91507fffffffffffffffffffffffffffffffffffffffffffffffffffffffffffffffff82036111885761118761111c565b5b600182019050919050565b7f4e487b7100000000000000000000000000000000000000000000000000000000600052603260045260246000fd5b6000819050919050565b6111dd6111d882610fc9565b6111c2565b82525050565b60006111ef82846111cc565b60208201915081905092915050565b7f4e487b7100000000000000000000000000000000000000000000000000000000600052604160045260246000fd5b600081519050919050565b600081905092915050565b60005b83811015611261578082015181840152602081019050611246565b60008484015250505050565b60006112788261122d565b6112828185611238565b9350611292818560208601611243565b80840191505092915050565b60006112aa828461126d565b915081905092915050565b60006112c082610ece565b91506112cb83610ece565b92508282019050808211156112e3576112e261111c565b5b92915050565b82818337600083830152505050565b60006113048385611238565b93506113118385846112e9565b82840190509392505050565b600061132a8284866112f8565b91508190509392505050565b60008151905061134581610fd3565b92915050565b60006020828403121561136157611360610f02565b5b600061136f84828501611336565b91505092915050565b7f4e487b7100000000000000000000000000000000000000000000000000000000600052601260045260246000fd5b60006113b282610ece565b91506113bd83610ece565b9250826113cd576113cc611378565b5b828204905092915050565b60006113e382610ece565b91506113ee83610ece565b92508282026113fc81610ece565b915082820484148315176114135761141261111c565b5b5092915050565b600061142582610ece565b915061143083610ece565b92508282039050818111156114485761144761111c565b5b9291505056fe4142434445464748494a4b4c4d4e4f505152535455565758595a6162636465666768696a6b6c6d6e6f707172737475767778797a303132333435363738392d5fa26469706673582212206eb0170fd665f0cb81e0e32039f4c5e121eb5f586d2fc65bf67127d4c1d8b54664736f6c63430008110033",
  "linkReferences": {},
  "deployedLinkReferences": {}
}